{
  "_format": "hh-sol-artifact-1",
  "contractName": "Standard1155",
  "sourceName": "contracts/tokens/Standard1155.sol",
  "abi": [
    {
      "inputs": [],
      "stateMutability": "nonpayable",
      "type": "constructor"
    },
    {
      "anonymous": false,
      "inputs": [
        {
          "indexed": true,
          "internalType": "address",
          "name": "account",
          "type": "address"
        },
        {
          "indexed": true,
          "internalType": "address",
          "name": "operator",
          "type": "address"
        },
        {
          "indexed": false,
          "internalType": "bool",
          "name": "approved",
          "type": "bool"
        }
      ],
      "name": "ApprovalForAll",
      "type": "event"
    },
    {
      "anonymous": false,
      "inputs": [
        {
          "indexed": false,
          "internalType": "address",
          "name": "account",
          "type": "address"
        }
      ],
      "name": "Paused",
      "type": "event"
    },
    {
      "anonymous": false,
      "inputs": [
        {
          "indexed": true,
          "internalType": "bytes32",
          "name": "role",
          "type": "bytes32"
        },
        {
          "indexed": true,
          "internalType": "bytes32",
          "name": "previousAdminRole",
          "type": "bytes32"
        },
        {
          "indexed": true,
          "internalType": "bytes32",
          "name": "newAdminRole",
          "type": "bytes32"
        }
      ],
      "name": "RoleAdminChanged",
      "type": "event"
    },
    {
      "anonymous": false,
      "inputs": [
        {
          "indexed": true,
          "internalType": "bytes32",
          "name": "role",
          "type": "bytes32"
        },
        {
          "indexed": true,
          "internalType": "address",
          "name": "account",
          "type": "address"
        },
        {
          "indexed": true,
          "internalType": "address",
          "name": "sender",
          "type": "address"
        }
      ],
      "name": "RoleGranted",
      "type": "event"
    },
    {
      "anonymous": false,
      "inputs": [
        {
          "indexed": true,
          "internalType": "bytes32",
          "name": "role",
          "type": "bytes32"
        },
        {
          "indexed": true,
          "internalType": "address",
          "name": "account",
          "type": "address"
        },
        {
          "indexed": true,
          "internalType": "address",
          "name": "sender",
          "type": "address"
        }
      ],
      "name": "RoleRevoked",
      "type": "event"
    },
    {
      "anonymous": false,
      "inputs": [
        {
          "indexed": true,
          "internalType": "address",
          "name": "operator",
          "type": "address"
        },
        {
          "indexed": true,
          "internalType": "address",
          "name": "from",
          "type": "address"
        },
        {
          "indexed": true,
          "internalType": "address",
          "name": "to",
          "type": "address"
        },
        {
          "indexed": false,
          "internalType": "uint256[]",
          "name": "ids",
          "type": "uint256[]"
        },
        {
          "indexed": false,
          "internalType": "uint256[]",
          "name": "values",
          "type": "uint256[]"
        }
      ],
      "name": "TransferBatch",
      "type": "event"
    },
    {
      "anonymous": false,
      "inputs": [
        {
          "indexed": true,
          "internalType": "address",
          "name": "operator",
          "type": "address"
        },
        {
          "indexed": true,
          "internalType": "address",
          "name": "from",
          "type": "address"
        },
        {
          "indexed": true,
          "internalType": "address",
          "name": "to",
          "type": "address"
        },
        {
          "indexed": false,
          "internalType": "uint256",
          "name": "id",
          "type": "uint256"
        },
        {
          "indexed": false,
          "internalType": "uint256",
          "name": "value",
          "type": "uint256"
        }
      ],
      "name": "TransferSingle",
      "type": "event"
    },
    {
      "anonymous": false,
      "inputs": [
        {
          "indexed": false,
          "internalType": "string",
          "name": "value",
          "type": "string"
        },
        {
          "indexed": true,
          "internalType": "uint256",
          "name": "id",
          "type": "uint256"
        }
      ],
      "name": "URI",
      "type": "event"
    },
    {
      "anonymous": false,
      "inputs": [
        {
          "indexed": false,
          "internalType": "address",
          "name": "account",
          "type": "address"
        }
      ],
      "name": "Unpaused",
      "type": "event"
    },
    {
      "stateMutability": "payable",
      "type": "fallback"
    },
    {
      "inputs": [],
      "name": "DEFAULT_ADMIN_ROLE",
      "outputs": [
        {
          "internalType": "bytes32",
          "name": "",
          "type": "bytes32"
        }
      ],
      "stateMutability": "view",
      "type": "function"
    },
    {
      "inputs": [],
      "name": "MAX_SUPPLY",
      "outputs": [
        {
          "internalType": "uint256",
          "name": "",
          "type": "uint256"
        }
      ],
      "stateMutability": "view",
      "type": "function"
    },
    {
      "inputs": [],
      "name": "MINTER_ROLE",
      "outputs": [
        {
          "internalType": "bytes32",
          "name": "",
          "type": "bytes32"
        }
      ],
      "stateMutability": "view",
      "type": "function"
    },
    {
      "inputs": [],
      "name": "NFT_PRICE",
      "outputs": [
        {
          "internalType": "uint256",
          "name": "",
          "type": "uint256"
        }
      ],
      "stateMutability": "view",
      "type": "function"
    },
    {
      "inputs": [],
      "name": "PAUSER_ROLE",
      "outputs": [
        {
          "internalType": "bytes32",
          "name": "",
          "type": "bytes32"
        }
      ],
      "stateMutability": "view",
      "type": "function"
    },
    {
      "inputs": [],
      "name": "TOTAL_SUPPLY",
      "outputs": [
        {
          "internalType": "uint256",
          "name": "",
          "type": "uint256"
        }
      ],
      "stateMutability": "view",
      "type": "function"
    },
    {
      "inputs": [],
      "name": "URI_SETTER_ROLE",
      "outputs": [
        {
          "internalType": "bytes32",
          "name": "",
          "type": "bytes32"
        }
      ],
      "stateMutability": "view",
      "type": "function"
    },
    {
      "inputs": [
        {
          "internalType": "address",
          "name": "account",
          "type": "address"
        },
        {
          "internalType": "uint256",
          "name": "id",
          "type": "uint256"
        }
      ],
      "name": "balanceOf",
      "outputs": [
        {
          "internalType": "uint256",
          "name": "",
          "type": "uint256"
        }
      ],
      "stateMutability": "view",
      "type": "function"
    },
    {
      "inputs": [
        {
          "internalType": "address[]",
          "name": "accounts",
          "type": "address[]"
        },
        {
          "internalType": "uint256[]",
          "name": "ids",
          "type": "uint256[]"
        }
      ],
      "name": "balanceOfBatch",
      "outputs": [
        {
          "internalType": "uint256[]",
          "name": "",
          "type": "uint256[]"
        }
      ],
      "stateMutability": "view",
      "type": "function"
    },
    {
      "inputs": [],
      "name": "buyToken",
      "outputs": [
        {
          "internalType": "bool",
          "name": "",
          "type": "bool"
        }
      ],
      "stateMutability": "payable",
      "type": "function"
    },
    {
      "inputs": [
        {
          "internalType": "uint256",
          "name": "id",
          "type": "uint256"
        }
      ],
      "name": "exists",
      "outputs": [
        {
          "internalType": "bool",
          "name": "",
          "type": "bool"
        }
      ],
      "stateMutability": "view",
      "type": "function"
    },
    {
      "inputs": [],
      "name": "getBalance",
      "outputs": [
        {
          "internalType": "uint256",
          "name": "",
          "type": "uint256"
        }
      ],
      "stateMutability": "view",
      "type": "function"
    },
    {
      "inputs": [
        {
          "internalType": "bytes32",
          "name": "role",
          "type": "bytes32"
        }
      ],
      "name": "getRoleAdmin",
      "outputs": [
        {
          "internalType": "bytes32",
          "name": "",
          "type": "bytes32"
        }
      ],
      "stateMutability": "view",
      "type": "function"
    },
    {
      "inputs": [
        {
          "internalType": "bytes32",
          "name": "role",
          "type": "bytes32"
        },
        {
          "internalType": "address",
          "name": "account",
          "type": "address"
        }
      ],
      "name": "grantRole",
      "outputs": [],
      "stateMutability": "nonpayable",
      "type": "function"
    },
    {
      "inputs": [
        {
          "internalType": "bytes32",
          "name": "role",
          "type": "bytes32"
        },
        {
          "internalType": "address",
          "name": "account",
          "type": "address"
        }
      ],
      "name": "hasRole",
      "outputs": [
        {
          "internalType": "bool",
          "name": "",
          "type": "bool"
        }
      ],
      "stateMutability": "view",
      "type": "function"
    },
    {
      "inputs": [
        {
          "internalType": "address",
          "name": "owner_",
          "type": "address"
        },
        {
          "internalType": "string",
          "name": "name_",
          "type": "string"
        },
        {
          "internalType": "string",
          "name": "symbol_",
          "type": "string"
        },
        {
          "internalType": "uint256",
          "name": "max_supply_",
          "type": "uint256"
        }
      ],
      "name": "initialize",
      "outputs": [],
      "stateMutability": "nonpayable",
      "type": "function"
    },
    {
      "inputs": [
        {
          "internalType": "address",
          "name": "account",
          "type": "address"
        },
        {
          "internalType": "address",
          "name": "operator",
          "type": "address"
        }
      ],
      "name": "isApprovedForAll",
      "outputs": [
        {
          "internalType": "bool",
          "name": "",
          "type": "bool"
        }
      ],
      "stateMutability": "view",
      "type": "function"
    },
    {
      "inputs": [
        {
          "internalType": "address",
          "name": "account",
          "type": "address"
        },
        {
          "internalType": "uint256",
          "name": "id",
          "type": "uint256"
        }
      ],
      "name": "mint",
      "outputs": [],
      "stateMutability": "nonpayable",
      "type": "function"
    },
    {
      "inputs": [
        {
          "internalType": "address",
          "name": "to",
          "type": "address"
        },
        {
          "internalType": "uint256",
          "name": "amount",
          "type": "uint256"
        },
        {
          "internalType": "uint256",
          "name": "id",
          "type": "uint256"
        }
      ],
      "name": "mintBatch",
      "outputs": [],
      "stateMutability": "nonpayable",
      "type": "function"
    },
    {
      "inputs": [
        {
          "internalType": "address",
          "name": "to",
          "type": "address"
        },
        {
          "internalType": "uint256",
          "name": "amount",
          "type": "uint256"
        }
      ],
      "name": "mintBatchUnique",
      "outputs": [],
      "stateMutability": "nonpayable",
      "type": "function"
    },
    {
      "inputs": [
        {
          "internalType": "address",
          "name": "account",
          "type": "address"
        }
      ],
      "name": "mintUnique",
      "outputs": [],
      "stateMutability": "nonpayable",
      "type": "function"
    },
    {
      "inputs": [],
      "name": "name",
      "outputs": [
        {
          "internalType": "string",
          "name": "",
          "type": "string"
        }
      ],
      "stateMutability": "view",
      "type": "function"
    },
    {
      "inputs": [],
      "name": "pause",
      "outputs": [],
      "stateMutability": "nonpayable",
      "type": "function"
    },
    {
      "inputs": [],
      "name": "paused",
      "outputs": [
        {
          "internalType": "bool",
          "name": "",
          "type": "bool"
        }
      ],
      "stateMutability": "view",
      "type": "function"
    },
    {
      "inputs": [
        {
          "internalType": "bytes32",
          "name": "role",
          "type": "bytes32"
        },
        {
          "internalType": "address",
          "name": "account",
          "type": "address"
        }
      ],
      "name": "renounceRole",
      "outputs": [],
      "stateMutability": "nonpayable",
      "type": "function"
    },
    {
      "inputs": [
        {
          "internalType": "bytes32",
          "name": "role",
          "type": "bytes32"
        },
        {
          "internalType": "address",
          "name": "account",
          "type": "address"
        }
      ],
      "name": "revokeRole",
      "outputs": [],
      "stateMutability": "nonpayable",
      "type": "function"
    },
    {
      "inputs": [
        {
          "internalType": "uint256",
          "name": "",
          "type": "uint256"
        },
        {
          "internalType": "uint256",
          "name": "_salePrice",
          "type": "uint256"
        }
      ],
      "name": "royaltyInfo",
      "outputs": [
        {
          "internalType": "address",
          "name": "receiver",
          "type": "address"
        },
        {
          "internalType": "uint256",
          "name": "royaltyAmount",
          "type": "uint256"
        }
      ],
      "stateMutability": "view",
      "type": "function"
    },
    {
      "inputs": [
        {
          "internalType": "address",
          "name": "from",
          "type": "address"
        },
        {
          "internalType": "address",
          "name": "to",
          "type": "address"
        },
        {
          "internalType": "uint256[]",
          "name": "ids",
          "type": "uint256[]"
        },
        {
          "internalType": "uint256[]",
          "name": "amounts",
          "type": "uint256[]"
        },
        {
          "internalType": "bytes",
          "name": "data",
          "type": "bytes"
        }
      ],
      "name": "safeBatchTransferFrom",
      "outputs": [],
      "stateMutability": "nonpayable",
      "type": "function"
    },
    {
      "inputs": [
        {
          "internalType": "address",
          "name": "from",
          "type": "address"
        },
        {
          "internalType": "address",
          "name": "to",
          "type": "address"
        },
        {
          "internalType": "uint256",
          "name": "id",
          "type": "uint256"
        },
        {
          "internalType": "uint256",
          "name": "amount",
          "type": "uint256"
        },
        {
          "internalType": "bytes",
          "name": "data",
          "type": "bytes"
        }
      ],
      "name": "safeTransferFrom",
      "outputs": [],
      "stateMutability": "nonpayable",
      "type": "function"
    },
    {
      "inputs": [
        {
          "internalType": "address",
          "name": "operator",
          "type": "address"
        },
        {
          "internalType": "bool",
          "name": "approved",
          "type": "bool"
        }
      ],
      "name": "setApprovalForAll",
      "outputs": [],
      "stateMutability": "nonpayable",
      "type": "function"
    },
    {
      "inputs": [
        {
          "internalType": "string",
          "name": "url_",
          "type": "string"
        }
      ],
      "name": "setDefaultUrl",
      "outputs": [
        {
          "internalType": "bool",
          "name": "",
          "type": "bool"
        }
      ],
      "stateMutability": "nonpayable",
      "type": "function"
    },
    {
      "inputs": [
        {
          "internalType": "uint256",
          "name": "supply",
          "type": "uint256"
        }
      ],
      "name": "setMaxSupply",
      "outputs": [
        {
          "internalType": "bool",
          "name": "",
          "type": "bool"
        }
      ],
      "stateMutability": "nonpayable",
      "type": "function"
    },
    {
      "inputs": [
        {
          "internalType": "uint256",
          "name": "price",
          "type": "uint256"
        }
      ],
      "name": "setNftPrice",
      "outputs": [
        {
          "internalType": "bool",
          "name": "",
          "type": "bool"
        }
      ],
      "stateMutability": "nonpayable",
      "type": "function"
    },
    {
      "inputs": [
        {
          "internalType": "address",
          "name": "_newRecipient",
          "type": "address"
        }
      ],
      "name": "setRoyalties",
      "outputs": [],
      "stateMutability": "nonpayable",
      "type": "function"
    },
    {
      "inputs": [
        {
          "internalType": "string",
          "name": "newuri",
          "type": "string"
        }
      ],
      "name": "setURI",
      "outputs": [],
      "stateMutability": "nonpayable",
      "type": "function"
    },
    {
      "inputs": [
        {
          "internalType": "bytes4",
          "name": "interfaceId",
          "type": "bytes4"
        }
      ],
      "name": "supportsInterface",
      "outputs": [
        {
          "internalType": "bool",
          "name": "",
          "type": "bool"
        }
      ],
      "stateMutability": "view",
      "type": "function"
    },
    {
      "inputs": [],
      "name": "symbol",
      "outputs": [
        {
          "internalType": "string",
          "name": "",
          "type": "string"
        }
      ],
      "stateMutability": "view",
      "type": "function"
    },
    {
      "inputs": [
        {
          "internalType": "uint256",
          "name": "id",
          "type": "uint256"
        }
      ],
      "name": "totalSupply",
      "outputs": [
        {
          "internalType": "uint256",
          "name": "",
          "type": "uint256"
        }
      ],
      "stateMutability": "view",
      "type": "function"
    },
    {
      "inputs": [],
      "name": "unpause",
      "outputs": [],
      "stateMutability": "nonpayable",
      "type": "function"
    },
    {
      "inputs": [
        {
          "internalType": "uint256",
          "name": "_tokenId",
          "type": "uint256"
        }
      ],
      "name": "uri",
      "outputs": [
        {
          "internalType": "string",
          "name": "",
          "type": "string"
        }
      ],
      "stateMutability": "view",
      "type": "function"
    },
    {
      "inputs": [
        {
          "internalType": "address payable",
          "name": "_to",
          "type": "address"
        }
      ],
      "name": "withdraw",
      "outputs": [],
      "stateMutability": "nonpayable",
      "type": "function"
    },
    {
      "stateMutability": "payable",
      "type": "receive"
    }
  ],
  "bytecode": "0x608060405266038d7ea4c68000600c553480156200001c57600080fd5b50604080516020810190915260008152620000378162000048565b506004805460ff1916905562000144565b80516200005d90600290602084019062000061565b5050565b8280546200006f9062000107565b90600052602060002090601f016020900481019282620000935760008555620000de565b82601f10620000ae57805160ff1916838001178555620000de565b82800160010185558215620000de579182015b82811115620000de578251825591602001919060010190620000c1565b50620000ec929150620000f0565b5090565b5b80821115620000ec5760008155600101620000f1565b600181811c908216806200011c57607f821691505b602082108114156200013e57634e487b7160e01b600052602260045260246000fd5b50919050565b612e9180620001546000396000f3fe6080604052600436106102315760003560e01c80635c975abb1161012d57806395d89b41116100b0578063bd85b03911610077578063bd85b03914610695578063d5391393146106c2578063d547741f146106e4578063e63ab1e914610704578063e985e9c514610726578063f242432a1461076f57005b806395d89b4114610623578063a217fddf14610638578063a22cb4651461064d578063a48217191461066d578063bd363e8b1461067557005b80637f345710116100f45780637f3457101461059657806383a9408a146105b85780638456cb59146105d8578063902d55a5146105ed57806391d148541461060357005b80635c975abb14610508578063676dd563146105205780636f8b44b0146105365780637277de72146105565780637d9a7a4c1461057657005b80632eb2c2d6116101b557806340c10f191161017c57806340c10f191461044c5780634d12d4b61461046c5780634e1273f41461048c5780634f558e79146104b957806351cff8d9146104e857005b80632eb2c2d6146103c15780632f2ff15d146103e157806332cb6b0c1461040157806336568abe146104175780633f4ba83a1461043757005b806312065fe0116101f957806312065fe0146102ff578063248a9ca3146103125780632a55205a146103425780632a9e63c6146103815780632e81aaea146103a157005b8062fdd58e1461023a57806301ffc9a71461026d57806302fe53051461029d57806306fdde03146102bd5780630e89341c146102df57005b3661023857005b005b34801561024657600080fd5b5061025a610255366004612353565b61078f565b6040519081526020015b60405180910390f35b34801561027957600080fd5b5061028d610288366004612395565b610826565b6040519015158152602001610264565b3480156102a957600080fd5b506102386102b8366004612469565b610851565b3480156102c957600080fd5b506102d2610877565b60405161026491906124f6565b3480156102eb57600080fd5b506102d26102fa366004612509565b610909565b34801561030b57600080fd5b504761025a565b34801561031e57600080fd5b5061025a61032d366004612509565b60009081526003602052604090206001015490565b34801561034e57600080fd5b5061036261035d366004612522565b6109ee565b604080516001600160a01b039093168352602083019190915201610264565b34801561038d57600080fd5b5061023861039c366004612544565b610a3e565b3480156103ad57600080fd5b506102386103bc366004612561565b610a53565b3480156103cd57600080fd5b506102386103dc36600461262b565b610ab7565b3480156103ed57600080fd5b506102386103fc3660046126d9565b610b47565b34801561040d57600080fd5b5061025a600a5481565b34801561042357600080fd5b506102386104323660046126d9565b610b72565b34801561044357600080fd5b50610238610bec565b34801561045857600080fd5b50610238610467366004612353565b610c10565b34801561047857600080fd5b50610238610487366004612709565b610c50565b34801561049857600080fd5b506104ac6104a7366004612787565b610d8c565b604051610264919061288f565b3480156104c557600080fd5b5061028d6104d4366004612509565b600090815260056020526040902054151590565b3480156104f457600080fd5b50610238610503366004612544565b610eb6565b34801561051457600080fd5b5060045460ff1661028d565b34801561052c57600080fd5b5061025a600c5481565b34801561054257600080fd5b5061028d610551366004612509565b610f58565b34801561056257600080fd5b50610238610571366004612353565b610fc5565b34801561058257600080fd5b5061028d610591366004612509565b611086565b3480156105a257600080fd5b5061025a600080516020612dfc83398151915281565b3480156105c457600080fd5b5061028d6105d3366004612469565b6110ed565b3480156105e457600080fd5b50610238611125565b3480156105f957600080fd5b5061025a600b5481565b34801561060f57600080fd5b5061028d61061e3660046126d9565b611146565b34801561062f57600080fd5b506102d2611171565b34801561064457600080fd5b5061025a600081565b34801561065957600080fd5b506102386106683660046128a2565b611180565b61028d61118b565b34801561068157600080fd5b50610238610690366004612544565b61126a565b3480156106a157600080fd5b5061025a6106b0366004612509565b60009081526005602052604090205490565b3480156106ce57600080fd5b5061025a600080516020612e3c83398151915281565b3480156106f057600080fd5b506102386106ff3660046126d9565b61130c565b34801561071057600080fd5b5061025a600080516020612e1c83398151915281565b34801561073257600080fd5b5061028d6107413660046128d5565b6001600160a01b03918216600090815260016020908152604080832093909416825291909152205460ff1690565b34801561077b57600080fd5b5061023861078a366004612903565b611332565b60006001600160a01b0383166108005760405162461bcd60e51b815260206004820152602b60248201527f455243313135353a2062616c616e636520717565727920666f7220746865207a60448201526a65726f206164647265737360a81b60648201526084015b60405180910390fd5b506000908152602081815260408083206001600160a01b03949094168352929052205490565b60006001600160e01b0319821663152a902d60e11b148061084b575061084b826113b9565b92915050565b600080516020612dfc83398151915261086a81336113de565b61087382611442565b5050565b6060600780546108869061296c565b80601f01602080910402602001604051908101604052809291908181526020018280546108b29061296c565b80156108ff5780601f106108d4576101008083540402835291602001916108ff565b820191906000526020600020905b8154815290600101906020018083116108e257829003601f168201915b5050505050905090565b6000818152600d602052604090205460609060ff161561095c5761092c82610909565b61093583611455565b6040516020016109469291906129a1565b6040516020818303038152906040529050919050565b600980546109699061296c565b80601f01602080910402602001604051908101604052809291908181526020018280546109959061296c565b80156109e25780601f106109b7576101008083540402835291602001916109e2565b820191906000526020600020905b8154815290600101906020018083116109c557829003601f168201915b50505050509050919050565b60065460009081906201000081046001600160a01b03169061271090610a1e90600160b01b900460ff1686612a05565b610a29906064612a05565b610a339190612a3a565b915091509250929050565b6000610a4a81336113de565b6108738261155b565b600080516020612e3c833981519152610a6c81336113de565b60005b83811015610ab057610a9e8584600160405180604001604052806002815260200161060f60f31b8152506115f0565b80610aa881612a4e565b915050610a6f565b5050505050565b6001600160a01b038516331480610ad35750610ad38533610741565b610b3a5760405162461bcd60e51b815260206004820152603260248201527f455243313135353a207472616e736665722063616c6c6572206973206e6f74206044820152711bdddb995c881b9bdc88185c1c1c9bdd995960721b60648201526084016107f7565b610ab08585858585611700565b600082815260036020526040902060010154610b6381336113de565b610b6d83836118eb565b505050565b6001600160a01b0381163314610be25760405162461bcd60e51b815260206004820152602f60248201527f416363657373436f6e74726f6c3a2063616e206f6e6c792072656e6f756e636560448201526e103937b632b9903337b91039b2b63360891b60648201526084016107f7565b6108738282611971565b600080516020612e1c833981519152610c0581336113de565b610c0d6119d8565b50565b600080516020612e3c833981519152610c2981336113de565b610b6d8383600160405180604001604052806002815260200161060f60f31b8152506115f0565b600654610100900460ff16610c6b5760065460ff1615610c6f565b303b155b610cd25760405162461bcd60e51b815260206004820152602e60248201527f496e697469616c697a61626c653a20636f6e747261637420697320616c72656160448201526d191e481a5b9a5d1a585b1a5e995960921b60648201526084016107f7565b600654610100900460ff16158015610cf4576006805461ffff19166101011790555b8351610d079060079060208701906122a5565b508251610d1b9060089060208601906122a5565b50610d276000866118eb565b610d3f600080516020612dfc833981519152866118eb565b610d57600080516020612e1c833981519152866118eb565b610d6f600080516020612e3c833981519152866118eb565b600a8290558015610ab0576006805461ff00191690555050505050565b60608151835114610df15760405162461bcd60e51b815260206004820152602960248201527f455243313135353a206163636f756e747320616e6420696473206c656e677468604482015268040dad2e6dac2e8c6d60bb1b60648201526084016107f7565b6000835167ffffffffffffffff811115610e0d57610e0d6123b2565b604051908082528060200260200182016040528015610e36578160200160208202803683370190505b50905060005b8451811015610eae57610e81858281518110610e5a57610e5a612a69565b6020026020010151858381518110610e7457610e74612a69565b602002602001015161078f565b828281518110610e9357610e93612a69565b6020908102919091010152610ea781612a4e565b9050610e3c565b509392505050565b6000610ec281336113de565b60006001600160a01b03831647604051600081818185875af1925050503d8060008114610f0b576040519150601f19603f3d011682016040523d82523d6000602084013e610f10565b606091505b5050905080610b6d5760405162461bcd60e51b81526020600482015260146024820152732330b4b632b2103a379039b2b7321022ba3432b960611b60448201526064016107f7565b600080610f6581336113de565b60008311610fb55760405162461bcd60e51b815260206004820152601d60248201527f537570706c79206d7573742062652067726561746572207468616e203000000060448201526064016107f7565b600a839055600191505b50919050565b600080516020612e3c833981519152610fde81336113de565b81600b54610fec9190612a7f565b600a541161100c5760405162461bcd60e51b81526004016107f790612a97565b60005b828110156110805761104084600b54600160405180604001604052806002815260200161060f60f31b8152506115f0565b600b80546000908152600d60205260409020805460ff19166001908117909155905461106b91611a6b565b600b558061107881612a4e565b91505061100f565b50505050565b60008061109381336113de565b600083116110e35760405162461bcd60e51b815260206004820152601c60248201527f5072696365206d7573742062652067726561746572207468616e20300000000060448201526064016107f7565b5050600c55600190565b6000600080516020612dfc83398151915261110881336113de565b825161111b9060099060208601906122a5565b5060019392505050565b600080516020612e1c83398151915261113e81336113de565b610c0d611a7e565b60009182526003602090815260408084206001600160a01b0393909316845291905290205460ff1690565b6060600880546108869061296c565b610873338383611af9565b6000600c543410156111df5760405162461bcd60e51b815260206004820152601f60248201527f496e73756666696369656e742066756e647320666f722070757263686173650060448201526064016107f7565b600b546111ed906001612a7f565b600a541161120d5760405162461bcd60e51b81526004016107f790612a97565b61123633600b54600160405180604001604052806002815260200161060f60f31b8152506115f0565b600b80546000908152600d60205260409020805460ff19166001908117909155905461126191611a6b565b600b5550600190565b600080516020612e3c83398151915261128381336113de565b600b54611291906001612a7f565b600a54116112b15760405162461bcd60e51b81526004016107f790612a97565b6112da82600b54600160405180604001604052806002815260200161060f60f31b8152506115f0565b600b80546000908152600d60205260409020805460ff19166001908117909155905461130591611a6b565b600b555050565b60008281526003602052604090206001015461132881336113de565b610b6d8383611971565b6001600160a01b03851633148061134e575061134e8533610741565b6113ac5760405162461bcd60e51b815260206004820152602960248201527f455243313135353a2063616c6c6572206973206e6f74206f776e6572206e6f7260448201526808185c1c1c9bdd995960ba1b60648201526084016107f7565b610ab08585858585611bda565b60006001600160e01b03198216637965db0b60e01b148061084b575061084b82611cf7565b6113e88282611146565b61087357611400816001600160a01b03166014611d47565b61140b836020611d47565b60405160200161141c929190612ad9565b60408051601f198184030181529082905262461bcd60e51b82526107f7916004016124f6565b80516108739060029060208401906122a5565b6060816114795750506040805180820190915260018152600360fc1b602082015290565b8160005b81156114a3578061148d81612a4e565b915061149c9050600a83612a3a565b915061147d565b60008167ffffffffffffffff8111156114be576114be6123b2565b6040519080825280601f01601f1916602001820160405280156114e8576020820181803683370190505b5090505b8415611553576114fd600183612b4e565b915061150a600a86612b65565b611515906030612a7f565b60f81b81838151811061152a5761152a612a69565b60200101906001600160f81b031916908160001a90535061154c600a86612a3a565b94506114ec565b949350505050565b6001600160a01b0381166115c65760405162461bcd60e51b815260206004820152602c60248201527f526f79616c746965733a206e657720726563697069656e74206973207468652060448201526b7a65726f206164647265737360a01b60648201526084016107f7565b600680546001600160a01b03909216620100000262010000600160b01b0319909216919091179055565b6001600160a01b0384166116505760405162461bcd60e51b815260206004820152602160248201527f455243313135353a206d696e7420746f20746865207a65726f206164647265736044820152607360f81b60648201526084016107f7565b336116708160008761166188611ee3565b61166a88611ee3565b87611f2e565b6000848152602081815260408083206001600160a01b0389168452909152812080548592906116a0908490612a7f565b909155505060408051858152602081018590526001600160a01b0380881692600092918516917fc3d58168c5ae7397731d063d5bbf3d657854427343f4c083240f7aacaa2d0f62910160405180910390a4610ab081600087878787611f82565b81518351146117625760405162461bcd60e51b815260206004820152602860248201527f455243313135353a2069647320616e6420616d6f756e7473206c656e677468206044820152670dad2e6dac2e8c6d60c31b60648201526084016107f7565b6001600160a01b0384166117885760405162461bcd60e51b81526004016107f790612b79565b33611797818787878787611f2e565b60005b845181101561187d5760008582815181106117b7576117b7612a69565b6020026020010151905060008583815181106117d5576117d5612a69565b602090810291909101810151600084815280835260408082206001600160a01b038e1683529093529190912054909150818110156118255760405162461bcd60e51b81526004016107f790612bbe565b6000838152602081815260408083206001600160a01b038e8116855292528083208585039055908b16825281208054849290611862908490612a7f565b925050819055505050508061187690612a4e565b905061179a565b50846001600160a01b0316866001600160a01b0316826001600160a01b03167f4a39dc06d4c0dbc64b70af90fd698a233a518aa5d07e595d983b8c0526c8f7fb87876040516118cd929190612c08565b60405180910390a46118e38187878787876120de565b505050505050565b6118f58282611146565b6108735760008281526003602090815260408083206001600160a01b03851684529091529020805460ff1916600117905561192d3390565b6001600160a01b0316816001600160a01b0316837f2f8788117e7eff1d82e926ec794901d17c78024a50270940304540a733656f0d60405160405180910390a45050565b61197b8282611146565b156108735760008281526003602090815260408083206001600160a01b0385168085529252808320805460ff1916905551339285917ff6391f5c32d9c69d2a47ea670b442974b53935d1edc7fd64eb21e047a839171b9190a45050565b60045460ff16611a215760405162461bcd60e51b815260206004820152601460248201527314185d5cd8589b194e881b9bdd081c185d5cd95960621b60448201526064016107f7565b6004805460ff191690557f5db9ee0a495bf2e6ff9c91a7834c1ba4fdd244a5e8aa4e537bd38aeae4b073aa335b6040516001600160a01b03909116815260200160405180910390a1565b6000611a778284612a7f565b9392505050565b60045460ff1615611ac45760405162461bcd60e51b815260206004820152601060248201526f14185d5cd8589b194e881c185d5cd95960821b60448201526064016107f7565b6004805460ff191660011790557f62e78cea01bee320cd4e420270b5ea74000d11b0c9f74754ebdbfc544b05a258611a4e3390565b816001600160a01b0316836001600160a01b03161415611b6d5760405162461bcd60e51b815260206004820152602960248201527f455243313135353a2073657474696e6720617070726f76616c20737461747573604482015268103337b91039b2b63360b91b60648201526084016107f7565b6001600160a01b03838116600081815260016020908152604080832094871680845294825291829020805460ff191686151590811790915591519182527f17307eab39ab6107e8899845ad3d59bd9653f200f220920489ca2b5937696c31910160405180910390a3505050565b6001600160a01b038416611c005760405162461bcd60e51b81526004016107f790612b79565b33611c1081878761166188611ee3565b6000848152602081815260408083206001600160a01b038a16845290915290205483811015611c515760405162461bcd60e51b81526004016107f790612bbe565b6000858152602081815260408083206001600160a01b038b8116855292528083208785039055908816825281208054869290611c8e908490612a7f565b909155505060408051868152602081018690526001600160a01b03808916928a821692918616917fc3d58168c5ae7397731d063d5bbf3d657854427343f4c083240f7aacaa2d0f62910160405180910390a4611cee828888888888611f82565b50505050505050565b60006001600160e01b03198216636cdb3d1360e11b1480611d2857506001600160e01b031982166303a24d0760e21b145b8061084b57506301ffc9a760e01b6001600160e01b031983161461084b565b60606000611d56836002612a05565b611d61906002612a7f565b67ffffffffffffffff811115611d7957611d796123b2565b6040519080825280601f01601f191660200182016040528015611da3576020820181803683370190505b509050600360fc1b81600081518110611dbe57611dbe612a69565b60200101906001600160f81b031916908160001a905350600f60fb1b81600181518110611ded57611ded612a69565b60200101906001600160f81b031916908160001a9053506000611e11846002612a05565b611e1c906001612a7f565b90505b6001811115611e94576f181899199a1a9b1b9c1cb0b131b232b360811b85600f1660108110611e5057611e50612a69565b1a60f81b828281518110611e6657611e66612a69565b60200101906001600160f81b031916908160001a90535060049490941c93611e8d81612c36565b9050611e1f565b508315611a775760405162461bcd60e51b815260206004820181905260248201527f537472696e67733a20686578206c656e67746820696e73756666696369656e7460448201526064016107f7565b60408051600180825281830190925260609160009190602080830190803683370190505090508281600081518110611f1d57611f1d612a69565b602090810291909101015292915050565b60045460ff1615611f745760405162461bcd60e51b815260206004820152601060248201526f14185d5cd8589b194e881c185d5cd95960821b60448201526064016107f7565b6118e3868686868686612199565b6001600160a01b0384163b156118e35760405163f23a6e6160e01b81526001600160a01b0385169063f23a6e6190611fc69089908990889088908890600401612c4d565b6020604051808303816000875af1925050508015612001575060408051601f3d908101601f19168201909252611ffe91810190612c92565b60015b6120ae5761200d612caf565b806308c379a014156120475750612022612ccb565b8061202d5750612049565b8060405162461bcd60e51b81526004016107f791906124f6565b505b60405162461bcd60e51b815260206004820152603460248201527f455243313135353a207472616e7366657220746f206e6f6e20455243313135356044820152732932b1b2b4bb32b91034b6b83632b6b2b73a32b960611b60648201526084016107f7565b6001600160e01b0319811663f23a6e6160e01b14611cee5760405162461bcd60e51b81526004016107f790612d55565b6001600160a01b0384163b156118e35760405163bc197c8160e01b81526001600160a01b0385169063bc197c81906121229089908990889088908890600401612d9d565b6020604051808303816000875af192505050801561215d575060408051601f3d908101601f1916820190925261215a91810190612c92565b60015b6121695761200d612caf565b6001600160e01b0319811663bc197c8160e01b14611cee5760405162461bcd60e51b81526004016107f790612d55565b6001600160a01b0385166122205760005b835181101561221e578281815181106121c5576121c5612a69565b6020026020010151600560008684815181106121e3576121e3612a69565b6020026020010151815260200190815260200160002060008282546122089190612a7f565b90915550612217905081612a4e565b90506121aa565b505b6001600160a01b0384166118e35760005b8351811015611cee5782818151811061224c5761224c612a69565b60200260200101516005600086848151811061226a5761226a612a69565b60200260200101518152602001908152602001600020600082825461228f9190612b4e565b9091555061229e905081612a4e565b9050612231565b8280546122b19061296c565b90600052602060002090601f0160209004810192826122d35760008555612319565b82601f106122ec57805160ff1916838001178555612319565b82800160010185558215612319579182015b828111156123195782518255916020019190600101906122fe565b50612325929150612329565b5090565b5b80821115612325576000815560010161232a565b6001600160a01b0381168114610c0d57600080fd5b6000806040838503121561236657600080fd5b82356123718161233e565b946020939093013593505050565b6001600160e01b031981168114610c0d57600080fd5b6000602082840312156123a757600080fd5b8135611a778161237f565b634e487b7160e01b600052604160045260246000fd5b601f8201601f1916810167ffffffffffffffff811182821017156123ee576123ee6123b2565b6040525050565b600082601f83011261240657600080fd5b813567ffffffffffffffff811115612420576124206123b2565b604051612437601f8301601f1916602001826123c8565b81815284602083860101111561244c57600080fd5b816020850160208301376000918101602001919091529392505050565b60006020828403121561247b57600080fd5b813567ffffffffffffffff81111561249257600080fd5b611553848285016123f5565b60005b838110156124b95781810151838201526020016124a1565b838111156110805750506000910152565b600081518084526124e281602086016020860161249e565b601f01601f19169290920160200192915050565b602081526000611a7760208301846124ca565b60006020828403121561251b57600080fd5b5035919050565b6000806040838503121561253557600080fd5b50508035926020909101359150565b60006020828403121561255657600080fd5b8135611a778161233e565b60008060006060848603121561257657600080fd5b83356125818161233e565b95602085013595506040909401359392505050565b600067ffffffffffffffff8211156125b0576125b06123b2565b5060051b60200190565b600082601f8301126125cb57600080fd5b813560206125d882612596565b6040516125e582826123c8565b83815260059390931b850182019282810191508684111561260557600080fd5b8286015b848110156126205780358352918301918301612609565b509695505050505050565b600080600080600060a0868803121561264357600080fd5b853561264e8161233e565b9450602086013561265e8161233e565b9350604086013567ffffffffffffffff8082111561267b57600080fd5b61268789838a016125ba565b9450606088013591508082111561269d57600080fd5b6126a989838a016125ba565b935060808801359150808211156126bf57600080fd5b506126cc888289016123f5565b9150509295509295909350565b600080604083850312156126ec57600080fd5b8235915060208301356126fe8161233e565b809150509250929050565b6000806000806080858703121561271f57600080fd5b843561272a8161233e565b9350602085013567ffffffffffffffff8082111561274757600080fd5b612753888389016123f5565b9450604087013591508082111561276957600080fd5b50612776878288016123f5565b949793965093946060013593505050565b6000806040838503121561279a57600080fd5b823567ffffffffffffffff808211156127b257600080fd5b818501915085601f8301126127c657600080fd5b813560206127d382612596565b6040516127e082826123c8565b83815260059390931b850182019282810191508984111561280057600080fd5b948201945b838610156128275785356128188161233e565b82529482019490820190612805565b9650508601359250508082111561283d57600080fd5b5061284a858286016125ba565b9150509250929050565b600081518084526020808501945080840160005b8381101561288457815187529582019590820190600101612868565b509495945050505050565b602081526000611a776020830184612854565b600080604083850312156128b557600080fd5b82356128c08161233e565b9150602083013580151581146126fe57600080fd5b600080604083850312156128e857600080fd5b82356128f38161233e565b915060208301356126fe8161233e565b600080600080600060a0868803121561291b57600080fd5b85356129268161233e565b945060208601356129368161233e565b93506040860135925060608601359150608086013567ffffffffffffffff81111561296057600080fd5b6126cc888289016123f5565b600181811c9082168061298057607f821691505b60208210811415610fbf57634e487b7160e01b600052602260045260246000fd5b600083516129b381846020880161249e565b602f60f81b90830190815283516129d181600184016020880161249e565b64173539b7b760d91b60019290910191820152600601949350505050565b634e487b7160e01b600052601160045260246000fd5b6000816000190483118215151615612a1f57612a1f6129ef565b500290565b634e487b7160e01b600052601260045260246000fd5b600082612a4957612a49612a24565b500490565b6000600019821415612a6257612a626129ef565b5060010190565b634e487b7160e01b600052603260045260246000fd5b60008219821115612a9257612a926129ef565b500190565b60208082526022908201527f546869732076616c75652065786365656473206d6178696d756d20737570706c604082015261792160f01b606082015260800190565b7f416363657373436f6e74726f6c3a206163636f756e7420000000000000000000815260008351612b1181601785016020880161249e565b7001034b99036b4b9b9b4b733903937b6329607d1b6017918401918201528351612b4281602884016020880161249e565b01602801949350505050565b600082821015612b6057612b606129ef565b500390565b600082612b7457612b74612a24565b500690565b60208082526025908201527f455243313135353a207472616e7366657220746f20746865207a65726f206164604082015264647265737360d81b606082015260800190565b6020808252602a908201527f455243313135353a20696e73756666696369656e742062616c616e636520666f60408201526939103a3930b739b332b960b11b606082015260800190565b604081526000612c1b6040830185612854565b8281036020840152612c2d8185612854565b95945050505050565b600081612c4557612c456129ef565b506000190190565b6001600160a01b03868116825285166020820152604081018490526060810183905260a060808201819052600090612c87908301846124ca565b979650505050505050565b600060208284031215612ca457600080fd5b8151611a778161237f565b600060033d1115612cc85760046000803e5060005160e01c5b90565b600060443d1015612cd95790565b6040516003193d81016004833e81513d67ffffffffffffffff8160248401118184111715612d0957505050505090565b8285019150815181811115612d215750505050505090565b843d8701016020828501011115612d3b5750505050505090565b612d4a602082860101876123c8565b509095945050505050565b60208082526028908201527f455243313135353a204552433131353552656365697665722072656a656374656040820152676420746f6b656e7360c01b606082015260800190565b6001600160a01b0386811682528516602082015260a060408201819052600090612dc990830186612854565b8281036060840152612ddb8186612854565b90508281036080840152612def81856124ca565b9897505050505050505056fe7804d923f43a17d325d77e781528e0793b2edd9890ab45fc64efd7b4b427744c65d7a28e3265b37a6474929f336521b332c1681b933f6cb9f3376673440d862a9f2df0fed2c77648de5860a4cc508cd0818c85b8b8a1ab4ceeef8d981c8956a6a264697066735822122000060ff36f52a66541eab94ad92e17391912c4d1d1019b3ecfedc847ac1d1b4764736f6c634300080a0033",
  "linkReferences": {},
  "deployedLinkReferences": {}
}