{
  "_format": "hh-sol-artifact-1",
  "contractName": "StandardERC20",
  "sourceName": "contracts/tokens/StandardERC20.sol",
  "abi": [
    {
      "anonymous": false,
      "inputs": [
        {
          "indexed": true,
          "internalType": "address",
          "name": "owner",
          "type": "address"
        },
        {
          "indexed": true,
          "internalType": "address",
          "name": "spender",
          "type": "address"
        },
        {
          "indexed": false,
          "internalType": "uint256",
          "name": "value",
          "type": "uint256"
        }
      ],
      "name": "Approval",
      "type": "event"
    },
    {
      "anonymous": false,
      "inputs": [
        {
          "indexed": false,
          "internalType": "address",
          "name": "account",
          "type": "address"
        }
      ],
      "name": "Paused",
      "type": "event"
    },
    {
      "anonymous": false,
      "inputs": [
        {
          "indexed": true,
          "internalType": "bytes32",
          "name": "role",
          "type": "bytes32"
        },
        {
          "indexed": true,
          "internalType": "bytes32",
          "name": "previousAdminRole",
          "type": "bytes32"
        },
        {
          "indexed": true,
          "internalType": "bytes32",
          "name": "newAdminRole",
          "type": "bytes32"
        }
      ],
      "name": "RoleAdminChanged",
      "type": "event"
    },
    {
      "anonymous": false,
      "inputs": [
        {
          "indexed": true,
          "internalType": "bytes32",
          "name": "role",
          "type": "bytes32"
        },
        {
          "indexed": true,
          "internalType": "address",
          "name": "account",
          "type": "address"
        },
        {
          "indexed": true,
          "internalType": "address",
          "name": "sender",
          "type": "address"
        }
      ],
      "name": "RoleGranted",
      "type": "event"
    },
    {
      "anonymous": false,
      "inputs": [
        {
          "indexed": true,
          "internalType": "bytes32",
          "name": "role",
          "type": "bytes32"
        },
        {
          "indexed": true,
          "internalType": "address",
          "name": "account",
          "type": "address"
        },
        {
          "indexed": true,
          "internalType": "address",
          "name": "sender",
          "type": "address"
        }
      ],
      "name": "RoleRevoked",
      "type": "event"
    },
    {
      "anonymous": false,
      "inputs": [
        {
          "indexed": true,
          "internalType": "address",
          "name": "from",
          "type": "address"
        },
        {
          "indexed": true,
          "internalType": "address",
          "name": "to",
          "type": "address"
        },
        {
          "indexed": false,
          "internalType": "uint256",
          "name": "value",
          "type": "uint256"
        }
      ],
      "name": "Transfer",
      "type": "event"
    },
    {
      "anonymous": false,
      "inputs": [
        {
          "indexed": false,
          "internalType": "address",
          "name": "account",
          "type": "address"
        }
      ],
      "name": "Unpaused",
      "type": "event"
    },
    {
      "stateMutability": "payable",
      "type": "fallback"
    },
    {
      "inputs": [],
      "name": "DEFAULT_ADMIN_ROLE",
      "outputs": [
        {
          "internalType": "bytes32",
          "name": "",
          "type": "bytes32"
        }
      ],
      "stateMutability": "view",
      "type": "function"
    },
    {
      "inputs": [],
      "name": "MINTER_ROLE",
      "outputs": [
        {
          "internalType": "bytes32",
          "name": "",
          "type": "bytes32"
        }
      ],
      "stateMutability": "view",
      "type": "function"
    },
    {
      "inputs": [],
      "name": "PAUSER_ROLE",
      "outputs": [
        {
          "internalType": "bytes32",
          "name": "",
          "type": "bytes32"
        }
      ],
      "stateMutability": "view",
      "type": "function"
    },
    {
      "inputs": [
        {
          "internalType": "address",
          "name": "owner",
          "type": "address"
        },
        {
          "internalType": "address",
          "name": "spender",
          "type": "address"
        }
      ],
      "name": "allowance",
      "outputs": [
        {
          "internalType": "uint256",
          "name": "",
          "type": "uint256"
        }
      ],
      "stateMutability": "view",
      "type": "function"
    },
    {
      "inputs": [
        {
          "internalType": "address",
          "name": "spender",
          "type": "address"
        },
        {
          "internalType": "uint256",
          "name": "amount",
          "type": "uint256"
        }
      ],
      "name": "approve",
      "outputs": [
        {
          "internalType": "bool",
          "name": "",
          "type": "bool"
        }
      ],
      "stateMutability": "nonpayable",
      "type": "function"
    },
    {
      "inputs": [
        {
          "internalType": "address",
          "name": "account",
          "type": "address"
        }
      ],
      "name": "balanceOf",
      "outputs": [
        {
          "internalType": "uint256",
          "name": "",
          "type": "uint256"
        }
      ],
      "stateMutability": "view",
      "type": "function"
    },
    {
      "inputs": [
        {
          "internalType": "address",
          "name": "account",
          "type": "address"
        },
        {
          "internalType": "uint256",
          "name": "amount",
          "type": "uint256"
        }
      ],
      "name": "burn",
      "outputs": [],
      "stateMutability": "nonpayable",
      "type": "function"
    },
    {
      "inputs": [],
      "name": "decimals",
      "outputs": [
        {
          "internalType": "uint8",
          "name": "",
          "type": "uint8"
        }
      ],
      "stateMutability": "view",
      "type": "function"
    },
    {
      "inputs": [
        {
          "internalType": "address",
          "name": "spender",
          "type": "address"
        },
        {
          "internalType": "uint256",
          "name": "subtractedValue",
          "type": "uint256"
        }
      ],
      "name": "decreaseAllowance",
      "outputs": [
        {
          "internalType": "bool",
          "name": "",
          "type": "bool"
        }
      ],
      "stateMutability": "nonpayable",
      "type": "function"
    },
    {
      "inputs": [],
      "name": "generated",
      "outputs": [
        {
          "internalType": "bool",
          "name": "",
          "type": "bool"
        }
      ],
      "stateMutability": "view",
      "type": "function"
    },
    {
      "inputs": [],
      "name": "getBalance",
      "outputs": [
        {
          "internalType": "uint256",
          "name": "",
          "type": "uint256"
        }
      ],
      "stateMutability": "view",
      "type": "function"
    },
    {
      "inputs": [
        {
          "internalType": "bytes32",
          "name": "role",
          "type": "bytes32"
        }
      ],
      "name": "getRoleAdmin",
      "outputs": [
        {
          "internalType": "bytes32",
          "name": "",
          "type": "bytes32"
        }
      ],
      "stateMutability": "view",
      "type": "function"
    },
    {
      "inputs": [
        {
          "internalType": "bytes32",
          "name": "role",
          "type": "bytes32"
        },
        {
          "internalType": "address",
          "name": "account",
          "type": "address"
        }
      ],
      "name": "grantRole",
      "outputs": [],
      "stateMutability": "nonpayable",
      "type": "function"
    },
    {
      "inputs": [
        {
          "internalType": "bytes32",
          "name": "role",
          "type": "bytes32"
        },
        {
          "internalType": "address",
          "name": "account",
          "type": "address"
        }
      ],
      "name": "hasRole",
      "outputs": [
        {
          "internalType": "bool",
          "name": "",
          "type": "bool"
        }
      ],
      "stateMutability": "view",
      "type": "function"
    },
    {
      "inputs": [
        {
          "internalType": "address",
          "name": "spender",
          "type": "address"
        },
        {
          "internalType": "uint256",
          "name": "addedValue",
          "type": "uint256"
        }
      ],
      "name": "increaseAllowance",
      "outputs": [
        {
          "internalType": "bool",
          "name": "",
          "type": "bool"
        }
      ],
      "stateMutability": "nonpayable",
      "type": "function"
    },
    {
      "inputs": [
        {
          "internalType": "address",
          "name": "owner_",
          "type": "address"
        },
        {
          "internalType": "string",
          "name": "name_",
          "type": "string"
        },
        {
          "internalType": "string",
          "name": "symbol_",
          "type": "string"
        },
        {
          "internalType": "uint8",
          "name": "decimals_",
          "type": "uint8"
        },
        {
          "internalType": "uint256",
          "name": "totalSupply_",
          "type": "uint256"
        }
      ],
      "name": "initialize",
      "outputs": [],
      "stateMutability": "nonpayable",
      "type": "function"
    },
    {
      "inputs": [
        {
          "internalType": "address",
          "name": "to",
          "type": "address"
        },
        {
          "internalType": "uint256",
          "name": "amount",
          "type": "uint256"
        }
      ],
      "name": "mint",
      "outputs": [],
      "stateMutability": "nonpayable",
      "type": "function"
    },
    {
      "inputs": [],
      "name": "name",
      "outputs": [
        {
          "internalType": "string",
          "name": "",
          "type": "string"
        }
      ],
      "stateMutability": "view",
      "type": "function"
    },
    {
      "inputs": [],
      "name": "pause",
      "outputs": [],
      "stateMutability": "nonpayable",
      "type": "function"
    },
    {
      "inputs": [],
      "name": "paused",
      "outputs": [
        {
          "internalType": "bool",
          "name": "",
          "type": "bool"
        }
      ],
      "stateMutability": "view",
      "type": "function"
    },
    {
      "inputs": [
        {
          "internalType": "bytes32",
          "name": "role",
          "type": "bytes32"
        },
        {
          "internalType": "address",
          "name": "account",
          "type": "address"
        }
      ],
      "name": "renounceRole",
      "outputs": [],
      "stateMutability": "nonpayable",
      "type": "function"
    },
    {
      "inputs": [
        {
          "internalType": "bytes32",
          "name": "role",
          "type": "bytes32"
        },
        {
          "internalType": "address",
          "name": "account",
          "type": "address"
        }
      ],
      "name": "revokeRole",
      "outputs": [],
      "stateMutability": "nonpayable",
      "type": "function"
    },
    {
      "inputs": [
        {
          "internalType": "bytes4",
          "name": "interfaceId",
          "type": "bytes4"
        }
      ],
      "name": "supportsInterface",
      "outputs": [
        {
          "internalType": "bool",
          "name": "",
          "type": "bool"
        }
      ],
      "stateMutability": "view",
      "type": "function"
    },
    {
      "inputs": [],
      "name": "symbol",
      "outputs": [
        {
          "internalType": "string",
          "name": "",
          "type": "string"
        }
      ],
      "stateMutability": "view",
      "type": "function"
    },
    {
      "inputs": [],
      "name": "totalSupply",
      "outputs": [
        {
          "internalType": "uint256",
          "name": "",
          "type": "uint256"
        }
      ],
      "stateMutability": "view",
      "type": "function"
    },
    {
      "inputs": [
        {
          "internalType": "address",
          "name": "recipient",
          "type": "address"
        },
        {
          "internalType": "uint256",
          "name": "amount",
          "type": "uint256"
        }
      ],
      "name": "transfer",
      "outputs": [
        {
          "internalType": "bool",
          "name": "",
          "type": "bool"
        }
      ],
      "stateMutability": "nonpayable",
      "type": "function"
    },
    {
      "inputs": [
        {
          "internalType": "address",
          "name": "sender",
          "type": "address"
        },
        {
          "internalType": "address",
          "name": "recipient",
          "type": "address"
        },
        {
          "internalType": "uint256",
          "name": "amount",
          "type": "uint256"
        }
      ],
      "name": "transferFrom",
      "outputs": [
        {
          "internalType": "bool",
          "name": "",
          "type": "bool"
        }
      ],
      "stateMutability": "nonpayable",
      "type": "function"
    },
    {
      "inputs": [],
      "name": "unpause",
      "outputs": [],
      "stateMutability": "nonpayable",
      "type": "function"
    },
    {
      "inputs": [
        {
          "internalType": "address payable",
          "name": "_to",
          "type": "address"
        }
      ],
      "name": "withdraw",
      "outputs": [],
      "stateMutability": "nonpayable",
      "type": "function"
    },
    {
      "stateMutability": "payable",
      "type": "receive"
    }
  ],
  "bytecode": "0x60806040526007805461ff00191661010017905534801561001f57600080fd5b506001805460ff19169055611b44806100396000396000f3fe6080604052600436106101ae5760003560e01c80635c975abb116100eb578063a217fddf1161008f578063d547741f11610061578063d547741f146104d5578063d72bdc53146104f5578063dd62ed3e14610515578063e63ab1e91461055b57005b8063a217fddf1461045e578063a457c2d714610473578063a9059cbb14610493578063d5391393146104b357005b80638456cb59116100c85780638456cb59146103f457806391d148541461040957806395d89b41146104295780639dc29fac1461043e57005b80635c975abb146103875780635cd8ef6a1461039f57806370a08231146103be57005b80632f2ff15d11610152578063395093511161012f57806339509351146103125780633f4ba83a1461033257806340c10f191461034757806351cff8d91461036757005b80632f2ff15d146102b0578063313ce567146102d057806336568abe146102f257005b806312065fe01161018b57806312065fe01461022e57806318160ddd1461024b57806323b872dd14610260578063248a9ca31461028057005b806301ffc9a7146101b757806306fdde03146101ec578063095ea7b31461020e57005b366101b557005b005b3480156101c357600080fd5b506101d76101d23660046115f1565b61057d565b60405190151581526020015b60405180910390f35b3480156101f857600080fd5b506102016105b4565b6040516101e3919061164b565b34801561021a57600080fd5b506101d7610229366004611693565b610646565b34801561023a57600080fd5b50475b6040519081526020016101e3565b34801561025757600080fd5b5060045461023d565b34801561026c57600080fd5b506101d761027b3660046116bf565b61068e565b34801561028c57600080fd5b5061023d61029b366004611700565b60009081526020819052604090206001015490565b3480156102bc57600080fd5b506101b56102cb366004611719565b610720565b3480156102dc57600080fd5b5060075460405160ff90911681526020016101e3565b3480156102fe57600080fd5b506101b561030d366004611719565b61074b565b34801561031e57600080fd5b506101d761032d366004611693565b6107c9565b34801561033e57600080fd5b506101b5610829565b34801561035357600080fd5b506101b5610362366004611693565b61084d565b34801561037357600080fd5b506101b5610382366004611749565b610870565b34801561039357600080fd5b5060015460ff166101d7565b3480156103ab57600080fd5b506007546101d790610100900460ff1681565b3480156103ca57600080fd5b5061023d6103d9366004611749565b6001600160a01b031660009081526002602052604090205490565b34801561040057600080fd5b506101b5610912565b34801561041557600080fd5b506101d7610424366004611719565b610933565b34801561043557600080fd5b5061020161095c565b34801561044a57600080fd5b506101b5610459366004611693565b61096b565b34801561046a57600080fd5b5061023d600081565b34801561047f57600080fd5b506101d761048e366004611693565b610981565b34801561049f57600080fd5b506101d76104ae366004611693565b6109f9565b3480156104bf57600080fd5b5061023d600080516020611aca83398151915281565b3480156104e157600080fd5b506101b56104f0366004611719565b610a2f565b34801561050157600080fd5b506101b5610510366004611809565b610a55565b34801561052157600080fd5b5061023d6105303660046118a0565b6001600160a01b03918216600090815260036020908152604080832093909416825291909152205490565b34801561056757600080fd5b5061023d600080516020611aaa83398151915281565b60006001600160e01b03198216637965db0b60e01b14806105ae57506301ffc9a760e01b6001600160e01b03198316145b92915050565b6060600580546105c3906118ce565b80601f01602080910402602001604051908101604052809291908181526020018280546105ef906118ce565b801561063c5780601f106106115761010080835404028352916020019161063c565b820191906000526020600020905b81548152906001019060200180831161061f57829003601f168201915b5050505050905090565b600061065460015460ff1690565b1561067a5760405162461bcd60e51b815260040161067190611909565b60405180910390fd5b610685338484610bd4565b50600192915050565b600061069c60015460ff1690565b156106b95760405162461bcd60e51b815260040161067190611909565b6106c4848484610d1c565b610716843361071185604051806060016040528060288152602001611a82602891396001600160a01b038a1660009081526003602090815260408083203384529091529020549190610ed0565b610bd4565b5060019392505050565b60008281526020819052604090206001015461073c8133610efc565b6107468383610f60565b505050565b6001600160a01b03811633146107bb5760405162461bcd60e51b815260206004820152602f60248201527f416363657373436f6e74726f6c3a2063616e206f6e6c792072656e6f756e636560448201526e103937b632b9903337b91039b2b63360891b6064820152608401610671565b6107c58282610fe4565b5050565b60006107d760015460ff1690565b156107f45760405162461bcd60e51b815260040161067190611909565b3360008181526003602090815260408083206001600160a01b0388168452909152902054610685919085906107119086611049565b600080516020611aaa8339815191526108428133610efc565b61084a61105c565b50565b600080516020611aca8339815191526108668133610efc565b61074683836110ef565b600061087c8133610efc565b60006001600160a01b03831647604051600081818185875af1925050503d80600081146108c5576040519150601f19603f3d011682016040523d82523d6000602084013e6108ca565b606091505b50509050806107465760405162461bcd60e51b81526020600482015260146024820152732330b4b632b2103a379039b2b7321022ba3432b960611b6044820152606401610671565b600080516020611aaa83398151915261092b8133610efc565b61084a611204565b6000918252602082815260408084206001600160a01b0393909316845291905290205460ff1690565b6060600680546105c3906118ce565b60006109778133610efc565b610746838361125a565b600061098f60015460ff1690565b156109ac5760405162461bcd60e51b815260040161067190611909565b610685338461071185604051806060016040528060258152602001611aea602591393360009081526003602090815260408083206001600160a01b038d1684529091529020549190610ed0565b6000610a0760015460ff1690565b15610a245760405162461bcd60e51b815260040161067190611909565b610685338484610d1c565b600082815260208190526040902060010154610a4b8133610efc565b6107468383610fe4565b60015462010000900460ff16610a7657600154610100900460ff1615610a7a565b303b155b610add5760405162461bcd60e51b815260206004820152602e60248201527f496e697469616c697a61626c653a20636f6e747261637420697320616c72656160448201526d191e481a5b9a5d1a585b1a5e995960921b6064820152608401610671565b60015462010000900460ff16158015610b02576001805462ffff001916620101001790555b8451610b15906005906020880190611558565b508351610b29906006906020870190611558565b506007805460ff191660ff8516179055610b4386836110ef565b610b4e600033610f60565b610b66600080516020611aaa83398151915233610f60565b610b7e600080516020611aca83398151915233610f60565b610b89600087610f60565b610ba1600080516020611aaa83398151915287610f60565b610bb9600080516020611aca83398151915287610f60565b8015610bcc576001805462ff0000191690555b505050505050565b60015460ff1615610bf75760405162461bcd60e51b815260040161067190611909565b6001600160a01b038316610c595760405162461bcd60e51b8152602060048201526024808201527f45524332303a20617070726f76652066726f6d20746865207a65726f206164646044820152637265737360e01b6064820152608401610671565b6001600160a01b038216610cba5760405162461bcd60e51b815260206004820152602260248201527f45524332303a20617070726f766520746f20746865207a65726f206164647265604482015261737360f01b6064820152608401610671565b6001600160a01b0383811660008181526003602090815260408083209487168084529482529182902085905590518481527f8c5be1e5ebec7d5bd14f71427d1e84f3dd0314c0f7b2291e5b200ac8c7c3b92591015b60405180910390a3505050565b60015460ff1615610d3f5760405162461bcd60e51b815260040161067190611909565b6001600160a01b038316610da35760405162461bcd60e51b815260206004820152602560248201527f45524332303a207472616e736665722066726f6d20746865207a65726f206164604482015264647265737360d81b6064820152608401610671565b6001600160a01b038216610e055760405162461bcd60e51b815260206004820152602360248201527f45524332303a207472616e7366657220746f20746865207a65726f206164647260448201526265737360e81b6064820152608401610671565b610e1083838361138d565b610e4d81604051806060016040528060268152602001611a5c602691396001600160a01b0386166000908152600260205260409020549190610ed0565b6001600160a01b038085166000908152600260205260408082209390935590841681522054610e7c9082611049565b6001600160a01b0380841660008181526002602052604090819020939093559151908516907fddf252ad1be2c89b69c2b068fc378daa952ba7f163c4a11628f55a4df523b3ef90610d0f9085815260200190565b60008184841115610ef45760405162461bcd60e51b8152600401610671919061164b565b505050900390565b610f068282610933565b6107c557610f1e816001600160a01b031660146113b0565b610f298360206113b0565b604051602001610f3a929190611933565b60408051601f198184030181529082905262461bcd60e51b82526106719160040161164b565b610f6a8282610933565b6107c5576000828152602081815260408083206001600160a01b03851684529091529020805460ff19166001179055610fa03390565b6001600160a01b0316816001600160a01b0316837f2f8788117e7eff1d82e926ec794901d17c78024a50270940304540a733656f0d60405160405180910390a45050565b610fee8282610933565b156107c5576000828152602081815260408083206001600160a01b0385168085529252808320805460ff1916905551339285917ff6391f5c32d9c69d2a47ea670b442974b53935d1edc7fd64eb21e047a839171b9190a45050565b600061105582846119be565b9392505050565b60015460ff166110a55760405162461bcd60e51b815260206004820152601460248201527314185d5cd8589b194e881b9bdd081c185d5cd95960621b6044820152606401610671565b6001805460ff191690557f5db9ee0a495bf2e6ff9c91a7834c1ba4fdd244a5e8aa4e537bd38aeae4b073aa335b6040516001600160a01b03909116815260200160405180910390a1565b60015460ff16156111125760405162461bcd60e51b815260040161067190611909565b6001600160a01b0382166111685760405162461bcd60e51b815260206004820152601f60248201527f45524332303a206d696e7420746f20746865207a65726f2061646472657373006044820152606401610671565b6111746000838361138d565b6004546111819082611049565b6004556001600160a01b0382166000908152600260205260409020546111a79082611049565b6001600160a01b0383166000818152600260205260408082209390935591519091907fddf252ad1be2c89b69c2b068fc378daa952ba7f163c4a11628f55a4df523b3ef906111f89085815260200190565b60405180910390a35050565b60015460ff16156112275760405162461bcd60e51b815260040161067190611909565b6001805460ff1916811790557f62e78cea01bee320cd4e420270b5ea74000d11b0c9f74754ebdbfc544b05a258336110d2565b60015460ff161561127d5760405162461bcd60e51b815260040161067190611909565b6001600160a01b0382166112dd5760405162461bcd60e51b815260206004820152602160248201527f45524332303a206275726e2066726f6d20746865207a65726f206164647265736044820152607360f81b6064820152608401610671565b6112e98260008361138d565b61132681604051806060016040528060228152602001611a3a602291396001600160a01b0385166000908152600260205260409020549190610ed0565b6001600160a01b03831660009081526002602052604090205560045461134c908261154c565b6004556040518181526000906001600160a01b038416907fddf252ad1be2c89b69c2b068fc378daa952ba7f163c4a11628f55a4df523b3ef906020016111f8565b60015460ff16156107465760405162461bcd60e51b815260040161067190611909565b606060006113bf8360026119d6565b6113ca9060026119be565b67ffffffffffffffff8111156113e2576113e2611766565b6040519080825280601f01601f19166020018201604052801561140c576020820181803683370190505b509050600360fc1b81600081518110611427576114276119f5565b60200101906001600160f81b031916908160001a905350600f60fb1b81600181518110611456576114566119f5565b60200101906001600160f81b031916908160001a905350600061147a8460026119d6565b6114859060016119be565b90505b60018111156114fd576f181899199a1a9b1b9c1cb0b131b232b360811b85600f16601081106114b9576114b96119f5565b1a60f81b8282815181106114cf576114cf6119f5565b60200101906001600160f81b031916908160001a90535060049490941c936114f681611a0b565b9050611488565b5083156110555760405162461bcd60e51b815260206004820181905260248201527f537472696e67733a20686578206c656e67746820696e73756666696369656e746044820152606401610671565b60006110558284611a22565b828054611564906118ce565b90600052602060002090601f01602090048101928261158657600085556115cc565b82601f1061159f57805160ff19168380011785556115cc565b828001600101855582156115cc579182015b828111156115cc5782518255916020019190600101906115b1565b506115d89291506115dc565b5090565b5b808211156115d857600081556001016115dd565b60006020828403121561160357600080fd5b81356001600160e01b03198116811461105557600080fd5b60005b8381101561163657818101518382015260200161161e565b83811115611645576000848401525b50505050565b602081526000825180602084015261166a81604085016020870161161b565b601f01601f19169190910160400192915050565b6001600160a01b038116811461084a57600080fd5b600080604083850312156116a657600080fd5b82356116b18161167e565b946020939093013593505050565b6000806000606084860312156116d457600080fd5b83356116df8161167e565b925060208401356116ef8161167e565b929592945050506040919091013590565b60006020828403121561171257600080fd5b5035919050565b6000806040838503121561172c57600080fd5b82359150602083013561173e8161167e565b809150509250929050565b60006020828403121561175b57600080fd5b81356110558161167e565b634e487b7160e01b600052604160045260246000fd5b600082601f83011261178d57600080fd5b813567ffffffffffffffff808211156117a8576117a8611766565b604051601f8301601f19908116603f011681019082821181831017156117d0576117d0611766565b816040528381528660208588010111156117e957600080fd5b836020870160208301376000602085830101528094505050505092915050565b600080600080600060a0868803121561182157600080fd5b853561182c8161167e565b9450602086013567ffffffffffffffff8082111561184957600080fd5b61185589838a0161177c565b9550604088013591508082111561186b57600080fd5b506118788882890161177c565b935050606086013560ff8116811461188f57600080fd5b949793965091946080013592915050565b600080604083850312156118b357600080fd5b82356118be8161167e565b9150602083013561173e8161167e565b600181811c908216806118e257607f821691505b6020821081141561190357634e487b7160e01b600052602260045260246000fd5b50919050565b60208082526010908201526f14185d5cd8589b194e881c185d5cd95960821b604082015260600190565b7f416363657373436f6e74726f6c3a206163636f756e742000000000000000000081526000835161196b81601785016020880161161b565b7001034b99036b4b9b9b4b733903937b6329607d1b601791840191820152835161199c81602884016020880161161b565b01602801949350505050565b634e487b7160e01b600052601160045260246000fd5b600082198211156119d1576119d16119a8565b500190565b60008160001904831182151516156119f0576119f06119a8565b500290565b634e487b7160e01b600052603260045260246000fd5b600081611a1a57611a1a6119a8565b506000190190565b600082821015611a3457611a346119a8565b50039056fe45524332303a206275726e20616d6f756e7420657863656564732062616c616e636545524332303a207472616e7366657220616d6f756e7420657863656564732062616c616e636545524332303a207472616e7366657220616d6f756e74206578636565647320616c6c6f77616e636565d7a28e3265b37a6474929f336521b332c1681b933f6cb9f3376673440d862a9f2df0fed2c77648de5860a4cc508cd0818c85b8b8a1ab4ceeef8d981c8956a645524332303a2064656372656173656420616c6c6f77616e63652062656c6f77207a65726fa2646970667358221220d5e41a9cc99f604ceee1d1bb9bd1432f75bb5cc2d88d2a3e4206550f743f2ca664736f6c634300080a0033",
  "linkReferences": {},
  "deployedLinkReferences": {}
}