{
  "_format": "hh-sol-artifact-1",
  "contractName": "StandardTokenFactory",
  "sourceName": "contracts/factories/token/StandardTokenFactory.sol",
  "abi": [
    {
      "inputs": [
        {
          "internalType": "address",
          "name": "factoryManager_",
          "type": "address"
        },
        {
          "internalType": "address",
          "name": "implementationERC20_",
          "type": "address"
        },
        {
          "internalType": "address",
          "name": "implementationERC1155_",
          "type": "address"
        },
        {
          "internalType": "address",
          "name": "implementationERC721_",
          "type": "address"
        }
      ],
      "stateMutability": "nonpayable",
      "type": "constructor"
    },
    {
      "anonymous": false,
      "inputs": [
        {
          "indexed": true,
          "internalType": "address",
          "name": "previousOwner",
          "type": "address"
        },
        {
          "indexed": true,
          "internalType": "address",
          "name": "newOwner",
          "type": "address"
        }
      ],
      "name": "OwnershipTransferred",
      "type": "event"
    },
    {
      "anonymous": false,
      "inputs": [
        {
          "indexed": true,
          "internalType": "address",
          "name": "owner",
          "type": "address"
        },
        {
          "indexed": true,
          "internalType": "address",
          "name": "token",
          "type": "address"
        },
        {
          "indexed": false,
          "internalType": "uint8",
          "name": "tokenType",
          "type": "uint8"
        }
      ],
      "name": "TokenCreated",
      "type": "event"
    },
    {
      "inputs": [
        {
          "internalType": "string",
          "name": "name",
          "type": "string"
        },
        {
          "internalType": "string",
          "name": "symbol",
          "type": "string"
        },
        {
          "internalType": "uint256",
          "name": "max_supply",
          "type": "uint256"
        }
      ],
      "name": "createERC1155",
      "outputs": [
        {
          "internalType": "address",
          "name": "token",
          "type": "address"
        }
      ],
      "stateMutability": "nonpayable",
      "type": "function"
    },
    {
      "inputs": [
        {
          "internalType": "string",
          "name": "name",
          "type": "string"
        },
        {
          "internalType": "string",
          "name": "symbol",
          "type": "string"
        },
        {
          "internalType": "uint8",
          "name": "decimals",
          "type": "uint8"
        },
        {
          "internalType": "uint256",
          "name": "totalSupply",
          "type": "uint256"
        }
      ],
      "name": "createERC20",
      "outputs": [
        {
          "internalType": "address",
          "name": "token",
          "type": "address"
        }
      ],
      "stateMutability": "nonpayable",
      "type": "function"
    },
    {
      "inputs": [
        {
          "internalType": "string",
          "name": "name",
          "type": "string"
        },
        {
          "internalType": "string",
          "name": "symbol",
          "type": "string"
        }
      ],
      "name": "createERC721",
      "outputs": [
        {
          "internalType": "address",
          "name": "token",
          "type": "address"
        }
      ],
      "stateMutability": "nonpayable",
      "type": "function"
    },
    {
      "inputs": [],
      "name": "factoryManager",
      "outputs": [
        {
          "internalType": "address",
          "name": "",
          "type": "address"
        }
      ],
      "stateMutability": "view",
      "type": "function"
    },
    {
      "inputs": [],
      "name": "feeTo",
      "outputs": [
        {
          "internalType": "address",
          "name": "",
          "type": "address"
        }
      ],
      "stateMutability": "view",
      "type": "function"
    },
    {
      "inputs": [],
      "name": "flatFee",
      "outputs": [
        {
          "internalType": "uint256",
          "name": "",
          "type": "uint256"
        }
      ],
      "stateMutability": "view",
      "type": "function"
    },
    {
      "inputs": [],
      "name": "implementationERC1155",
      "outputs": [
        {
          "internalType": "address",
          "name": "",
          "type": "address"
        }
      ],
      "stateMutability": "view",
      "type": "function"
    },
    {
      "inputs": [],
      "name": "implementationERC20",
      "outputs": [
        {
          "internalType": "address",
          "name": "",
          "type": "address"
        }
      ],
      "stateMutability": "view",
      "type": "function"
    },
    {
      "inputs": [],
      "name": "implementationERC721",
      "outputs": [
        {
          "internalType": "address",
          "name": "",
          "type": "address"
        }
      ],
      "stateMutability": "view",
      "type": "function"
    },
    {
      "inputs": [],
      "name": "owner",
      "outputs": [
        {
          "internalType": "address",
          "name": "",
          "type": "address"
        }
      ],
      "stateMutability": "view",
      "type": "function"
    },
    {
      "inputs": [],
      "name": "renounceOwnership",
      "outputs": [],
      "stateMutability": "nonpayable",
      "type": "function"
    },
    {
      "inputs": [
        {
          "internalType": "address",
          "name": "feeReceivingAddress",
          "type": "address"
        }
      ],
      "name": "setFeeTo",
      "outputs": [],
      "stateMutability": "nonpayable",
      "type": "function"
    },
    {
      "inputs": [
        {
          "internalType": "uint256",
          "name": "fee",
          "type": "uint256"
        }
      ],
      "name": "setFlatFee",
      "outputs": [],
      "stateMutability": "nonpayable",
      "type": "function"
    },
    {
      "inputs": [
        {
          "internalType": "address",
          "name": "implementation_",
          "type": "address"
        }
      ],
      "name": "setImplementationERC1155",
      "outputs": [],
      "stateMutability": "nonpayable",
      "type": "function"
    },
    {
      "inputs": [
        {
          "internalType": "address",
          "name": "implementation_",
          "type": "address"
        }
      ],
      "name": "setImplementationERC20",
      "outputs": [],
      "stateMutability": "nonpayable",
      "type": "function"
    },
    {
      "inputs": [
        {
          "internalType": "address",
          "name": "implementation_",
          "type": "address"
        }
      ],
      "name": "setImplementationERC721",
      "outputs": [],
      "stateMutability": "nonpayable",
      "type": "function"
    },
    {
      "inputs": [
        {
          "internalType": "address",
          "name": "newOwner",
          "type": "address"
        }
      ],
      "name": "transferOwnership",
      "outputs": [],
      "stateMutability": "nonpayable",
      "type": "function"
    }
  ],
  "bytecode": "0x608060405234801561001057600080fd5b50604051610eff380380610eff83398101604081905261002f9161011a565b8383838361003c336100ae565b60018055600280546001600160a01b03199081166001600160a01b0396871617909155600380548216948616949094179093556004805484169185169190911790556005805483169190931617909155600680543392169190911790555050662386f26fc100006007555061016e9050565b600080546001600160a01b038381166001600160a01b0319831681178455604051919092169283917f8be0079c531659141344cd1fd0a4f28419497f9722a3daafe3b4186f6b6457e09190a35050565b80516001600160a01b038116811461011557600080fd5b919050565b6000806000806080858703121561013057600080fd5b610139856100fe565b9350610147602086016100fe565b9250610155604086016100fe565b9150610163606086016100fe565b905092959194509250565b610d828061017d6000396000f3fe608060405234801561001057600080fd5b506004361061010b5760003560e01c806374b055f9116100a2578063c4576ff011610071578063c4576ff014610206578063d9eb594714610219578063e3012eb714610230578063f2fde38b14610243578063f46901ed1461025657600080fd5b806374b055f9146101bc578063769d772b146101cf5780638da5cb5b146101e25780639463e219146101f357600080fd5b806323fa495a116100de57806323fa495a14610179578063586fd0c51461018e5780635b22b268146101a1578063715018a6146101b457600080fd5b8063017e7e5814610110578063032b5a73146101405780630845e771146101535780630bb7006514610166575b600080fd5b600654610123906001600160a01b031681565b6040516001600160a01b0390911681526020015b60405180910390f35b600254610123906001600160a01b031681565b600554610123906001600160a01b031681565b610123610174366004610a1f565b610269565b61018c610187366004610a8c565b61039a565b005b61012361019c366004610aa5565b6103c9565b600354610123906001600160a01b031681565b61018c6104ee565b61018c6101ca366004610b09565b610524565b61018c6101dd366004610b09565b610570565b6000546001600160a01b0316610123565b600454610123906001600160a01b031681565b61018c610214366004610b09565b6105bc565b61022260075481565b604051908152602001610137565b61012361023e366004610b39565b610608565b61018c610251366004610b09565b610733565b61018c610264366004610b09565b6107ce565b6000600260015414156102975760405162461bcd60e51b815260040161028e90610bbd565b60405180910390fd5b60026001556000546001600160a01b031633146102c65760405162461bcd60e51b815260040161028e90610bf4565b6005546102db906001600160a01b031661081a565b6040516326896a5b60e11b81529091506001600160a01b03821690634d12d4b690610310903390889088908890600401610c76565b600060405180830381600087803b15801561032a57600080fd5b505af115801561033e573d6000803e3d6000fd5b5050505061034e338260016108b7565b604051600181526001600160a01b0382169033907f49fab9e82f453b3b0e1b0e507a645552d8b351f9b3cb0c9a7b4df572780c6b2f9060200160405180910390a3600180559392505050565b6000546001600160a01b031633146103c45760405162461bcd60e51b815260040161028e90610bf4565b600755565b6000600260015414156103ee5760405162461bcd60e51b815260040161028e90610bbd565b60026001556000546001600160a01b0316331461041d5760405162461bcd60e51b815260040161028e90610bf4565b600454610432906001600160a01b031661081a565b604051639065714760e01b81529091506001600160a01b0382169063906571479061046590339087908790600401610cbe565b600060405180830381600087803b15801561047f57600080fd5b505af1158015610493573d6000803e3d6000fd5b505050506104a3338260026108b7565b604051600281526001600160a01b0382169033907f49fab9e82f453b3b0e1b0e507a645552d8b351f9b3cb0c9a7b4df572780c6b2f9060200160405180910390a36001805592915050565b6000546001600160a01b031633146105185760405162461bcd60e51b815260040161028e90610bf4565b610522600061092c565b565b6000546001600160a01b0316331461054e5760405162461bcd60e51b815260040161028e90610bf4565b600380546001600160a01b0319166001600160a01b0392909216919091179055565b6000546001600160a01b0316331461059a5760405162461bcd60e51b815260040161028e90610bf4565b600480546001600160a01b0319166001600160a01b0392909216919091179055565b6000546001600160a01b031633146105e65760405162461bcd60e51b815260040161028e90610bf4565b600580546001600160a01b0319166001600160a01b0392909216919091179055565b60006002600154141561062d5760405162461bcd60e51b815260040161028e90610bbd565b60026001556000546001600160a01b0316331461065c5760405162461bcd60e51b815260040161028e90610bf4565b600354610671906001600160a01b031661081a565b60405163d72bdc5360e01b81529091506001600160a01b0382169063d72bdc53906106a89033908990899089908990600401610cfe565b600060405180830381600087803b1580156106c257600080fd5b505af11580156106d6573d6000803e3d6000fd5b505050506106e6338260006108b7565b604051600081526001600160a01b0382169033907f49fab9e82f453b3b0e1b0e507a645552d8b351f9b3cb0c9a7b4df572780c6b2f9060200160405180910390a360018055949350505050565b6000546001600160a01b0316331461075d5760405162461bcd60e51b815260040161028e90610bf4565b6001600160a01b0381166107c25760405162461bcd60e51b815260206004820152602660248201527f4f776e61626c653a206e6577206f776e657220697320746865207a65726f206160448201526564647265737360d01b606482015260840161028e565b6107cb8161092c565b50565b6000546001600160a01b031633146107f85760405162461bcd60e51b815260040161028e90610bf4565b600680546001600160a01b0319166001600160a01b0392909216919091179055565b6000604051733d602d80600a3d3981f3363d3d373d3d3d363d7360601b81528260601b60148201526e5af43d82803e903d91602b57fd5bf360881b60288201526037816000f09150506001600160a01b0381166108b25760405162461bcd60e51b8152602060048201526016602482015275115490cc4c4d8dce8818dc99585d194819985a5b195960521b604482015260640161028e565b919050565b60025460405163141106f560e11b81526001600160a01b038581166004830152848116602483015260ff84166044830152909116906328220dea90606401600060405180830381600087803b15801561090f57600080fd5b505af1158015610923573d6000803e3d6000fd5b50505050505050565b600080546001600160a01b038381166001600160a01b0319831681178455604051919092169283917f8be0079c531659141344cd1fd0a4f28419497f9722a3daafe3b4186f6b6457e09190a35050565b634e487b7160e01b600052604160045260246000fd5b600082601f8301126109a357600080fd5b813567ffffffffffffffff808211156109be576109be61097c565b604051601f8301601f19908116603f011681019082821181831017156109e6576109e661097c565b816040528381528660208588010111156109ff57600080fd5b836020870160208301376000602085830101528094505050505092915050565b600080600060608486031215610a3457600080fd5b833567ffffffffffffffff80821115610a4c57600080fd5b610a5887838801610992565b94506020860135915080821115610a6e57600080fd5b50610a7b86828701610992565b925050604084013590509250925092565b600060208284031215610a9e57600080fd5b5035919050565b60008060408385031215610ab857600080fd5b823567ffffffffffffffff80821115610ad057600080fd5b610adc86838701610992565b93506020850135915080821115610af257600080fd5b50610aff85828601610992565b9150509250929050565b600060208284031215610b1b57600080fd5b81356001600160a01b0381168114610b3257600080fd5b9392505050565b60008060008060808587031215610b4f57600080fd5b843567ffffffffffffffff80821115610b6757600080fd5b610b7388838901610992565b95506020870135915080821115610b8957600080fd5b50610b9687828801610992565b935050604085013560ff81168114610bad57600080fd5b9396929550929360600135925050565b6020808252601f908201527f5265656e7472616e637947756172643a207265656e7472616e742063616c6c00604082015260600190565b6020808252818101527f4f776e61626c653a2063616c6c6572206973206e6f7420746865206f776e6572604082015260600190565b6000815180845260005b81811015610c4f57602081850181015186830182015201610c33565b81811115610c61576000602083870101525b50601f01601f19169290920160200192915050565b6001600160a01b0385168152608060208201819052600090610c9a90830186610c29565b8281036040840152610cac8186610c29565b91505082606083015295945050505050565b6001600160a01b0384168152606060208201819052600090610ce290830185610c29565b8281036040840152610cf48185610c29565b9695505050505050565b6001600160a01b038616815260a060208201819052600090610d2290830187610c29565b8281036040840152610d348187610c29565b60ff959095166060840152505060800152939250505056fea26469706673582212207f31beb49f1f922712dbe3b8750a46d83d3eb00bdbca58b40abbc789d6d9912664736f6c634300080a0033",
  "linkReferences": {},
  "deployedLinkReferences": {}
}