{
  "_format": "hh-sol-artifact-1",
  "contractName": "Standard1155",
  "sourceName": "contracts/tokens/Standard1155.sol",
  "abi": [
    {
      "inputs": [],
      "stateMutability": "nonpayable",
      "type": "constructor"
    },
    {
      "anonymous": false,
      "inputs": [
        {
          "indexed": true,
          "internalType": "address",
          "name": "account",
          "type": "address"
        },
        {
          "indexed": true,
          "internalType": "address",
          "name": "operator",
          "type": "address"
        },
        {
          "indexed": false,
          "internalType": "bool",
          "name": "approved",
          "type": "bool"
        }
      ],
      "name": "ApprovalForAll",
      "type": "event"
    },
    {
      "anonymous": false,
      "inputs": [
        {
          "indexed": false,
          "internalType": "address",
          "name": "account",
          "type": "address"
        }
      ],
      "name": "Paused",
      "type": "event"
    },
    {
      "anonymous": false,
      "inputs": [
        {
          "indexed": true,
          "internalType": "bytes32",
          "name": "role",
          "type": "bytes32"
        },
        {
          "indexed": true,
          "internalType": "bytes32",
          "name": "previousAdminRole",
          "type": "bytes32"
        },
        {
          "indexed": true,
          "internalType": "bytes32",
          "name": "newAdminRole",
          "type": "bytes32"
        }
      ],
      "name": "RoleAdminChanged",
      "type": "event"
    },
    {
      "anonymous": false,
      "inputs": [
        {
          "indexed": true,
          "internalType": "bytes32",
          "name": "role",
          "type": "bytes32"
        },
        {
          "indexed": true,
          "internalType": "address",
          "name": "account",
          "type": "address"
        },
        {
          "indexed": true,
          "internalType": "address",
          "name": "sender",
          "type": "address"
        }
      ],
      "name": "RoleGranted",
      "type": "event"
    },
    {
      "anonymous": false,
      "inputs": [
        {
          "indexed": true,
          "internalType": "bytes32",
          "name": "role",
          "type": "bytes32"
        },
        {
          "indexed": true,
          "internalType": "address",
          "name": "account",
          "type": "address"
        },
        {
          "indexed": true,
          "internalType": "address",
          "name": "sender",
          "type": "address"
        }
      ],
      "name": "RoleRevoked",
      "type": "event"
    },
    {
      "anonymous": false,
      "inputs": [
        {
          "indexed": true,
          "internalType": "address",
          "name": "operator",
          "type": "address"
        },
        {
          "indexed": true,
          "internalType": "address",
          "name": "from",
          "type": "address"
        },
        {
          "indexed": true,
          "internalType": "address",
          "name": "to",
          "type": "address"
        },
        {
          "indexed": false,
          "internalType": "uint256[]",
          "name": "ids",
          "type": "uint256[]"
        },
        {
          "indexed": false,
          "internalType": "uint256[]",
          "name": "values",
          "type": "uint256[]"
        }
      ],
      "name": "TransferBatch",
      "type": "event"
    },
    {
      "anonymous": false,
      "inputs": [
        {
          "indexed": true,
          "internalType": "address",
          "name": "operator",
          "type": "address"
        },
        {
          "indexed": true,
          "internalType": "address",
          "name": "from",
          "type": "address"
        },
        {
          "indexed": true,
          "internalType": "address",
          "name": "to",
          "type": "address"
        },
        {
          "indexed": false,
          "internalType": "uint256",
          "name": "id",
          "type": "uint256"
        },
        {
          "indexed": false,
          "internalType": "uint256",
          "name": "value",
          "type": "uint256"
        }
      ],
      "name": "TransferSingle",
      "type": "event"
    },
    {
      "anonymous": false,
      "inputs": [
        {
          "indexed": false,
          "internalType": "string",
          "name": "value",
          "type": "string"
        },
        {
          "indexed": true,
          "internalType": "uint256",
          "name": "id",
          "type": "uint256"
        }
      ],
      "name": "URI",
      "type": "event"
    },
    {
      "anonymous": false,
      "inputs": [
        {
          "indexed": false,
          "internalType": "address",
          "name": "account",
          "type": "address"
        }
      ],
      "name": "Unpaused",
      "type": "event"
    },
    {
      "inputs": [],
      "name": "DEFAULT_ADMIN_ROLE",
      "outputs": [
        {
          "internalType": "bytes32",
          "name": "",
          "type": "bytes32"
        }
      ],
      "stateMutability": "view",
      "type": "function"
    },
    {
      "inputs": [],
      "name": "MAX_SUPPLY",
      "outputs": [
        {
          "internalType": "uint256",
          "name": "",
          "type": "uint256"
        }
      ],
      "stateMutability": "view",
      "type": "function"
    },
    {
      "inputs": [],
      "name": "MINTER_ROLE",
      "outputs": [
        {
          "internalType": "bytes32",
          "name": "",
          "type": "bytes32"
        }
      ],
      "stateMutability": "view",
      "type": "function"
    },
    {
      "inputs": [],
      "name": "NFT_PRICE",
      "outputs": [
        {
          "internalType": "uint256",
          "name": "",
          "type": "uint256"
        }
      ],
      "stateMutability": "view",
      "type": "function"
    },
    {
      "inputs": [],
      "name": "PAUSER_ROLE",
      "outputs": [
        {
          "internalType": "bytes32",
          "name": "",
          "type": "bytes32"
        }
      ],
      "stateMutability": "view",
      "type": "function"
    },
    {
      "inputs": [],
      "name": "REVELETED",
      "outputs": [
        {
          "internalType": "bool",
          "name": "",
          "type": "bool"
        }
      ],
      "stateMutability": "view",
      "type": "function"
    },
    {
      "inputs": [],
      "name": "TOTAL_SUPPLY",
      "outputs": [
        {
          "internalType": "uint256",
          "name": "",
          "type": "uint256"
        }
      ],
      "stateMutability": "view",
      "type": "function"
    },
    {
      "inputs": [],
      "name": "URI_SETTER_ROLE",
      "outputs": [
        {
          "internalType": "bytes32",
          "name": "",
          "type": "bytes32"
        }
      ],
      "stateMutability": "view",
      "type": "function"
    },
    {
      "inputs": [
        {
          "internalType": "address",
          "name": "account",
          "type": "address"
        },
        {
          "internalType": "uint256",
          "name": "id",
          "type": "uint256"
        }
      ],
      "name": "balanceOf",
      "outputs": [
        {
          "internalType": "uint256",
          "name": "",
          "type": "uint256"
        }
      ],
      "stateMutability": "view",
      "type": "function"
    },
    {
      "inputs": [
        {
          "internalType": "address[]",
          "name": "accounts",
          "type": "address[]"
        },
        {
          "internalType": "uint256[]",
          "name": "ids",
          "type": "uint256[]"
        }
      ],
      "name": "balanceOfBatch",
      "outputs": [
        {
          "internalType": "uint256[]",
          "name": "",
          "type": "uint256[]"
        }
      ],
      "stateMutability": "view",
      "type": "function"
    },
    {
      "inputs": [],
      "name": "buyToken",
      "outputs": [
        {
          "internalType": "bool",
          "name": "",
          "type": "bool"
        }
      ],
      "stateMutability": "payable",
      "type": "function"
    },
    {
      "inputs": [
        {
          "internalType": "uint256",
          "name": "id",
          "type": "uint256"
        }
      ],
      "name": "exists",
      "outputs": [
        {
          "internalType": "bool",
          "name": "",
          "type": "bool"
        }
      ],
      "stateMutability": "view",
      "type": "function"
    },
    {
      "inputs": [
        {
          "internalType": "bytes32",
          "name": "role",
          "type": "bytes32"
        }
      ],
      "name": "getRoleAdmin",
      "outputs": [
        {
          "internalType": "bytes32",
          "name": "",
          "type": "bytes32"
        }
      ],
      "stateMutability": "view",
      "type": "function"
    },
    {
      "inputs": [
        {
          "internalType": "bytes32",
          "name": "role",
          "type": "bytes32"
        },
        {
          "internalType": "address",
          "name": "account",
          "type": "address"
        }
      ],
      "name": "grantRole",
      "outputs": [],
      "stateMutability": "nonpayable",
      "type": "function"
    },
    {
      "inputs": [
        {
          "internalType": "bytes32",
          "name": "role",
          "type": "bytes32"
        },
        {
          "internalType": "address",
          "name": "account",
          "type": "address"
        }
      ],
      "name": "hasRole",
      "outputs": [
        {
          "internalType": "bool",
          "name": "",
          "type": "bool"
        }
      ],
      "stateMutability": "view",
      "type": "function"
    },
    {
      "inputs": [
        {
          "internalType": "address",
          "name": "owner_",
          "type": "address"
        },
        {
          "internalType": "string",
          "name": "name_",
          "type": "string"
        },
        {
          "internalType": "string",
          "name": "symbol_",
          "type": "string"
        },
        {
          "internalType": "uint256",
          "name": "max_supply_",
          "type": "uint256"
        }
      ],
      "name": "initialize",
      "outputs": [],
      "stateMutability": "nonpayable",
      "type": "function"
    },
    {
      "inputs": [
        {
          "internalType": "address",
          "name": "account",
          "type": "address"
        },
        {
          "internalType": "address",
          "name": "operator",
          "type": "address"
        }
      ],
      "name": "isApprovedForAll",
      "outputs": [
        {
          "internalType": "bool",
          "name": "",
          "type": "bool"
        }
      ],
      "stateMutability": "view",
      "type": "function"
    },
    {
      "inputs": [
        {
          "internalType": "address",
          "name": "account",
          "type": "address"
        },
        {
          "internalType": "uint256",
          "name": "id",
          "type": "uint256"
        }
      ],
      "name": "mint",
      "outputs": [],
      "stateMutability": "nonpayable",
      "type": "function"
    },
    {
      "inputs": [
        {
          "internalType": "address",
          "name": "to",
          "type": "address"
        },
        {
          "internalType": "uint256",
          "name": "amount",
          "type": "uint256"
        },
        {
          "internalType": "uint256",
          "name": "id",
          "type": "uint256"
        }
      ],
      "name": "mintBatch",
      "outputs": [],
      "stateMutability": "nonpayable",
      "type": "function"
    },
    {
      "inputs": [
        {
          "internalType": "address",
          "name": "to",
          "type": "address"
        },
        {
          "internalType": "uint256",
          "name": "amount",
          "type": "uint256"
        }
      ],
      "name": "mintBatchUnique",
      "outputs": [],
      "stateMutability": "nonpayable",
      "type": "function"
    },
    {
      "inputs": [
        {
          "internalType": "address",
          "name": "account",
          "type": "address"
        }
      ],
      "name": "mintUnique",
      "outputs": [],
      "stateMutability": "nonpayable",
      "type": "function"
    },
    {
      "inputs": [],
      "name": "name",
      "outputs": [
        {
          "internalType": "string",
          "name": "",
          "type": "string"
        }
      ],
      "stateMutability": "view",
      "type": "function"
    },
    {
      "inputs": [],
      "name": "pause",
      "outputs": [],
      "stateMutability": "nonpayable",
      "type": "function"
    },
    {
      "inputs": [],
      "name": "paused",
      "outputs": [
        {
          "internalType": "bool",
          "name": "",
          "type": "bool"
        }
      ],
      "stateMutability": "view",
      "type": "function"
    },
    {
      "inputs": [
        {
          "internalType": "bytes32",
          "name": "role",
          "type": "bytes32"
        },
        {
          "internalType": "address",
          "name": "account",
          "type": "address"
        }
      ],
      "name": "renounceRole",
      "outputs": [],
      "stateMutability": "nonpayable",
      "type": "function"
    },
    {
      "inputs": [
        {
          "internalType": "bytes32",
          "name": "role",
          "type": "bytes32"
        },
        {
          "internalType": "address",
          "name": "account",
          "type": "address"
        }
      ],
      "name": "revokeRole",
      "outputs": [],
      "stateMutability": "nonpayable",
      "type": "function"
    },
    {
      "inputs": [
        {
          "internalType": "uint256",
          "name": "",
          "type": "uint256"
        },
        {
          "internalType": "uint256",
          "name": "_salePrice",
          "type": "uint256"
        }
      ],
      "name": "royaltyInfo",
      "outputs": [
        {
          "internalType": "address",
          "name": "receiver",
          "type": "address"
        },
        {
          "internalType": "uint256",
          "name": "royaltyAmount",
          "type": "uint256"
        }
      ],
      "stateMutability": "view",
      "type": "function"
    },
    {
      "inputs": [
        {
          "internalType": "address",
          "name": "from",
          "type": "address"
        },
        {
          "internalType": "address",
          "name": "to",
          "type": "address"
        },
        {
          "internalType": "uint256[]",
          "name": "ids",
          "type": "uint256[]"
        },
        {
          "internalType": "uint256[]",
          "name": "amounts",
          "type": "uint256[]"
        },
        {
          "internalType": "bytes",
          "name": "data",
          "type": "bytes"
        }
      ],
      "name": "safeBatchTransferFrom",
      "outputs": [],
      "stateMutability": "nonpayable",
      "type": "function"
    },
    {
      "inputs": [
        {
          "internalType": "address",
          "name": "from",
          "type": "address"
        },
        {
          "internalType": "address",
          "name": "to",
          "type": "address"
        },
        {
          "internalType": "uint256",
          "name": "id",
          "type": "uint256"
        },
        {
          "internalType": "uint256",
          "name": "amount",
          "type": "uint256"
        },
        {
          "internalType": "bytes",
          "name": "data",
          "type": "bytes"
        }
      ],
      "name": "safeTransferFrom",
      "outputs": [],
      "stateMutability": "nonpayable",
      "type": "function"
    },
    {
      "inputs": [
        {
          "internalType": "address",
          "name": "operator",
          "type": "address"
        },
        {
          "internalType": "bool",
          "name": "approved",
          "type": "bool"
        }
      ],
      "name": "setApprovalForAll",
      "outputs": [],
      "stateMutability": "nonpayable",
      "type": "function"
    },
    {
      "inputs": [
        {
          "internalType": "string",
          "name": "url_",
          "type": "string"
        }
      ],
      "name": "setDefaultUrl",
      "outputs": [
        {
          "internalType": "bool",
          "name": "",
          "type": "bool"
        }
      ],
      "stateMutability": "nonpayable",
      "type": "function"
    },
    {
      "inputs": [
        {
          "internalType": "uint256",
          "name": "supply",
          "type": "uint256"
        }
      ],
      "name": "setMaxSupply",
      "outputs": [
        {
          "internalType": "bool",
          "name": "",
          "type": "bool"
        }
      ],
      "stateMutability": "nonpayable",
      "type": "function"
    },
    {
      "inputs": [
        {
          "internalType": "uint256",
          "name": "price",
          "type": "uint256"
        }
      ],
      "name": "setNftPrice",
      "outputs": [
        {
          "internalType": "bool",
          "name": "",
          "type": "bool"
        }
      ],
      "stateMutability": "nonpayable",
      "type": "function"
    },
    {
      "inputs": [
        {
          "internalType": "bool",
          "name": "status",
          "type": "bool"
        }
      ],
      "name": "setReveleted",
      "outputs": [
        {
          "internalType": "bool",
          "name": "",
          "type": "bool"
        }
      ],
      "stateMutability": "nonpayable",
      "type": "function"
    },
    {
      "inputs": [
        {
          "internalType": "address",
          "name": "_newRecipient",
          "type": "address"
        }
      ],
      "name": "setRoyalties",
      "outputs": [],
      "stateMutability": "nonpayable",
      "type": "function"
    },
    {
      "inputs": [
        {
          "internalType": "string",
          "name": "newuri",
          "type": "string"
        }
      ],
      "name": "setURI",
      "outputs": [],
      "stateMutability": "nonpayable",
      "type": "function"
    },
    {
      "inputs": [
        {
          "internalType": "bytes4",
          "name": "interfaceId",
          "type": "bytes4"
        }
      ],
      "name": "supportsInterface",
      "outputs": [
        {
          "internalType": "bool",
          "name": "",
          "type": "bool"
        }
      ],
      "stateMutability": "view",
      "type": "function"
    },
    {
      "inputs": [],
      "name": "symbol",
      "outputs": [
        {
          "internalType": "string",
          "name": "",
          "type": "string"
        }
      ],
      "stateMutability": "view",
      "type": "function"
    },
    {
      "inputs": [
        {
          "internalType": "uint256",
          "name": "_tokenId",
          "type": "uint256"
        }
      ],
      "name": "tokenUri",
      "outputs": [
        {
          "internalType": "string",
          "name": "",
          "type": "string"
        }
      ],
      "stateMutability": "view",
      "type": "function"
    },
    {
      "inputs": [
        {
          "internalType": "uint256",
          "name": "id",
          "type": "uint256"
        }
      ],
      "name": "totalSupply",
      "outputs": [
        {
          "internalType": "uint256",
          "name": "",
          "type": "uint256"
        }
      ],
      "stateMutability": "view",
      "type": "function"
    },
    {
      "inputs": [],
      "name": "unpause",
      "outputs": [],
      "stateMutability": "nonpayable",
      "type": "function"
    },
    {
      "inputs": [
        {
          "internalType": "uint256",
          "name": "",
          "type": "uint256"
        }
      ],
      "name": "uri",
      "outputs": [
        {
          "internalType": "string",
          "name": "",
          "type": "string"
        }
      ],
      "stateMutability": "view",
      "type": "function"
    }
  ],
  "bytecode": "0x608060405266038d7ea4c68000600c55600d805460ff191690553480156200002657600080fd5b50604080516020810190915260008152620000418162000052565b506004805460ff191690556200014e565b8051620000679060029060208401906200006b565b5050565b828054620000799062000111565b90600052602060002090601f0160209004810192826200009d5760008555620000e8565b82601f10620000b857805160ff1916838001178555620000e8565b82800160010185558215620000e8579182015b82811115620000e8578251825591602001919060010190620000cb565b50620000f6929150620000fa565b5090565b5b80821115620000f65760008155600101620000fb565b600181811c908216806200012657607f821691505b602082108114156200014857634e487b7160e01b600052602260045260246000fd5b50919050565b612e11806200015e6000396000f3fe6080604052600436106102505760003560e01c8063676dd56311610139578063a217fddf116100b6578063d53913931161007a578063d5391393146106ec578063d547741f1461070e578063e63ab1e91461072e578063e985e9c514610750578063f0d685a514610799578063f242432a146107b357600080fd5b8063a217fddf14610662578063a22cb46514610677578063a482171914610697578063bd363e8b1461069f578063bd85b039146106bf57600080fd5b806383a9408a116100fd57806383a9408a146105e25780638456cb5914610602578063902d55a51461061757806391d148541461062d57806395d89b411461064d57600080fd5b8063676dd5631461054a5780636f8b44b0146105605780637277de72146105805780637d9a7a4c146105a05780637f345710146105c057600080fd5b80632eb2c2d6116101d257806340c10f191161019657806340c10f19146104765780634d12d4b6146104965780634e1273f4146104b65780634f558e79146104e35780635c975abb1461051257806364cc1d461461052a57600080fd5b80632eb2c2d6146103eb5780632f2ff15d1461040b57806332cb6b0c1461042b57806336568abe146104415780633f4ba83a1461046157600080fd5b80631675f455116102195780631675f4551461031c578063248a9ca31461033c5780632a55205a1461036c5780632a9e63c6146103ab5780632e81aaea146103cb57600080fd5b8062fdd58e1461025557806301ffc9a71461028857806302fe5305146102b857806306fdde03146102da5780630e89341c146102fc575b600080fd5b34801561026157600080fd5b506102756102703660046122da565b6107d3565b6040519081526020015b60405180910390f35b34801561029457600080fd5b506102a86102a336600461231a565b61086a565b604051901515815260200161027f565b3480156102c457600080fd5b506102d86102d33660046123ee565b610895565b005b3480156102e657600080fd5b506102ef6108bb565b60405161027f919061247b565b34801561030857600080fd5b506102ef61031736600461248e565b61094d565b34801561032857600080fd5b506102ef61033736600461248e565b6109e1565b34801561034857600080fd5b5061027561035736600461248e565b60009081526003602052604090206001015490565b34801561037857600080fd5b5061038c6103873660046124a7565b610a3a565b604080516001600160a01b03909316835260208301919091520161027f565b3480156103b757600080fd5b506102d86103c63660046124c9565b610a8a565b3480156103d757600080fd5b506102d86103e63660046124e4565b610a9f565b3480156103f757600080fd5b506102d86104063660046125ac565b610b03565b34801561041757600080fd5b506102d8610426366004612656565b610b93565b34801561043757600080fd5b50610275600a5481565b34801561044d57600080fd5b506102d861045c366004612656565b610bbe565b34801561046d57600080fd5b506102d8610c38565b34801561048257600080fd5b506102d86104913660046122da565b610c5c565b3480156104a257600080fd5b506102d86104b1366004612682565b610c9c565b3480156104c257600080fd5b506104d66104d13660046126fe565b610dd8565b60405161027f9190612804565b3480156104ef57600080fd5b506102a86104fe36600461248e565b600090815260056020526040902054151590565b34801561051e57600080fd5b5060045460ff166102a8565b34801561053657600080fd5b506102a8610545366004612827565b610f02565b34801561055657600080fd5b50610275600c5481565b34801561056c57600080fd5b506102a861057b36600461248e565b610f3a565b34801561058c57600080fd5b506102d861059b3660046122da565b610fa1565b3480156105ac57600080fd5b506102a86105bb36600461248e565b611045565b3480156105cc57600080fd5b50610275600080516020612d7c83398151915281565b3480156105ee57600080fd5b506102a86105fd3660046123ee565b6110ac565b34801561060e57600080fd5b506102d86110e4565b34801561062357600080fd5b50610275600b5481565b34801561063957600080fd5b506102a8610648366004612656565b611105565b34801561065957600080fd5b506102ef611130565b34801561066e57600080fd5b50610275600081565b34801561068357600080fd5b506102d8610692366004612842565b61113f565b6102a861114a565b3480156106ab57600080fd5b506102d86106ba3660046124c9565b61120c565b3480156106cb57600080fd5b506102756106da36600461248e565b60009081526005602052604090205490565b3480156106f857600080fd5b50610275600080516020612dbc83398151915281565b34801561071a57600080fd5b506102d8610729366004612656565b611291565b34801561073a57600080fd5b50610275600080516020612d9c83398151915281565b34801561075c57600080fd5b506102a861076b36600461286c565b6001600160a01b03918216600090815260016020908152604080832093909416825291909152205460ff1690565b3480156107a557600080fd5b50600d546102a89060ff1681565b3480156107bf57600080fd5b506102d86107ce366004612896565b6112b7565b60006001600160a01b0383166108445760405162461bcd60e51b815260206004820152602b60248201527f455243313135353a2062616c616e636520717565727920666f7220746865207a60448201526a65726f206164647265737360a81b60648201526084015b60405180910390fd5b506000908152602081815260408083206001600160a01b03949094168352929052205490565b60006001600160e01b0319821663152a902d60e11b148061088f575061088f8261133e565b92915050565b600080516020612d7c8339815191526108ae8133611363565b6108b7826113c7565b5050565b6060600780546108ca906128fb565b80601f01602080910402602001604051908101604052809291908181526020018280546108f6906128fb565b80156109435780601f1061091857610100808354040283529160200191610943565b820191906000526020600020905b81548152906001019060200180831161092657829003601f168201915b5050505050905090565b60606002805461095c906128fb565b80601f0160208091040260200160405190810160405280929190818152602001828054610988906128fb565b80156109d55780601f106109aa576101008083540402835291602001916109d5565b820191906000526020600020905b8154815290600101906020018083116109b857829003601f168201915b50505050509050919050565b600d5460609060ff1615610a28576109f88261094d565b610a01836113da565b604051602001610a12929190612930565b6040516020818303038152906040529050919050565b6009805461095c906128fb565b919050565b60065460009081906201000081046001600160a01b03169061271090610a6a90600160b01b900460ff1686612985565b610a75906064612985565b610a7f91906129ba565b915091509250929050565b6000610a968133611363565b6108b7826114e0565b600080516020612dbc833981519152610ab88133611363565b60005b83811015610afc57610aea8584600160405180604001604052806002815260200161060f60f31b815250611575565b80610af4816129ce565b915050610abb565b5050505050565b6001600160a01b038516331480610b1f5750610b1f853361076b565b610b865760405162461bcd60e51b815260206004820152603260248201527f455243313135353a207472616e736665722063616c6c6572206973206e6f74206044820152711bdddb995c881b9bdc88185c1c1c9bdd995960721b606482015260840161083b565b610afc8585858585611685565b600082815260036020526040902060010154610baf8133611363565b610bb98383611870565b505050565b6001600160a01b0381163314610c2e5760405162461bcd60e51b815260206004820152602f60248201527f416363657373436f6e74726f6c3a2063616e206f6e6c792072656e6f756e636560448201526e103937b632b9903337b91039b2b63360891b606482015260840161083b565b6108b782826118f6565b600080516020612d9c833981519152610c518133611363565b610c5961195d565b50565b600080516020612dbc833981519152610c758133611363565b610bb98383600160405180604001604052806002815260200161060f60f31b815250611575565b600654610100900460ff16610cb75760065460ff1615610cbb565b303b155b610d1e5760405162461bcd60e51b815260206004820152602e60248201527f496e697469616c697a61626c653a20636f6e747261637420697320616c72656160448201526d191e481a5b9a5d1a585b1a5e995960921b606482015260840161083b565b600654610100900460ff16158015610d40576006805461ffff19166101011790555b8351610d5390600790602087019061222a565b508251610d6790600890602086019061222a565b50610d73600086611870565b610d8b600080516020612d7c83398151915286611870565b610da3600080516020612d9c83398151915286611870565b610dbb600080516020612dbc83398151915286611870565b600a8290558015610afc576006805461ff00191690555050505050565b60608151835114610e3d5760405162461bcd60e51b815260206004820152602960248201527f455243313135353a206163636f756e747320616e6420696473206c656e677468604482015268040dad2e6dac2e8c6d60bb1b606482015260840161083b565b6000835167ffffffffffffffff811115610e5957610e59612337565b604051908082528060200260200182016040528015610e82578160200160208202803683370190505b50905060005b8451811015610efa57610ecd858281518110610ea657610ea66129e9565b6020026020010151858381518110610ec057610ec06129e9565b60200260200101516107d3565b828281518110610edf57610edf6129e9565b6020908102919091010152610ef3816129ce565b9050610e88565b509392505050565b6000600080516020612d7c833981519152610f1d8133611363565b600d805460ff191684151590811790915560ff1691505b50919050565b600080610f478133611363565b60008311610f975760405162461bcd60e51b815260206004820152601d60248201527f537570706c79206d7573742062652067726561746572207468616e2030000000604482015260640161083b565b5050600a55600190565b600080516020612dbc833981519152610fba8133611363565b81600b54610fc891906129ff565b600a5411610fe85760405162461bcd60e51b815260040161083b90612a17565b60005b8281101561103f5761101c84600b54600160405180604001604052806002815260200161060f60f31b815250611575565b600b5461102a9060016119f0565b600b5580611037816129ce565b915050610feb565b50505050565b6000806110528133611363565b600083116110a25760405162461bcd60e51b815260206004820152601c60248201527f5072696365206d7573742062652067726561746572207468616e203000000000604482015260640161083b565b5050600c55600190565b6000600080516020612d7c8339815191526110c78133611363565b82516110da90600990602086019061222a565b5060019392505050565b600080516020612d9c8339815191526110fd8133611363565b610c59611a03565b60009182526003602090815260408084206001600160a01b0393909316845291905290205460ff1690565b6060600880546108ca906128fb565b6108b7338383611a7e565b6000600c5434101561119e5760405162461bcd60e51b815260206004820152601f60248201527f496e73756666696369656e742066756e647320666f7220707572636861736500604482015260640161083b565b600b546111ac9060016129ff565b600a54116111cc5760405162461bcd60e51b815260040161083b90612a17565b6111f533600b54600160405180604001604052806002815260200161060f60f31b815250611575565b600b546112039060016119f0565b600b5550600190565b600080516020612dbc8339815191526112258133611363565b600b546112339060016129ff565b600a54116112535760405162461bcd60e51b815260040161083b90612a17565b61127c82600b54600160405180604001604052806002815260200161060f60f31b815250611575565b600b5461128a9060016119f0565b600b555050565b6000828152600360205260409020600101546112ad8133611363565b610bb983836118f6565b6001600160a01b0385163314806112d357506112d3853361076b565b6113315760405162461bcd60e51b815260206004820152602960248201527f455243313135353a2063616c6c6572206973206e6f74206f776e6572206e6f7260448201526808185c1c1c9bdd995960ba1b606482015260840161083b565b610afc8585858585611b5f565b60006001600160e01b03198216637965db0b60e01b148061088f575061088f82611c7c565b61136d8282611105565b6108b757611385816001600160a01b03166014611ccc565b611390836020611ccc565b6040516020016113a1929190612a59565b60408051601f198184030181529082905262461bcd60e51b825261083b9160040161247b565b80516108b790600290602084019061222a565b6060816113fe5750506040805180820190915260018152600360fc1b602082015290565b8160005b81156114285780611412816129ce565b91506114219050600a836129ba565b9150611402565b60008167ffffffffffffffff81111561144357611443612337565b6040519080825280601f01601f19166020018201604052801561146d576020820181803683370190505b5090505b84156114d857611482600183612ace565b915061148f600a86612ae5565b61149a9060306129ff565b60f81b8183815181106114af576114af6129e9565b60200101906001600160f81b031916908160001a9053506114d1600a866129ba565b9450611471565b949350505050565b6001600160a01b03811661154b5760405162461bcd60e51b815260206004820152602c60248201527f526f79616c746965733a206e657720726563697069656e74206973207468652060448201526b7a65726f206164647265737360a01b606482015260840161083b565b600680546001600160a01b03909216620100000262010000600160b01b0319909216919091179055565b6001600160a01b0384166115d55760405162461bcd60e51b815260206004820152602160248201527f455243313135353a206d696e7420746f20746865207a65726f206164647265736044820152607360f81b606482015260840161083b565b336115f5816000876115e688611e68565b6115ef88611e68565b87611eb3565b6000848152602081815260408083206001600160a01b0389168452909152812080548592906116259084906129ff565b909155505060408051858152602081018590526001600160a01b0380881692600092918516917fc3d58168c5ae7397731d063d5bbf3d657854427343f4c083240f7aacaa2d0f62910160405180910390a4610afc81600087878787611f07565b81518351146116e75760405162461bcd60e51b815260206004820152602860248201527f455243313135353a2069647320616e6420616d6f756e7473206c656e677468206044820152670dad2e6dac2e8c6d60c31b606482015260840161083b565b6001600160a01b03841661170d5760405162461bcd60e51b815260040161083b90612af9565b3361171c818787878787611eb3565b60005b845181101561180257600085828151811061173c5761173c6129e9565b60200260200101519050600085838151811061175a5761175a6129e9565b602090810291909101810151600084815280835260408082206001600160a01b038e1683529093529190912054909150818110156117aa5760405162461bcd60e51b815260040161083b90612b3e565b6000838152602081815260408083206001600160a01b038e8116855292528083208585039055908b168252812080548492906117e79084906129ff565b92505081905550505050806117fb906129ce565b905061171f565b50846001600160a01b0316866001600160a01b0316826001600160a01b03167f4a39dc06d4c0dbc64b70af90fd698a233a518aa5d07e595d983b8c0526c8f7fb8787604051611852929190612b88565b60405180910390a4611868818787878787612063565b505050505050565b61187a8282611105565b6108b75760008281526003602090815260408083206001600160a01b03851684529091529020805460ff191660011790556118b23390565b6001600160a01b0316816001600160a01b0316837f2f8788117e7eff1d82e926ec794901d17c78024a50270940304540a733656f0d60405160405180910390a45050565b6119008282611105565b156108b75760008281526003602090815260408083206001600160a01b0385168085529252808320805460ff1916905551339285917ff6391f5c32d9c69d2a47ea670b442974b53935d1edc7fd64eb21e047a839171b9190a45050565b60045460ff166119a65760405162461bcd60e51b815260206004820152601460248201527314185d5cd8589b194e881b9bdd081c185d5cd95960621b604482015260640161083b565b6004805460ff191690557f5db9ee0a495bf2e6ff9c91a7834c1ba4fdd244a5e8aa4e537bd38aeae4b073aa335b6040516001600160a01b03909116815260200160405180910390a1565b60006119fc82846129ff565b9392505050565b60045460ff1615611a495760405162461bcd60e51b815260206004820152601060248201526f14185d5cd8589b194e881c185d5cd95960821b604482015260640161083b565b6004805460ff191660011790557f62e78cea01bee320cd4e420270b5ea74000d11b0c9f74754ebdbfc544b05a2586119d33390565b816001600160a01b0316836001600160a01b03161415611af25760405162461bcd60e51b815260206004820152602960248201527f455243313135353a2073657474696e6720617070726f76616c20737461747573604482015268103337b91039b2b63360b91b606482015260840161083b565b6001600160a01b03838116600081815260016020908152604080832094871680845294825291829020805460ff191686151590811790915591519182527f17307eab39ab6107e8899845ad3d59bd9653f200f220920489ca2b5937696c31910160405180910390a3505050565b6001600160a01b038416611b855760405162461bcd60e51b815260040161083b90612af9565b33611b958187876115e688611e68565b6000848152602081815260408083206001600160a01b038a16845290915290205483811015611bd65760405162461bcd60e51b815260040161083b90612b3e565b6000858152602081815260408083206001600160a01b038b8116855292528083208785039055908816825281208054869290611c139084906129ff565b909155505060408051868152602081018690526001600160a01b03808916928a821692918616917fc3d58168c5ae7397731d063d5bbf3d657854427343f4c083240f7aacaa2d0f62910160405180910390a4611c73828888888888611f07565b50505050505050565b60006001600160e01b03198216636cdb3d1360e11b1480611cad57506001600160e01b031982166303a24d0760e21b145b8061088f57506301ffc9a760e01b6001600160e01b031983161461088f565b60606000611cdb836002612985565b611ce69060026129ff565b67ffffffffffffffff811115611cfe57611cfe612337565b6040519080825280601f01601f191660200182016040528015611d28576020820181803683370190505b509050600360fc1b81600081518110611d4357611d436129e9565b60200101906001600160f81b031916908160001a905350600f60fb1b81600181518110611d7257611d726129e9565b60200101906001600160f81b031916908160001a9053506000611d96846002612985565b611da19060016129ff565b90505b6001811115611e19576f181899199a1a9b1b9c1cb0b131b232b360811b85600f1660108110611dd557611dd56129e9565b1a60f81b828281518110611deb57611deb6129e9565b60200101906001600160f81b031916908160001a90535060049490941c93611e1281612bb6565b9050611da4565b5083156119fc5760405162461bcd60e51b815260206004820181905260248201527f537472696e67733a20686578206c656e67746820696e73756666696369656e74604482015260640161083b565b60408051600180825281830190925260609160009190602080830190803683370190505090508281600081518110611ea257611ea26129e9565b602090810291909101015292915050565b60045460ff1615611ef95760405162461bcd60e51b815260206004820152601060248201526f14185d5cd8589b194e881c185d5cd95960821b604482015260640161083b565b61186886868686868661211e565b6001600160a01b0384163b156118685760405163f23a6e6160e01b81526001600160a01b0385169063f23a6e6190611f4b9089908990889088908890600401612bcd565b6020604051808303816000875af1925050508015611f86575060408051601f3d908101601f19168201909252611f8391810190612c12565b60015b61203357611f92612c2f565b806308c379a01415611fcc5750611fa7612c4b565b80611fb25750611fce565b8060405162461bcd60e51b815260040161083b919061247b565b505b60405162461bcd60e51b815260206004820152603460248201527f455243313135353a207472616e7366657220746f206e6f6e20455243313135356044820152732932b1b2b4bb32b91034b6b83632b6b2b73a32b960611b606482015260840161083b565b6001600160e01b0319811663f23a6e6160e01b14611c735760405162461bcd60e51b815260040161083b90612cd5565b6001600160a01b0384163b156118685760405163bc197c8160e01b81526001600160a01b0385169063bc197c81906120a79089908990889088908890600401612d1d565b6020604051808303816000875af19250505080156120e2575060408051601f3d908101601f191682019092526120df91810190612c12565b60015b6120ee57611f92612c2f565b6001600160e01b0319811663bc197c8160e01b14611c735760405162461bcd60e51b815260040161083b90612cd5565b6001600160a01b0385166121a55760005b83518110156121a35782818151811061214a5761214a6129e9565b602002602001015160056000868481518110612168576121686129e9565b60200260200101518152602001908152602001600020600082825461218d91906129ff565b9091555061219c9050816129ce565b905061212f565b505b6001600160a01b0384166118685760005b8351811015611c73578281815181106121d1576121d16129e9565b6020026020010151600560008684815181106121ef576121ef6129e9565b6020026020010151815260200190815260200160002060008282546122149190612ace565b909155506122239050816129ce565b90506121b6565b828054612236906128fb565b90600052602060002090601f016020900481019282612258576000855561229e565b82601f1061227157805160ff191683800117855561229e565b8280016001018555821561229e579182015b8281111561229e578251825591602001919060010190612283565b506122aa9291506122ae565b5090565b5b808211156122aa57600081556001016122af565b80356001600160a01b0381168114610a3557600080fd5b600080604083850312156122ed57600080fd5b6122f6836122c3565b946020939093013593505050565b6001600160e01b031981168114610c5957600080fd5b60006020828403121561232c57600080fd5b81356119fc81612304565b634e487b7160e01b600052604160045260246000fd5b601f8201601f1916810167ffffffffffffffff8111828210171561237357612373612337565b6040525050565b600082601f83011261238b57600080fd5b813567ffffffffffffffff8111156123a5576123a5612337565b6040516123bc601f8301601f19166020018261234d565b8181528460208386010111156123d157600080fd5b816020850160208301376000918101602001919091529392505050565b60006020828403121561240057600080fd5b813567ffffffffffffffff81111561241757600080fd5b6114d88482850161237a565b60005b8381101561243e578181015183820152602001612426565b8381111561103f5750506000910152565b60008151808452612467816020860160208601612423565b601f01601f19169290920160200192915050565b6020815260006119fc602083018461244f565b6000602082840312156124a057600080fd5b5035919050565b600080604083850312156124ba57600080fd5b50508035926020909101359150565b6000602082840312156124db57600080fd5b6119fc826122c3565b6000806000606084860312156124f957600080fd5b612502846122c3565b95602085013595506040909401359392505050565b600067ffffffffffffffff82111561253157612531612337565b5060051b60200190565b600082601f83011261254c57600080fd5b8135602061255982612517565b604051612566828261234d565b83815260059390931b850182019282810191508684111561258657600080fd5b8286015b848110156125a1578035835291830191830161258a565b509695505050505050565b600080600080600060a086880312156125c457600080fd5b6125cd866122c3565b94506125db602087016122c3565b9350604086013567ffffffffffffffff808211156125f857600080fd5b61260489838a0161253b565b9450606088013591508082111561261a57600080fd5b61262689838a0161253b565b9350608088013591508082111561263c57600080fd5b506126498882890161237a565b9150509295509295909350565b6000806040838503121561266957600080fd5b82359150612679602084016122c3565b90509250929050565b6000806000806080858703121561269857600080fd5b6126a1856122c3565b9350602085013567ffffffffffffffff808211156126be57600080fd5b6126ca8883890161237a565b945060408701359150808211156126e057600080fd5b506126ed8782880161237a565b949793965093946060013593505050565b6000806040838503121561271157600080fd5b823567ffffffffffffffff8082111561272957600080fd5b818501915085601f83011261273d57600080fd5b8135602061274a82612517565b604051612757828261234d565b83815260059390931b850182019282810191508984111561277757600080fd5b948201945b8386101561279c5761278d866122c3565b8252948201949082019061277c565b965050860135925050808211156127b257600080fd5b506127bf8582860161253b565b9150509250929050565b600081518084526020808501945080840160005b838110156127f9578151875295820195908201906001016127dd565b509495945050505050565b6020815260006119fc60208301846127c9565b80358015158114610a3557600080fd5b60006020828403121561283957600080fd5b6119fc82612817565b6000806040838503121561285557600080fd5b61285e836122c3565b915061267960208401612817565b6000806040838503121561287f57600080fd5b612888836122c3565b9150612679602084016122c3565b600080600080600060a086880312156128ae57600080fd5b6128b7866122c3565b94506128c5602087016122c3565b93506040860135925060608601359150608086013567ffffffffffffffff8111156128ef57600080fd5b6126498882890161237a565b600181811c9082168061290f57607f821691505b60208210811415610f3457634e487b7160e01b600052602260045260246000fd5b60008351612942818460208801612423565b835190830190612956818360208801612423565b64173539b7b760d91b9101908152600501949350505050565b634e487b7160e01b600052601160045260246000fd5b600081600019048311821515161561299f5761299f61296f565b500290565b634e487b7160e01b600052601260045260246000fd5b6000826129c9576129c96129a4565b500490565b60006000198214156129e2576129e261296f565b5060010190565b634e487b7160e01b600052603260045260246000fd5b60008219821115612a1257612a1261296f565b500190565b60208082526022908201527f546869732076616c75652065786365656473206d6178696d756d20737570706c604082015261792160f01b606082015260800190565b7f416363657373436f6e74726f6c3a206163636f756e7420000000000000000000815260008351612a91816017850160208801612423565b7001034b99036b4b9b9b4b733903937b6329607d1b6017918401918201528351612ac2816028840160208801612423565b01602801949350505050565b600082821015612ae057612ae061296f565b500390565b600082612af457612af46129a4565b500690565b60208082526025908201527f455243313135353a207472616e7366657220746f20746865207a65726f206164604082015264647265737360d81b606082015260800190565b6020808252602a908201527f455243313135353a20696e73756666696369656e742062616c616e636520666f60408201526939103a3930b739b332b960b11b606082015260800190565b604081526000612b9b60408301856127c9565b8281036020840152612bad81856127c9565b95945050505050565b600081612bc557612bc561296f565b506000190190565b6001600160a01b03868116825285166020820152604081018490526060810183905260a060808201819052600090612c079083018461244f565b979650505050505050565b600060208284031215612c2457600080fd5b81516119fc81612304565b600060033d1115612c485760046000803e5060005160e01c5b90565b600060443d1015612c595790565b6040516003193d81016004833e81513d67ffffffffffffffff8160248401118184111715612c8957505050505090565b8285019150815181811115612ca15750505050505090565b843d8701016020828501011115612cbb5750505050505090565b612cca6020828601018761234d565b509095945050505050565b60208082526028908201527f455243313135353a204552433131353552656365697665722072656a656374656040820152676420746f6b656e7360c01b606082015260800190565b6001600160a01b0386811682528516602082015260a060408201819052600090612d49908301866127c9565b8281036060840152612d5b81866127c9565b90508281036080840152612d6f818561244f565b9897505050505050505056fe7804d923f43a17d325d77e781528e0793b2edd9890ab45fc64efd7b4b427744c65d7a28e3265b37a6474929f336521b332c1681b933f6cb9f3376673440d862a9f2df0fed2c77648de5860a4cc508cd0818c85b8b8a1ab4ceeef8d981c8956a6a264697066735822122024f67a1706f2bc15bc4d77bd559b96cf0d8328fc8dafe70c3ee39ecb70b3ac5d64736f6c634300080a0033",
  "linkReferences": {},
  "deployedLinkReferences": {}
}