{
  "_format": "hh-sol-artifact-1",
  "contractName": "Standard721",
  "sourceName": "contracts/tokens/Standard721.sol",
  "abi": [
    {
      "inputs": [],
      "stateMutability": "nonpayable",
      "type": "constructor"
    },
    {
      "anonymous": false,
      "inputs": [
        {
          "indexed": true,
          "internalType": "address",
          "name": "owner",
          "type": "address"
        },
        {
          "indexed": true,
          "internalType": "address",
          "name": "approved",
          "type": "address"
        },
        {
          "indexed": true,
          "internalType": "uint256",
          "name": "tokenId",
          "type": "uint256"
        }
      ],
      "name": "Approval",
      "type": "event"
    },
    {
      "anonymous": false,
      "inputs": [
        {
          "indexed": true,
          "internalType": "address",
          "name": "owner",
          "type": "address"
        },
        {
          "indexed": true,
          "internalType": "address",
          "name": "operator",
          "type": "address"
        },
        {
          "indexed": false,
          "internalType": "bool",
          "name": "approved",
          "type": "bool"
        }
      ],
      "name": "ApprovalForAll",
      "type": "event"
    },
    {
      "anonymous": false,
      "inputs": [
        {
          "indexed": false,
          "internalType": "address",
          "name": "account",
          "type": "address"
        }
      ],
      "name": "Paused",
      "type": "event"
    },
    {
      "anonymous": false,
      "inputs": [
        {
          "indexed": true,
          "internalType": "bytes32",
          "name": "role",
          "type": "bytes32"
        },
        {
          "indexed": true,
          "internalType": "bytes32",
          "name": "previousAdminRole",
          "type": "bytes32"
        },
        {
          "indexed": true,
          "internalType": "bytes32",
          "name": "newAdminRole",
          "type": "bytes32"
        }
      ],
      "name": "RoleAdminChanged",
      "type": "event"
    },
    {
      "anonymous": false,
      "inputs": [
        {
          "indexed": true,
          "internalType": "bytes32",
          "name": "role",
          "type": "bytes32"
        },
        {
          "indexed": true,
          "internalType": "address",
          "name": "account",
          "type": "address"
        },
        {
          "indexed": true,
          "internalType": "address",
          "name": "sender",
          "type": "address"
        }
      ],
      "name": "RoleGranted",
      "type": "event"
    },
    {
      "anonymous": false,
      "inputs": [
        {
          "indexed": true,
          "internalType": "bytes32",
          "name": "role",
          "type": "bytes32"
        },
        {
          "indexed": true,
          "internalType": "address",
          "name": "account",
          "type": "address"
        },
        {
          "indexed": true,
          "internalType": "address",
          "name": "sender",
          "type": "address"
        }
      ],
      "name": "RoleRevoked",
      "type": "event"
    },
    {
      "anonymous": false,
      "inputs": [
        {
          "indexed": true,
          "internalType": "address",
          "name": "from",
          "type": "address"
        },
        {
          "indexed": true,
          "internalType": "address",
          "name": "to",
          "type": "address"
        },
        {
          "indexed": true,
          "internalType": "uint256",
          "name": "tokenId",
          "type": "uint256"
        }
      ],
      "name": "Transfer",
      "type": "event"
    },
    {
      "anonymous": false,
      "inputs": [
        {
          "indexed": false,
          "internalType": "address",
          "name": "account",
          "type": "address"
        }
      ],
      "name": "Unpaused",
      "type": "event"
    },
    {
      "stateMutability": "payable",
      "type": "fallback"
    },
    {
      "inputs": [],
      "name": "DEFAULT_ADMIN_ROLE",
      "outputs": [
        {
          "internalType": "bytes32",
          "name": "",
          "type": "bytes32"
        }
      ],
      "stateMutability": "view",
      "type": "function"
    },
    {
      "inputs": [],
      "name": "MAX_SUPPLY",
      "outputs": [
        {
          "internalType": "uint256",
          "name": "",
          "type": "uint256"
        }
      ],
      "stateMutability": "view",
      "type": "function"
    },
    {
      "inputs": [],
      "name": "MINTER_ROLE",
      "outputs": [
        {
          "internalType": "bytes32",
          "name": "",
          "type": "bytes32"
        }
      ],
      "stateMutability": "view",
      "type": "function"
    },
    {
      "inputs": [],
      "name": "NFT_PRICE",
      "outputs": [
        {
          "internalType": "uint256",
          "name": "",
          "type": "uint256"
        }
      ],
      "stateMutability": "view",
      "type": "function"
    },
    {
      "inputs": [],
      "name": "PAUSER_ROLE",
      "outputs": [
        {
          "internalType": "bytes32",
          "name": "",
          "type": "bytes32"
        }
      ],
      "stateMutability": "view",
      "type": "function"
    },
    {
      "inputs": [
        {
          "internalType": "address",
          "name": "to",
          "type": "address"
        },
        {
          "internalType": "uint256",
          "name": "tokenId",
          "type": "uint256"
        }
      ],
      "name": "approve",
      "outputs": [],
      "stateMutability": "nonpayable",
      "type": "function"
    },
    {
      "inputs": [
        {
          "internalType": "address",
          "name": "owner",
          "type": "address"
        }
      ],
      "name": "balanceOf",
      "outputs": [
        {
          "internalType": "uint256",
          "name": "",
          "type": "uint256"
        }
      ],
      "stateMutability": "view",
      "type": "function"
    },
    {
      "inputs": [
        {
          "internalType": "uint256",
          "name": "tokenId",
          "type": "uint256"
        }
      ],
      "name": "burn",
      "outputs": [],
      "stateMutability": "nonpayable",
      "type": "function"
    },
    {
      "inputs": [],
      "name": "buyToken",
      "outputs": [
        {
          "internalType": "bool",
          "name": "",
          "type": "bool"
        }
      ],
      "stateMutability": "payable",
      "type": "function"
    },
    {
      "inputs": [
        {
          "internalType": "uint256",
          "name": "tokenId",
          "type": "uint256"
        }
      ],
      "name": "getApproved",
      "outputs": [
        {
          "internalType": "address",
          "name": "",
          "type": "address"
        }
      ],
      "stateMutability": "view",
      "type": "function"
    },
    {
      "inputs": [],
      "name": "getBalance",
      "outputs": [
        {
          "internalType": "uint256",
          "name": "",
          "type": "uint256"
        }
      ],
      "stateMutability": "view",
      "type": "function"
    },
    {
      "inputs": [
        {
          "internalType": "bytes32",
          "name": "role",
          "type": "bytes32"
        }
      ],
      "name": "getRoleAdmin",
      "outputs": [
        {
          "internalType": "bytes32",
          "name": "",
          "type": "bytes32"
        }
      ],
      "stateMutability": "view",
      "type": "function"
    },
    {
      "inputs": [
        {
          "internalType": "bytes32",
          "name": "role",
          "type": "bytes32"
        },
        {
          "internalType": "address",
          "name": "account",
          "type": "address"
        }
      ],
      "name": "grantRole",
      "outputs": [],
      "stateMutability": "nonpayable",
      "type": "function"
    },
    {
      "inputs": [
        {
          "internalType": "bytes32",
          "name": "role",
          "type": "bytes32"
        },
        {
          "internalType": "address",
          "name": "account",
          "type": "address"
        }
      ],
      "name": "hasRole",
      "outputs": [
        {
          "internalType": "bool",
          "name": "",
          "type": "bool"
        }
      ],
      "stateMutability": "view",
      "type": "function"
    },
    {
      "inputs": [
        {
          "internalType": "address",
          "name": "owner_",
          "type": "address"
        },
        {
          "internalType": "string",
          "name": "name_",
          "type": "string"
        },
        {
          "internalType": "string",
          "name": "symbol_",
          "type": "string"
        }
      ],
      "name": "initialize",
      "outputs": [],
      "stateMutability": "nonpayable",
      "type": "function"
    },
    {
      "inputs": [
        {
          "internalType": "address",
          "name": "owner",
          "type": "address"
        },
        {
          "internalType": "address",
          "name": "operator",
          "type": "address"
        }
      ],
      "name": "isApprovedForAll",
      "outputs": [
        {
          "internalType": "bool",
          "name": "",
          "type": "bool"
        }
      ],
      "stateMutability": "view",
      "type": "function"
    },
    {
      "inputs": [
        {
          "internalType": "uint256",
          "name": "tokenId",
          "type": "uint256"
        }
      ],
      "name": "isRevelated",
      "outputs": [
        {
          "internalType": "bool",
          "name": "",
          "type": "bool"
        }
      ],
      "stateMutability": "view",
      "type": "function"
    },
    {
      "inputs": [],
      "name": "name",
      "outputs": [
        {
          "internalType": "string",
          "name": "",
          "type": "string"
        }
      ],
      "stateMutability": "view",
      "type": "function"
    },
    {
      "inputs": [
        {
          "internalType": "uint256",
          "name": "tokenId",
          "type": "uint256"
        }
      ],
      "name": "ownerOf",
      "outputs": [
        {
          "internalType": "address",
          "name": "",
          "type": "address"
        }
      ],
      "stateMutability": "view",
      "type": "function"
    },
    {
      "inputs": [],
      "name": "pause",
      "outputs": [],
      "stateMutability": "nonpayable",
      "type": "function"
    },
    {
      "inputs": [],
      "name": "paused",
      "outputs": [
        {
          "internalType": "bool",
          "name": "",
          "type": "bool"
        }
      ],
      "stateMutability": "view",
      "type": "function"
    },
    {
      "inputs": [
        {
          "internalType": "bytes32",
          "name": "role",
          "type": "bytes32"
        },
        {
          "internalType": "address",
          "name": "account",
          "type": "address"
        }
      ],
      "name": "renounceRole",
      "outputs": [],
      "stateMutability": "nonpayable",
      "type": "function"
    },
    {
      "inputs": [
        {
          "internalType": "bytes32",
          "name": "role",
          "type": "bytes32"
        },
        {
          "internalType": "address",
          "name": "account",
          "type": "address"
        }
      ],
      "name": "revokeRole",
      "outputs": [],
      "stateMutability": "nonpayable",
      "type": "function"
    },
    {
      "inputs": [
        {
          "internalType": "uint256",
          "name": "",
          "type": "uint256"
        },
        {
          "internalType": "uint256",
          "name": "_salePrice",
          "type": "uint256"
        }
      ],
      "name": "royaltyInfo",
      "outputs": [
        {
          "internalType": "address",
          "name": "receiver",
          "type": "address"
        },
        {
          "internalType": "uint256",
          "name": "royaltyAmount",
          "type": "uint256"
        }
      ],
      "stateMutability": "view",
      "type": "function"
    },
    {
      "inputs": [
        {
          "internalType": "address",
          "name": "to",
          "type": "address"
        }
      ],
      "name": "safeMint",
      "outputs": [],
      "stateMutability": "nonpayable",
      "type": "function"
    },
    {
      "inputs": [
        {
          "internalType": "address",
          "name": "from",
          "type": "address"
        },
        {
          "internalType": "address",
          "name": "to",
          "type": "address"
        },
        {
          "internalType": "uint256",
          "name": "tokenId",
          "type": "uint256"
        }
      ],
      "name": "safeTransferFrom",
      "outputs": [],
      "stateMutability": "nonpayable",
      "type": "function"
    },
    {
      "inputs": [
        {
          "internalType": "address",
          "name": "from",
          "type": "address"
        },
        {
          "internalType": "address",
          "name": "to",
          "type": "address"
        },
        {
          "internalType": "uint256",
          "name": "tokenId",
          "type": "uint256"
        },
        {
          "internalType": "bytes",
          "name": "_data",
          "type": "bytes"
        }
      ],
      "name": "safeTransferFrom",
      "outputs": [],
      "stateMutability": "nonpayable",
      "type": "function"
    },
    {
      "inputs": [
        {
          "internalType": "address",
          "name": "operator",
          "type": "address"
        },
        {
          "internalType": "bool",
          "name": "approved",
          "type": "bool"
        }
      ],
      "name": "setApprovalForAll",
      "outputs": [],
      "stateMutability": "nonpayable",
      "type": "function"
    },
    {
      "inputs": [
        {
          "internalType": "string",
          "name": "url_",
          "type": "string"
        }
      ],
      "name": "setDefaultUrl",
      "outputs": [
        {
          "internalType": "bool",
          "name": "",
          "type": "bool"
        }
      ],
      "stateMutability": "nonpayable",
      "type": "function"
    },
    {
      "inputs": [
        {
          "internalType": "uint256",
          "name": "supply",
          "type": "uint256"
        }
      ],
      "name": "setMaxSupply",
      "outputs": [
        {
          "internalType": "bool",
          "name": "",
          "type": "bool"
        }
      ],
      "stateMutability": "nonpayable",
      "type": "function"
    },
    {
      "inputs": [
        {
          "internalType": "uint256",
          "name": "price",
          "type": "uint256"
        }
      ],
      "name": "setNftPrice",
      "outputs": [
        {
          "internalType": "bool",
          "name": "",
          "type": "bool"
        }
      ],
      "stateMutability": "nonpayable",
      "type": "function"
    },
    {
      "inputs": [
        {
          "internalType": "address",
          "name": "_newRecipient",
          "type": "address"
        }
      ],
      "name": "setRoyalties",
      "outputs": [],
      "stateMutability": "nonpayable",
      "type": "function"
    },
    {
      "inputs": [
        {
          "internalType": "string",
          "name": "newuri",
          "type": "string"
        }
      ],
      "name": "setURI",
      "outputs": [],
      "stateMutability": "nonpayable",
      "type": "function"
    },
    {
      "inputs": [
        {
          "internalType": "bytes4",
          "name": "interfaceId",
          "type": "bytes4"
        }
      ],
      "name": "supportsInterface",
      "outputs": [
        {
          "internalType": "bool",
          "name": "",
          "type": "bool"
        }
      ],
      "stateMutability": "view",
      "type": "function"
    },
    {
      "inputs": [],
      "name": "symbol",
      "outputs": [
        {
          "internalType": "string",
          "name": "",
          "type": "string"
        }
      ],
      "stateMutability": "view",
      "type": "function"
    },
    {
      "inputs": [
        {
          "internalType": "uint256",
          "name": "index",
          "type": "uint256"
        }
      ],
      "name": "tokenByIndex",
      "outputs": [
        {
          "internalType": "uint256",
          "name": "",
          "type": "uint256"
        }
      ],
      "stateMutability": "view",
      "type": "function"
    },
    {
      "inputs": [
        {
          "internalType": "address",
          "name": "owner",
          "type": "address"
        },
        {
          "internalType": "uint256",
          "name": "index",
          "type": "uint256"
        }
      ],
      "name": "tokenOfOwnerByIndex",
      "outputs": [
        {
          "internalType": "uint256",
          "name": "",
          "type": "uint256"
        }
      ],
      "stateMutability": "view",
      "type": "function"
    },
    {
      "inputs": [
        {
          "internalType": "uint256",
          "name": "tokenId",
          "type": "uint256"
        }
      ],
      "name": "tokenURI",
      "outputs": [
        {
          "internalType": "string",
          "name": "",
          "type": "string"
        }
      ],
      "stateMutability": "view",
      "type": "function"
    },
    {
      "inputs": [],
      "name": "totalSupply",
      "outputs": [
        {
          "internalType": "uint256",
          "name": "",
          "type": "uint256"
        }
      ],
      "stateMutability": "view",
      "type": "function"
    },
    {
      "inputs": [
        {
          "internalType": "address",
          "name": "from",
          "type": "address"
        },
        {
          "internalType": "address",
          "name": "to",
          "type": "address"
        },
        {
          "internalType": "uint256",
          "name": "tokenId",
          "type": "uint256"
        }
      ],
      "name": "transferFrom",
      "outputs": [],
      "stateMutability": "nonpayable",
      "type": "function"
    },
    {
      "inputs": [],
      "name": "unpause",
      "outputs": [],
      "stateMutability": "nonpayable",
      "type": "function"
    },
    {
      "inputs": [
        {
          "internalType": "address payable",
          "name": "_to",
          "type": "address"
        }
      ],
      "name": "withdraw",
      "outputs": [],
      "stateMutability": "nonpayable",
      "type": "function"
    },
    {
      "stateMutability": "payable",
      "type": "receive"
    }
  ],
  "bytecode": "0x6080604052600d805460ff60b01b1916600560b01b17905566038d7ea4c680006013553480156200002f57600080fd5b50604080516020808201808452600080845284519283019094528382528251929391926200005f92919062000088565b5080516200007590600190602084019062000088565b5050600b805460ff19169055506200016b565b82805462000096906200012e565b90600052602060002090601f016020900481019282620000ba576000855562000105565b82601f10620000d557805160ff191683800117855562000105565b8280016001018555821562000105579182015b8281111562000105578251825591602001919060010190620000e8565b506200011392915062000117565b5090565b5b8082111562000113576000815560010162000118565b600181811c908216806200014357607f821691505b602082108114156200016557634e487b7160e01b600052602260045260246000fd5b50919050565b612dab806200017b6000396000f3fe60806040526004361061023d5760003560e01c80635c975abb1161012d57806395d89b41116100b0578063c87b56dd11610077578063c87b56dd146106b6578063d5391393146106d6578063d547741f1461070a578063e63ab1e91461072a578063e985e9c51461074c578063fcf3b0b11461079557005b806395d89b4114610644578063a217fddf14610659578063a22cb4651461066e578063a48217191461068e578063b88d4fde1461069657005b80637d9a7a4c116100f45780637d9a7a4c146105af57806383a9408a146105cf5780638456cb59146105ef578063906571471461060457806391d148541461062457005b80635c975abb146105215780636352211e14610539578063676dd563146105595780636f8b44b01461056f57806370a082311461058f57005b80632a9e63c6116101c05780633f4ba83a116101875780633f4ba83a1461046c57806340d097c31461048157806342842e0e146104a157806342966c68146104c15780634f6ccce7146104e157806351cff8d91461050157005b80632a9e63c6146103d65780632f2ff15d146103f65780632f745c591461041657806332cb6b0c1461043657806336568abe1461044c57005b806312065fe01161020457806312065fe01461031557806318160ddd1461033257806323b872dd14610347578063248a9ca3146103675780632a55205a1461039757005b806301ffc9a71461024657806302fe53051461027b57806306fdde031461029b578063081812fc146102bd578063095ea7b3146102f557005b3661024457005b005b34801561025257600080fd5b50610266610261366004612654565b6107c5565b60405190151581526020015b60405180910390f35b34801561028757600080fd5b5061024461029636600461271d565b6107f0565b3480156102a757600080fd5b506102b0610814565b60405161027291906127aa565b3480156102c957600080fd5b506102dd6102d83660046127bd565b6108a6565b6040516001600160a01b039091168152602001610272565b34801561030157600080fd5b506102446103103660046127eb565b610940565b34801561032157600080fd5b50475b604051908152602001610272565b34801561033e57600080fd5b50600854610324565b34801561035357600080fd5b50610244610362366004612817565b610a51565b34801561037357600080fd5b506103246103823660046127bd565b6000908152600c602052604090206001015490565b3480156103a357600080fd5b506103b76103b2366004612858565b610a83565b604080516001600160a01b039093168352602083019190915201610272565b3480156103e257600080fd5b506102446103f136600461287a565b610ad3565b34801561040257600080fd5b50610244610411366004612897565b610aec565b34801561042257600080fd5b506103246104313660046127eb565b610b12565b34801561044257600080fd5b5061032460125481565b34801561045857600080fd5b50610244610467366004612897565b610ba8565b34801561047857600080fd5b50610244610c22565b34801561048d57600080fd5b5061024461049c36600461287a565b610c46565b3480156104ad57600080fd5b506102446104bc366004612817565b610cf3565b3480156104cd57600080fd5b506102446104dc3660046127bd565b610d0e565b3480156104ed57600080fd5b506103246104fc3660046127bd565b610d85565b34801561050d57600080fd5b5061024461051c36600461287a565b610e18565b34801561052d57600080fd5b50600b5460ff16610266565b34801561054557600080fd5b506102dd6105543660046127bd565b610eba565b34801561056557600080fd5b5061032460135481565b34801561057b57600080fd5b5061026661058a3660046127bd565b610f31565b34801561059b57600080fd5b506103246105aa36600461287a565b610f9e565b3480156105bb57600080fd5b506102666105ca3660046127bd565b611025565b3480156105db57600080fd5b506102666105ea36600461271d565b61108c565b3480156105fb57600080fd5b506102446110b6565b34801561061057600080fd5b5061024461061f3660046128c7565b6110d7565b34801561063057600080fd5b5061026661063f366004612897565b611208565b34801561065057600080fd5b506102b0611233565b34801561066557600080fd5b50610324600081565b34801561067a57600080fd5b5061024461068936600461293d565b611242565b61026661124d565b3480156106a257600080fd5b506102446106b1366004612970565b61132b565b3480156106c257600080fd5b506102b06106d13660046127bd565b61135d565b3480156106e257600080fd5b506103247f9f2df0fed2c77648de5860a4cc508cd0818c85b8b8a1ab4ceeef8d981c8956a681565b34801561071657600080fd5b50610244610725366004612897565b611441565b34801561073657600080fd5b50610324600080516020612d5683398151915281565b34801561075857600080fd5b506102666107673660046129f0565b6001600160a01b03918216600090815260056020908152604080832093909416825291909152205460ff1690565b3480156107a157600080fd5b506102666107b03660046127bd565b60009081526014602052604090205460ff1690565b60006001600160e01b0319821663152a902d60e11b14806107ea57506107ea82611467565b92915050565b60006107fc813361148c565b815161080f90601090602085019061256f565b505050565b6060600e805461082390612a1e565b80601f016020809104026020016040519081016040528092919081815260200182805461084f90612a1e565b801561089c5780601f106108715761010080835404028352916020019161089c565b820191906000526020600020905b81548152906001019060200180831161087f57829003601f168201915b5050505050905090565b6000818152600260205260408120546001600160a01b03166109245760405162461bcd60e51b815260206004820152602c60248201527f4552433732313a20617070726f76656420717565727920666f72206e6f6e657860448201526b34b9ba32b73a103a37b5b2b760a11b60648201526084015b60405180910390fd5b506000908152600460205260409020546001600160a01b031690565b600061094b82610eba565b9050806001600160a01b0316836001600160a01b031614156109b95760405162461bcd60e51b815260206004820152602160248201527f4552433732313a20617070726f76616c20746f2063757272656e74206f776e656044820152603960f91b606482015260840161091b565b336001600160a01b03821614806109d557506109d58133610767565b610a475760405162461bcd60e51b815260206004820152603860248201527f4552433732313a20617070726f76652063616c6c6572206973206e6f74206f7760448201527f6e6572206e6f7220617070726f76656420666f7220616c6c0000000000000000606482015260840161091b565b61080f83836114f0565b610a5c335b8261155e565b610a785760405162461bcd60e51b815260040161091b90612a53565b61080f838383611655565b600d5460009081906201000081046001600160a01b03169061271090610ab390600160b01b900460ff1686612aba565b610abe906064612aba565b610ac89190612aef565b915091509250929050565b6000610adf813361148c565b610ae8826117fc565b5050565b6000828152600c6020526040902060010154610b08813361148c565b61080f8383611891565b6000610b1d83610f9e565b8210610b7f5760405162461bcd60e51b815260206004820152602b60248201527f455243373231456e756d657261626c653a206f776e657220696e646578206f7560448201526a74206f6620626f756e647360a81b606482015260840161091b565b506001600160a01b03919091166000908152600660209081526040808320938352929052205490565b6001600160a01b0381163314610c185760405162461bcd60e51b815260206004820152602f60248201527f416363657373436f6e74726f6c3a2063616e206f6e6c792072656e6f756e636560448201526e103937b632b9903337b91039b2b63360891b606482015260840161091b565b610ae88282611917565b600080516020612d56833981519152610c3b813361148c565b610c4361197e565b50565b7f9f2df0fed2c77648de5860a4cc508cd0818c85b8b8a1ab4ceeef8d981c8956a6610c71813361148c565b6000610c7c60155490565b9050610c89816001612b03565b60125411610ca95760405162461bcd60e51b815260040161091b90612b1b565b6000818152601460205260409020805460ff19166001179055610cd0601580546001019055565b610cda8382611a11565b61080f8160405180602001604052806000815250611a2b565b61080f8383836040518060200160405280600081525061132b565b610d1733610a56565b610d7c5760405162461bcd60e51b815260206004820152603060248201527f4552433732314275726e61626c653a2063616c6c6572206973206e6f74206f7760448201526f1b995c881b9bdc88185c1c1c9bdd995960821b606482015260840161091b565b610c4381611ac5565b6000610d9060085490565b8210610df35760405162461bcd60e51b815260206004820152602c60248201527f455243373231456e756d657261626c653a20676c6f62616c20696e646578206f60448201526b7574206f6620626f756e647360a01b606482015260840161091b565b60088281548110610e0657610e06612b5d565b90600052602060002001549050919050565b6000610e24813361148c565b60006001600160a01b03831647604051600081818185875af1925050503d8060008114610e6d576040519150601f19603f3d011682016040523d82523d6000602084013e610e72565b606091505b505090508061080f5760405162461bcd60e51b81526020600482015260146024820152732330b4b632b2103a379039b2b7321022ba3432b960611b604482015260640161091b565b6000818152600260205260408120546001600160a01b0316806107ea5760405162461bcd60e51b815260206004820152602960248201527f4552433732313a206f776e657220717565727920666f72206e6f6e657869737460448201526832b73a103a37b5b2b760b91b606482015260840161091b565b600080610f3e813361148c565b60008311610f8e5760405162461bcd60e51b815260206004820152601d60248201527f537570706c79206d7573742062652067726561746572207468616e2030000000604482015260640161091b565b6012839055600191505b50919050565b60006001600160a01b0382166110095760405162461bcd60e51b815260206004820152602a60248201527f4552433732313a2062616c616e636520717565727920666f7220746865207a65604482015269726f206164647265737360b01b606482015260840161091b565b506001600160a01b031660009081526003602052604090205490565b600080611032813361148c565b600083116110825760405162461bcd60e51b815260206004820152601c60248201527f5072696365206d7573742062652067726561746572207468616e203000000000604482015260640161091b565b5050601355600190565b600080611099813361148c565b82516110ac90601190602086019061256f565b5060019392505050565b600080516020612d568339815191526110cf813361148c565b610c43611ace565b600d54610100900460ff166110f257600d5460ff16156110f6565b303b155b6111595760405162461bcd60e51b815260206004820152602e60248201527f496e697469616c697a61626c653a20636f6e747261637420697320616c72656160448201526d191e481a5b9a5d1a585b1a5e995960921b606482015260840161091b565b600d54610100900460ff1615801561117b57600d805461ffff19166101011790555b825161118e90600e90602086019061256f565b5081516111a290600f90602085019061256f565b506111ae600085611891565b6111c6600080516020612d5683398151915285611891565b6111f07f9f2df0fed2c77648de5860a4cc508cd0818c85b8b8a1ab4ceeef8d981c8956a685611891565b801561120257600d805461ff00191690555b50505050565b6000918252600c602090815260408084206001600160a01b0393909316845291905290205460ff1690565b6060600f805461082390612a1e565b610ae8338383611b49565b60006013543410156112a15760405162461bcd60e51b815260206004820152601f60248201527f496e73756666696369656e742066756e647320666f7220707572636861736500604482015260640161091b565b60006112ac60155490565b90506112b9816001612b03565b601254116112d95760405162461bcd60e51b815260040161091b90612b1b565b6000818152601460205260409020805460ff19166001179055611300601580546001019055565b61130a3382611a11565b6113238160405180602001604052806000815250611a2b565b600191505090565b611335338361155e565b6113515760405162461bcd60e51b815260040161091b90612a53565b61120284848484611c18565b60008181526014602052604090205460609060ff16156113af5761137f611c4b565b61138883611c5a565b604051602001611399929190612b73565b6040516020818303038152906040529050919050565b601180546113bc90612a1e565b80601f01602080910402602001604051908101604052809291908181526020018280546113e890612a1e565b80156114355780601f1061140a57610100808354040283529160200191611435565b820191906000526020600020905b81548152906001019060200180831161141857829003601f168201915b50505050509050919050565b6000828152600c602052604090206001015461145d813361148c565b61080f8383611917565b60006001600160e01b03198216637965db0b60e01b14806107ea57506107ea82611d58565b6114968282611208565b610ae8576114ae816001600160a01b03166014611d7d565b6114b9836020611d7d565b6040516020016114ca929190612bc1565b60408051601f198184030181529082905262461bcd60e51b825261091b916004016127aa565b600081815260046020526040902080546001600160a01b0319166001600160a01b038416908117909155819061152582610eba565b6001600160a01b03167f8c5be1e5ebec7d5bd14f71427d1e84f3dd0314c0f7b2291e5b200ac8c7c3b92560405160405180910390a45050565b6000818152600260205260408120546001600160a01b03166115d75760405162461bcd60e51b815260206004820152602c60248201527f4552433732313a206f70657261746f7220717565727920666f72206e6f6e657860448201526b34b9ba32b73a103a37b5b2b760a11b606482015260840161091b565b60006115e283610eba565b9050806001600160a01b0316846001600160a01b0316148061161d5750836001600160a01b0316611612846108a6565b6001600160a01b0316145b8061164d57506001600160a01b0380821660009081526005602090815260408083209388168352929052205460ff165b949350505050565b826001600160a01b031661166882610eba565b6001600160a01b0316146116cc5760405162461bcd60e51b815260206004820152602560248201527f4552433732313a207472616e736665722066726f6d20696e636f72726563742060448201526437bbb732b960d91b606482015260840161091b565b6001600160a01b03821661172e5760405162461bcd60e51b8152602060048201526024808201527f4552433732313a207472616e7366657220746f20746865207a65726f206164646044820152637265737360e01b606482015260840161091b565b611739838383611f20565b6117446000826114f0565b6001600160a01b038316600090815260036020526040812080546001929061176d908490612c36565b90915550506001600160a01b038216600090815260036020526040812080546001929061179b908490612b03565b909155505060008181526002602052604080822080546001600160a01b0319166001600160a01b0386811691821790925591518493918716917fddf252ad1be2c89b69c2b068fc378daa952ba7f163c4a11628f55a4df523b3ef91a4505050565b6001600160a01b0381166118675760405162461bcd60e51b815260206004820152602c60248201527f526f79616c746965733a206e657720726563697069656e74206973207468652060448201526b7a65726f206164647265737360a01b606482015260840161091b565b600d80546001600160a01b03909216620100000262010000600160b01b0319909216919091179055565b61189b8282611208565b610ae8576000828152600c602090815260408083206001600160a01b03851684529091529020805460ff191660011790556118d33390565b6001600160a01b0316816001600160a01b0316837f2f8788117e7eff1d82e926ec794901d17c78024a50270940304540a733656f0d60405160405180910390a45050565b6119218282611208565b15610ae8576000828152600c602090815260408083206001600160a01b0385168085529252808320805460ff1916905551339285917ff6391f5c32d9c69d2a47ea670b442974b53935d1edc7fd64eb21e047a839171b9190a45050565b600b5460ff166119c75760405162461bcd60e51b815260206004820152601460248201527314185d5cd8589b194e881b9bdd081c185d5cd95960621b604482015260640161091b565b600b805460ff191690557f5db9ee0a495bf2e6ff9c91a7834c1ba4fdd244a5e8aa4e537bd38aeae4b073aa335b6040516001600160a01b03909116815260200160405180910390a1565b610ae8828260405180602001604052806000815250611f71565b6000828152600260205260409020546001600160a01b0316611aa65760405162461bcd60e51b815260206004820152602e60248201527f45524337323155524953746f726167653a2055524920736574206f66206e6f6e60448201526d32bc34b9ba32b73a103a37b5b2b760911b606482015260840161091b565b6000828152600a60209081526040909120825161080f9284019061256f565b610c4381611fa4565b600b5460ff1615611b145760405162461bcd60e51b815260206004820152601060248201526f14185d5cd8589b194e881c185d5cd95960821b604482015260640161091b565b600b805460ff191660011790557f62e78cea01bee320cd4e420270b5ea74000d11b0c9f74754ebdbfc544b05a2586119f43390565b816001600160a01b0316836001600160a01b03161415611bab5760405162461bcd60e51b815260206004820152601960248201527f4552433732313a20617070726f766520746f2063616c6c657200000000000000604482015260640161091b565b6001600160a01b03838116600081815260056020908152604080832094871680845294825291829020805460ff191686151590811790915591519182527f17307eab39ab6107e8899845ad3d59bd9653f200f220920489ca2b5937696c31910160405180910390a3505050565b611c23848484611655565b611c2f84848484611fe4565b6112025760405162461bcd60e51b815260040161091b90612c4d565b60606010805461082390612a1e565b606081611c7e5750506040805180820190915260018152600360fc1b602082015290565b8160005b8115611ca85780611c9281612c9f565b9150611ca19050600a83612aef565b9150611c82565b60008167ffffffffffffffff811115611cc357611cc3612671565b6040519080825280601f01601f191660200182016040528015611ced576020820181803683370190505b5090505b841561164d57611d02600183612c36565b9150611d0f600a86612cba565b611d1a906030612b03565b60f81b818381518110611d2f57611d2f612b5d565b60200101906001600160f81b031916908160001a905350611d51600a86612aef565b9450611cf1565b60006001600160e01b0319821663780e9d6360e01b14806107ea57506107ea826120e2565b60606000611d8c836002612aba565b611d97906002612b03565b67ffffffffffffffff811115611daf57611daf612671565b6040519080825280601f01601f191660200182016040528015611dd9576020820181803683370190505b509050600360fc1b81600081518110611df457611df4612b5d565b60200101906001600160f81b031916908160001a905350600f60fb1b81600181518110611e2357611e23612b5d565b60200101906001600160f81b031916908160001a9053506000611e47846002612aba565b611e52906001612b03565b90505b6001811115611eca576f181899199a1a9b1b9c1cb0b131b232b360811b85600f1660108110611e8657611e86612b5d565b1a60f81b828281518110611e9c57611e9c612b5d565b60200101906001600160f81b031916908160001a90535060049490941c93611ec381612cce565b9050611e55565b508315611f195760405162461bcd60e51b815260206004820181905260248201527f537472696e67733a20686578206c656e67746820696e73756666696369656e74604482015260640161091b565b9392505050565b600b5460ff1615611f665760405162461bcd60e51b815260206004820152601060248201526f14185d5cd8589b194e881c185d5cd95960821b604482015260640161091b565b61080f838383612132565b611f7b83836121ea565b611f886000848484611fe4565b61080f5760405162461bcd60e51b815260040161091b90612c4d565b611fad81612338565b6000818152600a602052604090208054611fc690612a1e565b159050610c43576000818152600a60205260408120610c43916125f3565b60006001600160a01b0384163b156120d757604051630a85bd0160e11b81526001600160a01b0385169063150b7a0290612028903390899088908890600401612ce5565b6020604051808303816000875af1925050508015612063575060408051601f3d908101601f1916820190925261206091810190612d22565b60015b6120bd573d808015612091576040519150601f19603f3d011682016040523d82523d6000602084013e612096565b606091505b5080516120b55760405162461bcd60e51b815260040161091b90612c4d565b805181602001fd5b6001600160e01b031916630a85bd0160e11b14905061164d565b506001949350505050565b60006001600160e01b031982166380ac58cd60e01b148061211357506001600160e01b03198216635b5e139f60e01b145b806107ea57506301ffc9a760e01b6001600160e01b03198316146107ea565b6001600160a01b03831661218d5761218881600880546000838152600960205260408120829055600182018355919091527ff3f7a9fe364faab93b216da50a3214154f22a0a2b415b23a84c8169e8b636ee30155565b6121b0565b816001600160a01b0316836001600160a01b0316146121b0576121b083826123df565b6001600160a01b0382166121c75761080f8161247c565b826001600160a01b0316826001600160a01b03161461080f5761080f828261252b565b6001600160a01b0382166122405760405162461bcd60e51b815260206004820181905260248201527f4552433732313a206d696e7420746f20746865207a65726f2061646472657373604482015260640161091b565b6000818152600260205260409020546001600160a01b0316156122a55760405162461bcd60e51b815260206004820152601c60248201527f4552433732313a20746f6b656e20616c7265616479206d696e74656400000000604482015260640161091b565b6122b160008383611f20565b6001600160a01b03821660009081526003602052604081208054600192906122da908490612b03565b909155505060008181526002602052604080822080546001600160a01b0319166001600160a01b03861690811790915590518392907fddf252ad1be2c89b69c2b068fc378daa952ba7f163c4a11628f55a4df523b3ef908290a45050565b600061234382610eba565b905061235181600084611f20565b61235c6000836114f0565b6001600160a01b0381166000908152600360205260408120805460019290612385908490612c36565b909155505060008281526002602052604080822080546001600160a01b0319169055518391906001600160a01b038416907fddf252ad1be2c89b69c2b068fc378daa952ba7f163c4a11628f55a4df523b3ef908390a45050565b600060016123ec84610f9e565b6123f69190612c36565b600083815260076020526040902054909150808214612449576001600160a01b03841660009081526006602090815260408083208584528252808320548484528184208190558352600790915290208190555b5060009182526007602090815260408084208490556001600160a01b039094168352600681528383209183525290812055565b60085460009061248e90600190612c36565b600083815260096020526040812054600880549394509092849081106124b6576124b6612b5d565b9060005260206000200154905080600883815481106124d7576124d7612b5d565b600091825260208083209091019290925582815260099091526040808220849055858252812055600880548061250f5761250f612d3f565b6001900381819060005260206000200160009055905550505050565b600061253683610f9e565b6001600160a01b039093166000908152600660209081526040808320868452825280832085905593825260079052919091209190915550565b82805461257b90612a1e565b90600052602060002090601f01602090048101928261259d57600085556125e3565b82601f106125b657805160ff19168380011785556125e3565b828001600101855582156125e3579182015b828111156125e35782518255916020019190600101906125c8565b506125ef929150612629565b5090565b5080546125ff90612a1e565b6000825580601f1061260f575050565b601f016020900490600052602060002090810190610c4391905b5b808211156125ef576000815560010161262a565b6001600160e01b031981168114610c4357600080fd5b60006020828403121561266657600080fd5b8135611f198161263e565b634e487b7160e01b600052604160045260246000fd5b600067ffffffffffffffff808411156126a2576126a2612671565b604051601f8501601f19908116603f011681019082821181831017156126ca576126ca612671565b816040528093508581528686860111156126e357600080fd5b858560208301376000602087830101525050509392505050565b600082601f83011261270e57600080fd5b611f1983833560208501612687565b60006020828403121561272f57600080fd5b813567ffffffffffffffff81111561274657600080fd5b61164d848285016126fd565b60005b8381101561276d578181015183820152602001612755565b838111156112025750506000910152565b60008151808452612796816020860160208601612752565b601f01601f19169290920160200192915050565b602081526000611f19602083018461277e565b6000602082840312156127cf57600080fd5b5035919050565b6001600160a01b0381168114610c4357600080fd5b600080604083850312156127fe57600080fd5b8235612809816127d6565b946020939093013593505050565b60008060006060848603121561282c57600080fd5b8335612837816127d6565b92506020840135612847816127d6565b929592945050506040919091013590565b6000806040838503121561286b57600080fd5b50508035926020909101359150565b60006020828403121561288c57600080fd5b8135611f19816127d6565b600080604083850312156128aa57600080fd5b8235915060208301356128bc816127d6565b809150509250929050565b6000806000606084860312156128dc57600080fd5b83356128e7816127d6565b9250602084013567ffffffffffffffff8082111561290457600080fd5b612910878388016126fd565b9350604086013591508082111561292657600080fd5b50612933868287016126fd565b9150509250925092565b6000806040838503121561295057600080fd5b823561295b816127d6565b9150602083013580151581146128bc57600080fd5b6000806000806080858703121561298657600080fd5b8435612991816127d6565b935060208501356129a1816127d6565b925060408501359150606085013567ffffffffffffffff8111156129c457600080fd5b8501601f810187136129d557600080fd5b6129e487823560208401612687565b91505092959194509250565b60008060408385031215612a0357600080fd5b8235612a0e816127d6565b915060208301356128bc816127d6565b600181811c90821680612a3257607f821691505b60208210811415610f9857634e487b7160e01b600052602260045260246000fd5b60208082526031908201527f4552433732313a207472616e736665722063616c6c6572206973206e6f74206f6040820152701ddb995c881b9bdc88185c1c1c9bdd9959607a1b606082015260800190565b634e487b7160e01b600052601160045260246000fd5b6000816000190483118215151615612ad457612ad4612aa4565b500290565b634e487b7160e01b600052601260045260246000fd5b600082612afe57612afe612ad9565b500490565b60008219821115612b1657612b16612aa4565b500190565b60208082526022908201527f546869732076616c75652065786365656473206d6178696d756d20737570706c604082015261792160f01b606082015260800190565b634e487b7160e01b600052603260045260246000fd5b60008351612b85818460208801612752565b602f60f81b9083019081528351612ba3816001840160208801612752565b64173539b7b760d91b60019290910191820152600601949350505050565b7f416363657373436f6e74726f6c3a206163636f756e7420000000000000000000815260008351612bf9816017850160208801612752565b7001034b99036b4b9b9b4b733903937b6329607d1b6017918401918201528351612c2a816028840160208801612752565b01602801949350505050565b600082821015612c4857612c48612aa4565b500390565b60208082526032908201527f4552433732313a207472616e7366657220746f206e6f6e20455243373231526560408201527131b2b4bb32b91034b6b83632b6b2b73a32b960711b606082015260800190565b6000600019821415612cb357612cb3612aa4565b5060010190565b600082612cc957612cc9612ad9565b500690565b600081612cdd57612cdd612aa4565b506000190190565b6001600160a01b0385811682528416602082015260408101839052608060608201819052600090612d189083018461277e565b9695505050505050565b600060208284031215612d3457600080fd5b8151611f198161263e565b634e487b7160e01b600052603160045260246000fdfe65d7a28e3265b37a6474929f336521b332c1681b933f6cb9f3376673440d862aa2646970667358221220da118ad0179a5a1d92a4f51c1fd08ee13a3522a07c1332f744b280d241ca927564736f6c634300080a0033",
  "linkReferences": {},
  "deployedLinkReferences": {}
}