{
  "_format": "hh-sol-artifact-1",
  "contractName": "Standard721",
  "sourceName": "contracts/tokens/Standard721.sol",
  "abi": [
    {
      "inputs": [],
      "stateMutability": "nonpayable",
      "type": "constructor"
    },
    {
      "anonymous": false,
      "inputs": [
        {
          "indexed": true,
          "internalType": "address",
          "name": "owner",
          "type": "address"
        },
        {
          "indexed": true,
          "internalType": "address",
          "name": "approved",
          "type": "address"
        },
        {
          "indexed": true,
          "internalType": "uint256",
          "name": "tokenId",
          "type": "uint256"
        }
      ],
      "name": "Approval",
      "type": "event"
    },
    {
      "anonymous": false,
      "inputs": [
        {
          "indexed": true,
          "internalType": "address",
          "name": "owner",
          "type": "address"
        },
        {
          "indexed": true,
          "internalType": "address",
          "name": "operator",
          "type": "address"
        },
        {
          "indexed": false,
          "internalType": "bool",
          "name": "approved",
          "type": "bool"
        }
      ],
      "name": "ApprovalForAll",
      "type": "event"
    },
    {
      "anonymous": false,
      "inputs": [
        {
          "indexed": false,
          "internalType": "address",
          "name": "account",
          "type": "address"
        }
      ],
      "name": "Paused",
      "type": "event"
    },
    {
      "anonymous": false,
      "inputs": [
        {
          "indexed": true,
          "internalType": "bytes32",
          "name": "role",
          "type": "bytes32"
        },
        {
          "indexed": true,
          "internalType": "bytes32",
          "name": "previousAdminRole",
          "type": "bytes32"
        },
        {
          "indexed": true,
          "internalType": "bytes32",
          "name": "newAdminRole",
          "type": "bytes32"
        }
      ],
      "name": "RoleAdminChanged",
      "type": "event"
    },
    {
      "anonymous": false,
      "inputs": [
        {
          "indexed": true,
          "internalType": "bytes32",
          "name": "role",
          "type": "bytes32"
        },
        {
          "indexed": true,
          "internalType": "address",
          "name": "account",
          "type": "address"
        },
        {
          "indexed": true,
          "internalType": "address",
          "name": "sender",
          "type": "address"
        }
      ],
      "name": "RoleGranted",
      "type": "event"
    },
    {
      "anonymous": false,
      "inputs": [
        {
          "indexed": true,
          "internalType": "bytes32",
          "name": "role",
          "type": "bytes32"
        },
        {
          "indexed": true,
          "internalType": "address",
          "name": "account",
          "type": "address"
        },
        {
          "indexed": true,
          "internalType": "address",
          "name": "sender",
          "type": "address"
        }
      ],
      "name": "RoleRevoked",
      "type": "event"
    },
    {
      "anonymous": false,
      "inputs": [
        {
          "indexed": true,
          "internalType": "address",
          "name": "from",
          "type": "address"
        },
        {
          "indexed": true,
          "internalType": "address",
          "name": "to",
          "type": "address"
        },
        {
          "indexed": true,
          "internalType": "uint256",
          "name": "tokenId",
          "type": "uint256"
        }
      ],
      "name": "Transfer",
      "type": "event"
    },
    {
      "anonymous": false,
      "inputs": [
        {
          "indexed": false,
          "internalType": "address",
          "name": "account",
          "type": "address"
        }
      ],
      "name": "Unpaused",
      "type": "event"
    },
    {
      "inputs": [],
      "name": "DEFAULT_ADMIN_ROLE",
      "outputs": [
        {
          "internalType": "bytes32",
          "name": "",
          "type": "bytes32"
        }
      ],
      "stateMutability": "view",
      "type": "function"
    },
    {
      "inputs": [],
      "name": "MINTER_ROLE",
      "outputs": [
        {
          "internalType": "bytes32",
          "name": "",
          "type": "bytes32"
        }
      ],
      "stateMutability": "view",
      "type": "function"
    },
    {
      "inputs": [],
      "name": "PAUSER_ROLE",
      "outputs": [
        {
          "internalType": "bytes32",
          "name": "",
          "type": "bytes32"
        }
      ],
      "stateMutability": "view",
      "type": "function"
    },
    {
      "inputs": [
        {
          "internalType": "address",
          "name": "to",
          "type": "address"
        },
        {
          "internalType": "uint256",
          "name": "tokenId",
          "type": "uint256"
        }
      ],
      "name": "approve",
      "outputs": [],
      "stateMutability": "nonpayable",
      "type": "function"
    },
    {
      "inputs": [
        {
          "internalType": "address",
          "name": "owner",
          "type": "address"
        }
      ],
      "name": "balanceOf",
      "outputs": [
        {
          "internalType": "uint256",
          "name": "",
          "type": "uint256"
        }
      ],
      "stateMutability": "view",
      "type": "function"
    },
    {
      "inputs": [
        {
          "internalType": "uint256",
          "name": "tokenId",
          "type": "uint256"
        }
      ],
      "name": "burn",
      "outputs": [],
      "stateMutability": "nonpayable",
      "type": "function"
    },
    {
      "inputs": [
        {
          "internalType": "uint256",
          "name": "tokenId",
          "type": "uint256"
        }
      ],
      "name": "getApproved",
      "outputs": [
        {
          "internalType": "address",
          "name": "",
          "type": "address"
        }
      ],
      "stateMutability": "view",
      "type": "function"
    },
    {
      "inputs": [
        {
          "internalType": "bytes32",
          "name": "role",
          "type": "bytes32"
        }
      ],
      "name": "getRoleAdmin",
      "outputs": [
        {
          "internalType": "bytes32",
          "name": "",
          "type": "bytes32"
        }
      ],
      "stateMutability": "view",
      "type": "function"
    },
    {
      "inputs": [
        {
          "internalType": "bytes32",
          "name": "role",
          "type": "bytes32"
        },
        {
          "internalType": "address",
          "name": "account",
          "type": "address"
        }
      ],
      "name": "grantRole",
      "outputs": [],
      "stateMutability": "nonpayable",
      "type": "function"
    },
    {
      "inputs": [
        {
          "internalType": "bytes32",
          "name": "role",
          "type": "bytes32"
        },
        {
          "internalType": "address",
          "name": "account",
          "type": "address"
        }
      ],
      "name": "hasRole",
      "outputs": [
        {
          "internalType": "bool",
          "name": "",
          "type": "bool"
        }
      ],
      "stateMutability": "view",
      "type": "function"
    },
    {
      "inputs": [
        {
          "internalType": "address",
          "name": "owner_",
          "type": "address"
        },
        {
          "internalType": "string",
          "name": "name_",
          "type": "string"
        },
        {
          "internalType": "string",
          "name": "symbol_",
          "type": "string"
        }
      ],
      "name": "initialize",
      "outputs": [],
      "stateMutability": "nonpayable",
      "type": "function"
    },
    {
      "inputs": [
        {
          "internalType": "address",
          "name": "owner",
          "type": "address"
        },
        {
          "internalType": "address",
          "name": "operator",
          "type": "address"
        }
      ],
      "name": "isApprovedForAll",
      "outputs": [
        {
          "internalType": "bool",
          "name": "",
          "type": "bool"
        }
      ],
      "stateMutability": "view",
      "type": "function"
    },
    {
      "inputs": [],
      "name": "name",
      "outputs": [
        {
          "internalType": "string",
          "name": "",
          "type": "string"
        }
      ],
      "stateMutability": "view",
      "type": "function"
    },
    {
      "inputs": [
        {
          "internalType": "uint256",
          "name": "tokenId",
          "type": "uint256"
        }
      ],
      "name": "ownerOf",
      "outputs": [
        {
          "internalType": "address",
          "name": "",
          "type": "address"
        }
      ],
      "stateMutability": "view",
      "type": "function"
    },
    {
      "inputs": [],
      "name": "pause",
      "outputs": [],
      "stateMutability": "nonpayable",
      "type": "function"
    },
    {
      "inputs": [],
      "name": "paused",
      "outputs": [
        {
          "internalType": "bool",
          "name": "",
          "type": "bool"
        }
      ],
      "stateMutability": "view",
      "type": "function"
    },
    {
      "inputs": [
        {
          "internalType": "bytes32",
          "name": "role",
          "type": "bytes32"
        },
        {
          "internalType": "address",
          "name": "account",
          "type": "address"
        }
      ],
      "name": "renounceRole",
      "outputs": [],
      "stateMutability": "nonpayable",
      "type": "function"
    },
    {
      "inputs": [
        {
          "internalType": "bytes32",
          "name": "role",
          "type": "bytes32"
        },
        {
          "internalType": "address",
          "name": "account",
          "type": "address"
        }
      ],
      "name": "revokeRole",
      "outputs": [],
      "stateMutability": "nonpayable",
      "type": "function"
    },
    {
      "inputs": [
        {
          "internalType": "address",
          "name": "to",
          "type": "address"
        },
        {
          "internalType": "string",
          "name": "uri",
          "type": "string"
        }
      ],
      "name": "safeMint",
      "outputs": [],
      "stateMutability": "nonpayable",
      "type": "function"
    },
    {
      "inputs": [
        {
          "internalType": "address",
          "name": "from",
          "type": "address"
        },
        {
          "internalType": "address",
          "name": "to",
          "type": "address"
        },
        {
          "internalType": "uint256",
          "name": "tokenId",
          "type": "uint256"
        }
      ],
      "name": "safeTransferFrom",
      "outputs": [],
      "stateMutability": "nonpayable",
      "type": "function"
    },
    {
      "inputs": [
        {
          "internalType": "address",
          "name": "from",
          "type": "address"
        },
        {
          "internalType": "address",
          "name": "to",
          "type": "address"
        },
        {
          "internalType": "uint256",
          "name": "tokenId",
          "type": "uint256"
        },
        {
          "internalType": "bytes",
          "name": "_data",
          "type": "bytes"
        }
      ],
      "name": "safeTransferFrom",
      "outputs": [],
      "stateMutability": "nonpayable",
      "type": "function"
    },
    {
      "inputs": [
        {
          "internalType": "address",
          "name": "operator",
          "type": "address"
        },
        {
          "internalType": "bool",
          "name": "approved",
          "type": "bool"
        }
      ],
      "name": "setApprovalForAll",
      "outputs": [],
      "stateMutability": "nonpayable",
      "type": "function"
    },
    {
      "inputs": [
        {
          "internalType": "string",
          "name": "newuri",
          "type": "string"
        }
      ],
      "name": "setURI",
      "outputs": [],
      "stateMutability": "nonpayable",
      "type": "function"
    },
    {
      "inputs": [
        {
          "internalType": "bytes4",
          "name": "interfaceId",
          "type": "bytes4"
        }
      ],
      "name": "supportsInterface",
      "outputs": [
        {
          "internalType": "bool",
          "name": "",
          "type": "bool"
        }
      ],
      "stateMutability": "view",
      "type": "function"
    },
    {
      "inputs": [],
      "name": "symbol",
      "outputs": [
        {
          "internalType": "string",
          "name": "",
          "type": "string"
        }
      ],
      "stateMutability": "view",
      "type": "function"
    },
    {
      "inputs": [
        {
          "internalType": "uint256",
          "name": "index",
          "type": "uint256"
        }
      ],
      "name": "tokenByIndex",
      "outputs": [
        {
          "internalType": "uint256",
          "name": "",
          "type": "uint256"
        }
      ],
      "stateMutability": "view",
      "type": "function"
    },
    {
      "inputs": [
        {
          "internalType": "address",
          "name": "owner",
          "type": "address"
        },
        {
          "internalType": "uint256",
          "name": "index",
          "type": "uint256"
        }
      ],
      "name": "tokenOfOwnerByIndex",
      "outputs": [
        {
          "internalType": "uint256",
          "name": "",
          "type": "uint256"
        }
      ],
      "stateMutability": "view",
      "type": "function"
    },
    {
      "inputs": [
        {
          "internalType": "uint256",
          "name": "tokenId",
          "type": "uint256"
        }
      ],
      "name": "tokenURI",
      "outputs": [
        {
          "internalType": "string",
          "name": "",
          "type": "string"
        }
      ],
      "stateMutability": "view",
      "type": "function"
    },
    {
      "inputs": [],
      "name": "totalSupply",
      "outputs": [
        {
          "internalType": "uint256",
          "name": "",
          "type": "uint256"
        }
      ],
      "stateMutability": "view",
      "type": "function"
    },
    {
      "inputs": [
        {
          "internalType": "address",
          "name": "from",
          "type": "address"
        },
        {
          "internalType": "address",
          "name": "to",
          "type": "address"
        },
        {
          "internalType": "uint256",
          "name": "tokenId",
          "type": "uint256"
        }
      ],
      "name": "transferFrom",
      "outputs": [],
      "stateMutability": "nonpayable",
      "type": "function"
    },
    {
      "inputs": [],
      "name": "unpause",
      "outputs": [],
      "stateMutability": "nonpayable",
      "type": "function"
    }
  ],
  "bytecode": "0x60806040523480156200001157600080fd5b5060408051602080820180845260008084528451928301909452838252825192939192620000419291906200006a565b508051620000579060019060208401906200006a565b5050600b805460ff19169055506200014d565b828054620000789062000110565b90600052602060002090601f0160209004810192826200009c5760008555620000e7565b82601f10620000b757805160ff1916838001178555620000e7565b82800160010185558215620000e7579182015b82811115620000e7578251825591602001919060010190620000ca565b50620000f5929150620000f9565b5090565b5b80821115620000f55760008155600101620000fa565b600181811c908216806200012557607f821691505b602082108114156200014757634e487b7160e01b600052602260045260246000fd5b50919050565b612785806200015d6000396000f3fe608060405234801561001057600080fd5b50600436106101e55760003560e01c80635c975abb1161010f578063a22cb465116100a2578063d539139311610071578063d5391393146103f7578063d547741f1461041e578063e63ab1e914610431578063e985e9c51461044657600080fd5b8063a22cb465146103ab578063b88d4fde146103be578063c87b56dd146103d1578063d204c45e146103e457600080fd5b806390657147116100de578063906571471461037557806391d148541461038857806395d89b411461039b578063a217fddf146103a357600080fd5b80635c975abb1461033c5780636352211e1461034757806370a082311461035a5780638456cb591461036d57600080fd5b8063248a9ca3116101875780633f4ba83a116101565780633f4ba83a146102fb57806342842e0e1461030357806342966c68146103165780634f6ccce71461032957600080fd5b8063248a9ca31461029f5780632f2ff15d146102c25780632f745c59146102d557806336568abe146102e857600080fd5b8063081812fc116101c3578063081812fc1461023c578063095ea7b31461026757806318160ddd1461027a57806323b872dd1461028c57600080fd5b806301ffc9a7146101ea57806302fe53051461021257806306fdde0314610227575b600080fd5b6101fd6101f8366004612064565b610482565b60405190151581526020015b60405180910390f35b61022561022036600461212d565b610493565b005b61022f6104b7565b60405161020991906121ba565b61024f61024a3660046121cd565b610549565b6040516001600160a01b039091168152602001610209565b610225610275366004612202565b6105d6565b6008545b604051908152602001610209565b61022561029a36600461222c565b6106e7565b61027e6102ad3660046121cd565b6000908152600c602052604090206001015490565b6102256102d0366004612268565b610719565b61027e6102e3366004612202565b61073f565b6102256102f6366004612268565b6107d5565b610225610853565b61022561031136600461222c565b610877565b6102256103243660046121cd565b610892565b61027e6103373660046121cd565b610909565b600b5460ff166101fd565b61024f6103553660046121cd565b61099c565b61027e610368366004612294565b610a13565b610225610a9a565b6102256103833660046122af565b610abb565b6101fd610396366004612268565b610bec565b61022f610c17565b61027e600081565b6102256103b9366004612323565b610c26565b6102256103cc36600461235f565b610c31565b61022f6103df3660046121cd565b610c63565b6102256103f23660046123db565b610c6e565b61027e7f9f2df0fed2c77648de5860a4cc508cd0818c85b8b8a1ab4ceeef8d981c8956a681565b61022561042c366004612268565b610cc8565b61027e60008051602061273083398151915281565b6101fd610454366004612429565b6001600160a01b03918216600090815260056020908152604080832093909416825291909152205460ff1690565b600061048d82610cee565b92915050565b600061049f8133610d13565b81516104b2906010906020850190611f7f565b505050565b6060600e80546104c690612453565b80601f01602080910402602001604051908101604052809291908181526020018280546104f290612453565b801561053f5780601f106105145761010080835404028352916020019161053f565b820191906000526020600020905b81548152906001019060200180831161052257829003601f168201915b5050505050905090565b600061055482610d77565b6105ba5760405162461bcd60e51b815260206004820152602c60248201527f4552433732313a20617070726f76656420717565727920666f72206e6f6e657860448201526b34b9ba32b73a103a37b5b2b760a11b60648201526084015b60405180910390fd5b506000908152600460205260409020546001600160a01b031690565b60006105e18261099c565b9050806001600160a01b0316836001600160a01b0316141561064f5760405162461bcd60e51b815260206004820152602160248201527f4552433732313a20617070726f76616c20746f2063757272656e74206f776e656044820152603960f91b60648201526084016105b1565b336001600160a01b038216148061066b575061066b8133610454565b6106dd5760405162461bcd60e51b815260206004820152603860248201527f4552433732313a20617070726f76652063616c6c6572206973206e6f74206f7760448201527f6e6572206e6f7220617070726f76656420666f7220616c6c000000000000000060648201526084016105b1565b6104b28383610d94565b6106f2335b82610e02565b61070e5760405162461bcd60e51b81526004016105b19061248e565b6104b2838383610eec565b6000828152600c60205260409020600101546107358133610d13565b6104b28383611093565b600061074a83610a13565b82106107ac5760405162461bcd60e51b815260206004820152602b60248201527f455243373231456e756d657261626c653a206f776e657220696e646578206f7560448201526a74206f6620626f756e647360a81b60648201526084016105b1565b506001600160a01b03919091166000908152600660209081526040808320938352929052205490565b6001600160a01b03811633146108455760405162461bcd60e51b815260206004820152602f60248201527f416363657373436f6e74726f6c3a2063616e206f6e6c792072656e6f756e636560448201526e103937b632b9903337b91039b2b63360891b60648201526084016105b1565b61084f8282611119565b5050565b60008051602061273083398151915261086c8133610d13565b610874611180565b50565b6104b283838360405180602001604052806000815250610c31565b61089b336106ec565b6109005760405162461bcd60e51b815260206004820152603060248201527f4552433732314275726e61626c653a2063616c6c6572206973206e6f74206f7760448201526f1b995c881b9bdc88185c1c1c9bdd995960821b60648201526084016105b1565b61087481611213565b600061091460085490565b82106109775760405162461bcd60e51b815260206004820152602c60248201527f455243373231456e756d657261626c653a20676c6f62616c20696e646578206f60448201526b7574206f6620626f756e647360a01b60648201526084016105b1565b6008828154811061098a5761098a6124df565b90600052602060002001549050919050565b6000818152600260205260408120546001600160a01b03168061048d5760405162461bcd60e51b815260206004820152602960248201527f4552433732313a206f776e657220717565727920666f72206e6f6e657869737460448201526832b73a103a37b5b2b760b91b60648201526084016105b1565b60006001600160a01b038216610a7e5760405162461bcd60e51b815260206004820152602a60248201527f4552433732313a2062616c616e636520717565727920666f7220746865207a65604482015269726f206164647265737360b01b60648201526084016105b1565b506001600160a01b031660009081526003602052604090205490565b600080516020612730833981519152610ab38133610d13565b61087461121c565b600d54610100900460ff16610ad657600d5460ff1615610ada565b303b155b610b3d5760405162461bcd60e51b815260206004820152602e60248201527f496e697469616c697a61626c653a20636f6e747261637420697320616c72656160448201526d191e481a5b9a5d1a585b1a5e995960921b60648201526084016105b1565b600d54610100900460ff16158015610b5f57600d805461ffff19166101011790555b8251610b7290600e906020860190611f7f565b508151610b8690600f906020850190611f7f565b50610b92600085611093565b610baa60008051602061273083398151915285611093565b610bd47f9f2df0fed2c77648de5860a4cc508cd0818c85b8b8a1ab4ceeef8d981c8956a685611093565b8015610be657600d805461ff00191690555b50505050565b6000918252600c602090815260408084206001600160a01b0393909316845291905290205460ff1690565b6060600f80546104c690612453565b61084f338383611297565b610c3b3383610e02565b610c575760405162461bcd60e51b81526004016105b19061248e565b610be684848484611366565b606061048d82611399565b7f9f2df0fed2c77648de5860a4cc508cd0818c85b8b8a1ab4ceeef8d981c8956a6610c998133610d13565b6000610ca460115490565b9050610cb4601180546001019055565b610cbe84826114fb565b610be68184611515565b6000828152600c6020526040902060010154610ce48133610d13565b6104b28383611119565b60006001600160e01b03198216637965db0b60e01b148061048d575061048d826115a0565b610d1d8282610bec565b61084f57610d35816001600160a01b031660146115c5565b610d408360206115c5565b604051602001610d519291906124f5565b60408051601f198184030181529082905262461bcd60e51b82526105b1916004016121ba565b6000908152600260205260409020546001600160a01b0316151590565b600081815260046020526040902080546001600160a01b0319166001600160a01b0384169081179091558190610dc98261099c565b6001600160a01b03167f8c5be1e5ebec7d5bd14f71427d1e84f3dd0314c0f7b2291e5b200ac8c7c3b92560405160405180910390a45050565b6000610e0d82610d77565b610e6e5760405162461bcd60e51b815260206004820152602c60248201527f4552433732313a206f70657261746f7220717565727920666f72206e6f6e657860448201526b34b9ba32b73a103a37b5b2b760a11b60648201526084016105b1565b6000610e798361099c565b9050806001600160a01b0316846001600160a01b03161480610eb45750836001600160a01b0316610ea984610549565b6001600160a01b0316145b80610ee457506001600160a01b0380821660009081526005602090815260408083209388168352929052205460ff165b949350505050565b826001600160a01b0316610eff8261099c565b6001600160a01b031614610f635760405162461bcd60e51b815260206004820152602560248201527f4552433732313a207472616e736665722066726f6d20696e636f72726563742060448201526437bbb732b960d91b60648201526084016105b1565b6001600160a01b038216610fc55760405162461bcd60e51b8152602060048201526024808201527f4552433732313a207472616e7366657220746f20746865207a65726f206164646044820152637265737360e01b60648201526084016105b1565b610fd0838383611768565b610fdb600082610d94565b6001600160a01b0383166000908152600360205260408120805460019290611004908490612580565b90915550506001600160a01b0382166000908152600360205260408120805460019290611032908490612597565b909155505060008181526002602052604080822080546001600160a01b0319166001600160a01b0386811691821790925591518493918716917fddf252ad1be2c89b69c2b068fc378daa952ba7f163c4a11628f55a4df523b3ef91a4505050565b61109d8282610bec565b61084f576000828152600c602090815260408083206001600160a01b03851684529091529020805460ff191660011790556110d53390565b6001600160a01b0316816001600160a01b0316837f2f8788117e7eff1d82e926ec794901d17c78024a50270940304540a733656f0d60405160405180910390a45050565b6111238282610bec565b1561084f576000828152600c602090815260408083206001600160a01b0385168085529252808320805460ff1916905551339285917ff6391f5c32d9c69d2a47ea670b442974b53935d1edc7fd64eb21e047a839171b9190a45050565b600b5460ff166111c95760405162461bcd60e51b815260206004820152601460248201527314185d5cd8589b194e881b9bdd081c185d5cd95960621b60448201526064016105b1565b600b805460ff191690557f5db9ee0a495bf2e6ff9c91a7834c1ba4fdd244a5e8aa4e537bd38aeae4b073aa335b6040516001600160a01b03909116815260200160405180910390a1565b610874816117b9565b600b5460ff16156112625760405162461bcd60e51b815260206004820152601060248201526f14185d5cd8589b194e881c185d5cd95960821b60448201526064016105b1565b600b805460ff191660011790557f62e78cea01bee320cd4e420270b5ea74000d11b0c9f74754ebdbfc544b05a2586111f63390565b816001600160a01b0316836001600160a01b031614156112f95760405162461bcd60e51b815260206004820152601960248201527f4552433732313a20617070726f766520746f2063616c6c65720000000000000060448201526064016105b1565b6001600160a01b03838116600081815260056020908152604080832094871680845294825291829020805460ff191686151590811790915591519182527f17307eab39ab6107e8899845ad3d59bd9653f200f220920489ca2b5937696c31910160405180910390a3505050565b611371848484610eec565b61137d848484846117f9565b610be65760405162461bcd60e51b81526004016105b1906125af565b60606113a482610d77565b61140a5760405162461bcd60e51b815260206004820152603160248201527f45524337323155524953746f726167653a2055524920717565727920666f72206044820152703737b732bc34b9ba32b73a103a37b5b2b760791b60648201526084016105b1565b6000828152600a60205260408120805461142390612453565b80601f016020809104026020016040519081016040528092919081815260200182805461144f90612453565b801561149c5780601f106114715761010080835404028352916020019161149c565b820191906000526020600020905b81548152906001019060200180831161147f57829003601f168201915b5050505050905060006114ad6118f7565b90508051600014156114c0575092915050565b8151156114f25780826040516020016114da929190612601565b60405160208183030381529060405292505050919050565b610ee484611906565b61084f8282604051806020016040528060008152506119d0565b61151e82610d77565b6115815760405162461bcd60e51b815260206004820152602e60248201527f45524337323155524953746f726167653a2055524920736574206f66206e6f6e60448201526d32bc34b9ba32b73a103a37b5b2b760911b60648201526084016105b1565b6000828152600a6020908152604090912082516104b292840190611f7f565b60006001600160e01b0319821663780e9d6360e01b148061048d575061048d82611a03565b606060006115d4836002612630565b6115df906002612597565b67ffffffffffffffff8111156115f7576115f7612081565b6040519080825280601f01601f191660200182016040528015611621576020820181803683370190505b509050600360fc1b8160008151811061163c5761163c6124df565b60200101906001600160f81b031916908160001a905350600f60fb1b8160018151811061166b5761166b6124df565b60200101906001600160f81b031916908160001a905350600061168f846002612630565b61169a906001612597565b90505b6001811115611712576f181899199a1a9b1b9c1cb0b131b232b360811b85600f16601081106116ce576116ce6124df565b1a60f81b8282815181106116e4576116e46124df565b60200101906001600160f81b031916908160001a90535060049490941c9361170b8161264f565b905061169d565b5083156117615760405162461bcd60e51b815260206004820181905260248201527f537472696e67733a20686578206c656e67746820696e73756666696369656e7460448201526064016105b1565b9392505050565b600b5460ff16156117ae5760405162461bcd60e51b815260206004820152601060248201526f14185d5cd8589b194e881c185d5cd95960821b60448201526064016105b1565b6104b2838383611a53565b6117c281611b0b565b6000818152600a6020526040902080546117db90612453565b159050610874576000818152600a6020526040812061087491612003565b60006001600160a01b0384163b156118ec57604051630a85bd0160e11b81526001600160a01b0385169063150b7a029061183d903390899088908890600401612666565b6020604051808303816000875af1925050508015611878575060408051601f3d908101601f19168201909252611875918101906126a3565b60015b6118d2573d8080156118a6576040519150601f19603f3d011682016040523d82523d6000602084013e6118ab565b606091505b5080516118ca5760405162461bcd60e51b81526004016105b1906125af565b805181602001fd5b6001600160e01b031916630a85bd0160e11b149050610ee4565b506001949350505050565b6060601080546104c690612453565b606061191182610d77565b6119755760405162461bcd60e51b815260206004820152602f60248201527f4552433732314d657461646174613a2055524920717565727920666f72206e6f60448201526e3732bc34b9ba32b73a103a37b5b2b760891b60648201526084016105b1565b600061197f6118f7565b9050600081511161199f5760405180602001604052806000815250611761565b806119a984611bb2565b6040516020016119ba929190612601565b6040516020818303038152906040529392505050565b6119da8383611cb0565b6119e760008484846117f9565b6104b25760405162461bcd60e51b81526004016105b1906125af565b60006001600160e01b031982166380ac58cd60e01b1480611a3457506001600160e01b03198216635b5e139f60e01b145b8061048d57506301ffc9a760e01b6001600160e01b031983161461048d565b6001600160a01b038316611aae57611aa981600880546000838152600960205260408120829055600182018355919091527ff3f7a9fe364faab93b216da50a3214154f22a0a2b415b23a84c8169e8b636ee30155565b611ad1565b816001600160a01b0316836001600160a01b031614611ad157611ad18382611def565b6001600160a01b038216611ae8576104b281611e8c565b826001600160a01b0316826001600160a01b0316146104b2576104b28282611f3b565b6000611b168261099c565b9050611b2481600084611768565b611b2f600083610d94565b6001600160a01b0381166000908152600360205260408120805460019290611b58908490612580565b909155505060008281526002602052604080822080546001600160a01b0319169055518391906001600160a01b038416907fddf252ad1be2c89b69c2b068fc378daa952ba7f163c4a11628f55a4df523b3ef908390a45050565b606081611bd65750506040805180820190915260018152600360fc1b602082015290565b8160005b8115611c005780611bea816126c0565b9150611bf99050600a836126f1565b9150611bda565b60008167ffffffffffffffff811115611c1b57611c1b612081565b6040519080825280601f01601f191660200182016040528015611c45576020820181803683370190505b5090505b8415610ee457611c5a600183612580565b9150611c67600a86612705565b611c72906030612597565b60f81b818381518110611c8757611c876124df565b60200101906001600160f81b031916908160001a905350611ca9600a866126f1565b9450611c49565b6001600160a01b038216611d065760405162461bcd60e51b815260206004820181905260248201527f4552433732313a206d696e7420746f20746865207a65726f206164647265737360448201526064016105b1565b611d0f81610d77565b15611d5c5760405162461bcd60e51b815260206004820152601c60248201527f4552433732313a20746f6b656e20616c7265616479206d696e7465640000000060448201526064016105b1565b611d6860008383611768565b6001600160a01b0382166000908152600360205260408120805460019290611d91908490612597565b909155505060008181526002602052604080822080546001600160a01b0319166001600160a01b03861690811790915590518392907fddf252ad1be2c89b69c2b068fc378daa952ba7f163c4a11628f55a4df523b3ef908290a45050565b60006001611dfc84610a13565b611e069190612580565b600083815260076020526040902054909150808214611e59576001600160a01b03841660009081526006602090815260408083208584528252808320548484528184208190558352600790915290208190555b5060009182526007602090815260408084208490556001600160a01b039094168352600681528383209183525290812055565b600854600090611e9e90600190612580565b60008381526009602052604081205460088054939450909284908110611ec657611ec66124df565b906000526020600020015490508060088381548110611ee757611ee76124df565b6000918252602080832090910192909255828152600990915260408082208490558582528120556008805480611f1f57611f1f612719565b6001900381819060005260206000200160009055905550505050565b6000611f4683610a13565b6001600160a01b039093166000908152600660209081526040808320868452825280832085905593825260079052919091209190915550565b828054611f8b90612453565b90600052602060002090601f016020900481019282611fad5760008555611ff3565b82601f10611fc657805160ff1916838001178555611ff3565b82800160010185558215611ff3579182015b82811115611ff3578251825591602001919060010190611fd8565b50611fff929150612039565b5090565b50805461200f90612453565b6000825580601f1061201f575050565b601f01602090049060005260206000209081019061087491905b5b80821115611fff576000815560010161203a565b6001600160e01b03198116811461087457600080fd5b60006020828403121561207657600080fd5b81356117618161204e565b634e487b7160e01b600052604160045260246000fd5b600067ffffffffffffffff808411156120b2576120b2612081565b604051601f8501601f19908116603f011681019082821181831017156120da576120da612081565b816040528093508581528686860111156120f357600080fd5b858560208301376000602087830101525050509392505050565b600082601f83011261211e57600080fd5b61176183833560208501612097565b60006020828403121561213f57600080fd5b813567ffffffffffffffff81111561215657600080fd5b610ee48482850161210d565b60005b8381101561217d578181015183820152602001612165565b83811115610be65750506000910152565b600081518084526121a6816020860160208601612162565b601f01601f19169290920160200192915050565b602081526000611761602083018461218e565b6000602082840312156121df57600080fd5b5035919050565b80356001600160a01b03811681146121fd57600080fd5b919050565b6000806040838503121561221557600080fd5b61221e836121e6565b946020939093013593505050565b60008060006060848603121561224157600080fd5b61224a846121e6565b9250612258602085016121e6565b9150604084013590509250925092565b6000806040838503121561227b57600080fd5b8235915061228b602084016121e6565b90509250929050565b6000602082840312156122a657600080fd5b611761826121e6565b6000806000606084860312156122c457600080fd5b6122cd846121e6565b9250602084013567ffffffffffffffff808211156122ea57600080fd5b6122f68783880161210d565b9350604086013591508082111561230c57600080fd5b506123198682870161210d565b9150509250925092565b6000806040838503121561233657600080fd5b61233f836121e6565b91506020830135801515811461235457600080fd5b809150509250929050565b6000806000806080858703121561237557600080fd5b61237e856121e6565b935061238c602086016121e6565b925060408501359150606085013567ffffffffffffffff8111156123af57600080fd5b8501601f810187136123c057600080fd5b6123cf87823560208401612097565b91505092959194509250565b600080604083850312156123ee57600080fd5b6123f7836121e6565b9150602083013567ffffffffffffffff81111561241357600080fd5b61241f8582860161210d565b9150509250929050565b6000806040838503121561243c57600080fd5b612445836121e6565b915061228b602084016121e6565b600181811c9082168061246757607f821691505b6020821081141561248857634e487b7160e01b600052602260045260246000fd5b50919050565b60208082526031908201527f4552433732313a207472616e736665722063616c6c6572206973206e6f74206f6040820152701ddb995c881b9bdc88185c1c1c9bdd9959607a1b606082015260800190565b634e487b7160e01b600052603260045260246000fd5b7f416363657373436f6e74726f6c3a206163636f756e742000000000000000000081526000835161252d816017850160208801612162565b7001034b99036b4b9b9b4b733903937b6329607d1b601791840191820152835161255e816028840160208801612162565b01602801949350505050565b634e487b7160e01b600052601160045260246000fd5b6000828210156125925761259261256a565b500390565b600082198211156125aa576125aa61256a565b500190565b60208082526032908201527f4552433732313a207472616e7366657220746f206e6f6e20455243373231526560408201527131b2b4bb32b91034b6b83632b6b2b73a32b960711b606082015260800190565b60008351612613818460208801612162565b835190830190612627818360208801612162565b01949350505050565b600081600019048311821515161561264a5761264a61256a565b500290565b60008161265e5761265e61256a565b506000190190565b6001600160a01b03858116825284166020820152604081018390526080606082018190526000906126999083018461218e565b9695505050505050565b6000602082840312156126b557600080fd5b81516117618161204e565b60006000198214156126d4576126d461256a565b5060010190565b634e487b7160e01b600052601260045260246000fd5b600082612700576127006126db565b500490565b600082612714576127146126db565b500690565b634e487b7160e01b600052603160045260246000fdfe65d7a28e3265b37a6474929f336521b332c1681b933f6cb9f3376673440d862aa2646970667358221220f77e40454df68d972403cd678c298b1fc1bcf63d827bce8ea388a9ef2678bcfa64736f6c634300080a0033",
  "linkReferences": {},
  "deployedLinkReferences": {}
}